{
  "contractName": "Controllable",
  "abi": [
    {
      "constant": true,
      "inputs": [],
      "name": "getProxyControllerAddress",
      "outputs": [
        {
          "name": "",
          "type": "address"
        }
      ],
      "payable": false,
      "stateMutability": "view",
      "type": "function"
    },
    {
      "constant": false,
      "inputs": [
        {
          "name": "_proxyController",
          "type": "address"
        }
      ],
      "name": "setProxyControllerAddress",
      "outputs": [],
      "payable": false,
      "stateMutability": "nonpayable",
      "type": "function"
    }
  ],
  "bytecode": "0x608060405234801561001057600080fd5b506104d7806100206000396000f30060806040526004361061004c576000357c0100000000000000000000000000000000000000000000000000000000900463ffffffff1680630dc8bde1146100515780638bb0985214610094575b600080fd5b34801561005d57600080fd5b50610092600480360381019080803573ffffffffffffffffffffffffffffffffffffffff1690602001909291905050506100eb565b005b3480156100a057600080fd5b506100a9610337565b604051808273ffffffffffffffffffffffffffffffffffffffff1673ffffffffffffffffffffffffffffffffffffffff16815260200191505060405180910390f35b600073ffffffffffffffffffffffffffffffffffffffff168173ffffffffffffffffffffffffffffffffffffffff16141515156101b6576040517f08c379a000000000000000000000000000000000000000000000000000000000815260040180806020018281038252602d8152602001807f43616e6e6f7420736574207468652050726f787920436f6e74726f6c6c65722081526020017f746f20616464726573732830290000000000000000000000000000000000000081525060400191505060405180910390fd5b6000809054906101000a900473ffffffffffffffffffffffffffffffffffffffff1673ffffffffffffffffffffffffffffffffffffffff1663ca446dd973__ProxyControllerKeyLib_________________637ef3878d6040518163ffffffff167c010000000000000000000000000000000000000000000000000000000002815260040160206040518083038186803b15801561025357600080fd5b505af4158015610267573d6000803e3d6000fd5b505050506040513d602081101561027d57600080fd5b8101908080519060200190929190505050836040518363ffffffff167c01000000000000000000000000000000000000000000000000000000000281526004018083600019166000191681526020018273ffffffffffffffffffffffffffffffffffffffff1673ffffffffffffffffffffffffffffffffffffffff16815260200192505050600060405180830381600087803b15801561031c57600080fd5b505af1158015610330573d6000803e3d6000fd5b5050505050565b60008060009054906101000a900473ffffffffffffffffffffffffffffffffffffffff1673ffffffffffffffffffffffffffffffffffffffff166321f8a72173__ProxyControllerKeyLib_________________637ef3878d6040518163ffffffff167c010000000000000000000000000000000000000000000000000000000002815260040160206040518083038186803b1580156103d657600080fd5b505af41580156103ea573d6000803e3d6000fd5b505050506040513d602081101561040057600080fd5b81019080805190602001909291905050506040518263ffffffff167c0100000000000000000000000000000000000000000000000000000000028152600401808260001916600019168152602001915050602060405180830381600087803b15801561046b57600080fd5b505af115801561047f573d6000803e3d6000fd5b505050506040513d602081101561049557600080fd5b81019080805190602001909291905050509050905600a165627a7a723058206d085669373a1cd57338c915d8b1bcb6dc9cbccf6786d62352062ec7b312b4db0029",
  "source": "pragma solidity ^0.4.24;\n\nimport \"../libs/ProxyControllerKeyLib.sol\";\nimport \"./StorageState.sol\";\n\ncontract Controllable is StorageState {\n    modifier onlyController() {\n        require(\n            msg.sender == getProxyControllerAddress(),\n            \"Only this contract's 'controller' can perform this action.\"\n        );\n        _;\n    }\n\n    function getProxyControllerAddress() public view returns (address) {\n        return _storage.getAddress(ProxyControllerKeyLib.getProxyControllerKey());\n    }\n\n    function setProxyControllerAddress(address _proxyController) \n        external \n        // FIXME: Anyone can change this right meow. Need to add modifier \n    {\n        require(\n            _proxyController != address(0),\n            \"Cannot set the Proxy Controller to address(0)\"\n        );\n        _storage.setAddress(\n            ProxyControllerKeyLib.getProxyControllerKey(), \n            _proxyController\n        );\n    }\n}",
  "sourcePath": "/Users/bryceDoganer/Solidity/Solidity_Examples/proxy-interface-react/contracts/Storage/Controllable.sol",
  "compiler": {
    "name": "solc",
    "version": "0.4.24+commit.e67f0147.Emscripten.clang"
  },
  "schemaVersion": "2.0.1",
  "updatedAt": "2018-08-14T23:07:08.272Z"
}