{
  "contractName": "Controllable",
  "abi": [
    {
      "constant": false,
      "inputs": [],
      "name": "renounceOwnership",
      "outputs": [],
      "payable": false,
      "stateMutability": "nonpayable",
      "type": "function"
    },
    {
      "constant": true,
      "inputs": [],
      "name": "owner",
      "outputs": [
        {
          "name": "",
          "type": "address"
        }
      ],
      "payable": false,
      "stateMutability": "view",
      "type": "function"
    },
    {
      "constant": false,
      "inputs": [
        {
          "name": "_newOwner",
          "type": "address"
        }
      ],
      "name": "transferOwnership",
      "outputs": [],
      "payable": false,
      "stateMutability": "nonpayable",
      "type": "function"
    },
    {
      "anonymous": false,
      "inputs": [
        {
          "indexed": true,
          "name": "previousOwner",
          "type": "address"
        }
      ],
      "name": "OwnershipRenounced",
      "type": "event"
    },
    {
      "anonymous": false,
      "inputs": [
        {
          "indexed": true,
          "name": "previousOwner",
          "type": "address"
        },
        {
          "indexed": true,
          "name": "newOwner",
          "type": "address"
        }
      ],
      "name": "OwnershipTransferred",
      "type": "event"
    },
    {
      "constant": true,
      "inputs": [],
      "name": "getProxyControllerAddress",
      "outputs": [
        {
          "name": "",
          "type": "address"
        }
      ],
      "payable": false,
      "stateMutability": "view",
      "type": "function"
    },
    {
      "constant": false,
      "inputs": [
        {
          "name": "_proxyController",
          "type": "address"
        }
      ],
      "name": "setProxyControllerAddress",
      "outputs": [],
      "payable": false,
      "stateMutability": "nonpayable",
      "type": "function"
    }
  ],
  "bytecode": "0x608060405260018054600160a060020a031916331790556106fc806100256000396000f30060806040526004361061006c5763ffffffff7c01000000000000000000000000000000000000000000000000000000006000350416630dc8bde18114610071578063715018a6146100945780638bb09852146100a95780638da5cb5b146100da578063f2fde38b146100ef575b600080fd5b34801561007d57600080fd5b50610092600160a060020a0360043516610110565b005b3480156100a057600080fd5b50610092610354565b3480156100b557600080fd5b506100be610424565b60408051600160a060020a039092168252519081900360200190f35b3480156100e657600080fd5b506100be61055c565b3480156100fb57600080fd5b50610092600160a060020a036004351661056b565b600154600160a060020a0316331461018957604080517f08c379a000000000000000000000000000000000000000000000000000000000815260206004820152601960248201527f6d73672e73656e646572206d757374206265206f776e65722e00000000000000604482015290519081900360640190fd5b600160a060020a038116151561022657604080517f08c379a000000000000000000000000000000000000000000000000000000000815260206004820152602d60248201527f43616e6e6f7420736574207468652050726f787920436f6e74726f6c6c65722060448201527f746f206164647265737328302900000000000000000000000000000000000000606482015290519081900360840190fd5b6000809054906101000a9004600160a060020a0316600160a060020a031663ca446dd973__ProxyControllerKeyLib_________________637ef3878d6040518163ffffffff167c010000000000000000000000000000000000000000000000000000000002815260040160206040518083038186803b1580156102a957600080fd5b505af41580156102bd573d6000803e3d6000fd5b505050506040513d60208110156102d357600080fd5b5051604080517c010000000000000000000000000000000000000000000000000000000063ffffffff85160281526004810192909252600160a060020a038516602483015251604480830192600092919082900301818387803b15801561033957600080fd5b505af115801561034d573d6000803e3d6000fd5b5050505050565b600154600160a060020a031633146103cd57604080517f08c379a000000000000000000000000000000000000000000000000000000000815260206004820152601960248201527f6d73672e73656e646572206d757374206265206f776e65722e00000000000000604482015290519081900360640190fd5b600154604051600160a060020a03909116907ff8df31144d9c2f0f6b59d69b8b98abd5459d07f2742c4df920b25aae33c6482090600090a26001805473ffffffffffffffffffffffffffffffffffffffff19169055565b60008060009054906101000a9004600160a060020a0316600160a060020a03166321f8a72173__ProxyControllerKeyLib_________________637ef3878d6040518163ffffffff167c010000000000000000000000000000000000000000000000000000000002815260040160206040518083038186803b1580156104a957600080fd5b505af41580156104bd573d6000803e3d6000fd5b505050506040513d60208110156104d357600080fd5b5051604080517c010000000000000000000000000000000000000000000000000000000063ffffffff851602815260048101929092525160248083019260209291908290030181600087803b15801561052b57600080fd5b505af115801561053f573d6000803e3d6000fd5b505050506040513d602081101561055557600080fd5b5051905090565b600154600160a060020a031681565b600154600160a060020a031633146105e457604080517f08c379a000000000000000000000000000000000000000000000000000000000815260206004820152601960248201527f6d73672e73656e646572206d757374206265206f776e65722e00000000000000604482015290519081900360640190fd5b6105ed816105f0565b50565b600160a060020a038116151561066757604080517f08c379a000000000000000000000000000000000000000000000000000000000815260206004820152601e60248201527f5f6e65774f776e65722063616e6e6f7420626520616464726573732830290000604482015290519081900360640190fd5b600154604051600160a060020a038084169216907f8be0079c531659141344cd1fd0a4f28419497f9722a3daafe3b4186f6b6457e090600090a36001805473ffffffffffffffffffffffffffffffffffffffff1916600160a060020a03929092169190911790555600a165627a7a7230582069d81e2a341742bb84e8d1cef3ecff6d6b564a4661f35217e1f2391345bd09630029",
  "source": "pragma solidity ^0.4.24;\n\nimport \"../libs/ProxyControllerKeyLib.sol\";\nimport \"./StorageState.sol\";\nimport \"../Ownable.sol\";\n\n/// @title Controllable Contract\n/// @author Bryce Doganer\n/// @notice A contract that holds an address that can make calls to functions\n///   with the 'onlyController' modifier. This allows sensitive data to be\n///   accessed by a specific `controller` contract/user address.\n/// @dev This specific contract is setup to store the controller address in \ncontract Controllable is StorageState, Ownable {\n    modifier onlyController() {\n        require(\n            msg.sender == getProxyControllerAddress(),\n            \"Only this contract's 'controller' can perform this action.\"\n        );\n        _;\n    }\n\n    function getProxyControllerAddress() public view returns (address) {\n        return _storage.getAddress(ProxyControllerKeyLib.getProxyControllerKey());\n    }\n\n    /// @notice This function allows the controller address to be changed. \n    ///  When this contract is created the 'owner' is set in the 'Ownable'\n    ///  contract.\n    /// @dev I'm not 100% certain if this should use the `onlyOwner` or \n    ///   `onlyController` function modifier \n    function setProxyControllerAddress(address _proxyController) \n        external \n        onlyOwner\n    {\n        require(\n            _proxyController != address(0),\n            \"Cannot set the Proxy Controller to address(0)\"\n        );\n        _storage.setAddress(\n            ProxyControllerKeyLib.getProxyControllerKey(), \n            _proxyController\n        );\n    }\n}",
  "sourcePath": "/Users/bryceDoganer/Solidity/Solidity_Examples/proxy-interface-react/contracts/Storage/Controllable.sol",
  "compiler": {
    "name": "solc",
    "version": "0.4.24+commit.e67f0147.Emscripten.clang"
  },
  "schemaVersion": "2.0.1",
  "updatedAt": "2018-08-17T15:15:24.487Z"
}