{
  "contractName": "EternalStorage",
  "abi": [
    {
      "constant": true,
      "inputs": [
        {
          "name": "key",
          "type": "bytes32"
        }
      ],
      "name": "getAddress",
      "outputs": [
        {
          "name": "",
          "type": "address"
        }
      ],
      "payable": false,
      "stateMutability": "view",
      "type": "function"
    },
    {
      "constant": true,
      "inputs": [
        {
          "name": "key",
          "type": "bytes32"
        }
      ],
      "name": "getUint",
      "outputs": [
        {
          "name": "",
          "type": "uint256"
        }
      ],
      "payable": false,
      "stateMutability": "view",
      "type": "function"
    },
    {
      "constant": true,
      "inputs": [
        {
          "name": "key",
          "type": "bytes32"
        }
      ],
      "name": "getBool",
      "outputs": [
        {
          "name": "",
          "type": "bool"
        }
      ],
      "payable": false,
      "stateMutability": "view",
      "type": "function"
    },
    {
      "constant": true,
      "inputs": [
        {
          "name": "key",
          "type": "bytes32"
        }
      ],
      "name": "getString",
      "outputs": [
        {
          "name": "",
          "type": "string"
        }
      ],
      "payable": false,
      "stateMutability": "view",
      "type": "function"
    },
    {
      "constant": true,
      "inputs": [
        {
          "name": "key",
          "type": "bytes32"
        },
        {
          "name": "addr",
          "type": "address"
        }
      ],
      "name": "getAddressFromAddress",
      "outputs": [
        {
          "name": "",
          "type": "address"
        }
      ],
      "payable": false,
      "stateMutability": "view",
      "type": "function"
    },
    {
      "constant": true,
      "inputs": [
        {
          "name": "key",
          "type": "bytes32"
        },
        {
          "name": "addr",
          "type": "address"
        }
      ],
      "name": "getUintFromAddress",
      "outputs": [
        {
          "name": "",
          "type": "uint256"
        }
      ],
      "payable": false,
      "stateMutability": "view",
      "type": "function"
    },
    {
      "constant": true,
      "inputs": [
        {
          "name": "key",
          "type": "bytes32"
        },
        {
          "name": "addr",
          "type": "address"
        }
      ],
      "name": "getBoolFromAddress",
      "outputs": [
        {
          "name": "",
          "type": "bool"
        }
      ],
      "payable": false,
      "stateMutability": "view",
      "type": "function"
    },
    {
      "constant": true,
      "inputs": [
        {
          "name": "key",
          "type": "bytes32"
        },
        {
          "name": "addr",
          "type": "address"
        }
      ],
      "name": "getStringFromAddress",
      "outputs": [
        {
          "name": "",
          "type": "string"
        }
      ],
      "payable": false,
      "stateMutability": "view",
      "type": "function"
    },
    {
      "constant": false,
      "inputs": [
        {
          "name": "key",
          "type": "bytes32"
        },
        {
          "name": "value",
          "type": "address"
        }
      ],
      "name": "setAddress",
      "outputs": [],
      "payable": false,
      "stateMutability": "nonpayable",
      "type": "function"
    },
    {
      "constant": false,
      "inputs": [
        {
          "name": "key",
          "type": "bytes32"
        },
        {
          "name": "value",
          "type": "uint256"
        }
      ],
      "name": "setUint",
      "outputs": [],
      "payable": false,
      "stateMutability": "nonpayable",
      "type": "function"
    },
    {
      "constant": false,
      "inputs": [
        {
          "name": "key",
          "type": "bytes32"
        },
        {
          "name": "value",
          "type": "bool"
        }
      ],
      "name": "setBool",
      "outputs": [],
      "payable": false,
      "stateMutability": "nonpayable",
      "type": "function"
    },
    {
      "constant": false,
      "inputs": [
        {
          "name": "key",
          "type": "bytes32"
        },
        {
          "name": "value",
          "type": "string"
        }
      ],
      "name": "setString",
      "outputs": [],
      "payable": false,
      "stateMutability": "nonpayable",
      "type": "function"
    },
    {
      "constant": false,
      "inputs": [
        {
          "name": "key",
          "type": "bytes32"
        }
      ],
      "name": "deleteAddress",
      "outputs": [],
      "payable": false,
      "stateMutability": "nonpayable",
      "type": "function"
    },
    {
      "constant": false,
      "inputs": [
        {
          "name": "key",
          "type": "bytes32"
        }
      ],
      "name": "deleteUint",
      "outputs": [],
      "payable": false,
      "stateMutability": "nonpayable",
      "type": "function"
    },
    {
      "constant": false,
      "inputs": [
        {
          "name": "key",
          "type": "bytes32"
        }
      ],
      "name": "deleteBool",
      "outputs": [],
      "payable": false,
      "stateMutability": "nonpayable",
      "type": "function"
    },
    {
      "constant": false,
      "inputs": [
        {
          "name": "key",
          "type": "bytes32"
        }
      ],
      "name": "deleteString",
      "outputs": [],
      "payable": false,
      "stateMutability": "nonpayable",
      "type": "function"
    }
  ],
  "bytecode": "0x608060405234801561001057600080fd5b506108df806100206000396000f3006080604052600436106100e55763ffffffff7c01000000000000000000000000000000000000000000000000000000006000350416630e14a37681146100ea57806321f8a721146101045780632c62ff2d146101455780633519d8571461015d5780636e899550146101a25780636f01e64f146102005780637ae1cfca146102a657806396fe8386146102be578063986e791a146102ef578063a61bd18b14610307578063abfdcced1461034a578063bd02d0f514610367578063ca446dd91461037f578063e2a4853a146103b0578063e2b202bf146103cb578063f6bb3cc4146103e3575b600080fd5b3480156100f657600080fd5b506101026004356103fb565b005b34801561011057600080fd5b5061011c600435610431565b6040805173ffffffffffffffffffffffffffffffffffffffff9092168252519081900360200190f35b34801561015157600080fd5b50610102600435610464565b34801561016957600080fd5b5061018e60043573ffffffffffffffffffffffffffffffffffffffff60243516610487565b604080519115158252519081900360200190f35b3480156101ae57600080fd5b5060408051602060046024803582810135601f81018590048502860185019096528585526101029583359536956044949193909101919081908401838280828437509497506104bc9650505050505050565b34801561020c57600080fd5b5061023160043573ffffffffffffffffffffffffffffffffffffffff602435166104e9565b6040805160208082528351818301528351919283929083019185019080838360005b8381101561026b578181015183820152602001610253565b50505050905090810190601f1680156102985780820380516001836020036101000a031916815260200191505b509250505060405180910390f35b3480156102b257600080fd5b5061018e6004356105aa565b3480156102ca57600080fd5b5061011c60043573ffffffffffffffffffffffffffffffffffffffff602435166105ca565b3480156102fb57600080fd5b50610231600435610602565b34801561031357600080fd5b5061033860043573ffffffffffffffffffffffffffffffffffffffff602435166106ac565b60408051918252519081900360200190f35b34801561035657600080fd5b5061010260043560243515156106dc565b34801561037357600080fd5b50610338600435610709565b34801561038b57600080fd5b5061010260043573ffffffffffffffffffffffffffffffffffffffff60243516610724565b3480156103bc57600080fd5b50610102600435602435610779565b3480156103d757600080fd5b50610102600435610796565b3480156103ef57600080fd5b506101026004356107b2565b33600090815260016020908152604080832093835292905220805473ffffffffffffffffffffffffffffffffffffffff19169055565b336000908152600160209081526040808320938352929052205473ffffffffffffffffffffffffffffffffffffffff1690565b33600090815260026020908152604080832093835292905220805460ff19169055565b73ffffffffffffffffffffffffffffffffffffffff166000908152600260209081526040808320938352929052205460ff1690565b336000908152600360209081526040808320858452825290912082516104e4928401906107d8565b505050565b73ffffffffffffffffffffffffffffffffffffffff8116600090815260036020908152604080832085845282529182902080548351601f600261010060018516150260001901909316929092049182018490048402810184019094528084526060939283018282801561059d5780601f106105725761010080835404028352916020019161059d565b820191906000526020600020905b81548152906001019060200180831161058057829003601f168201915b5050505050905092915050565b336000908152600260209081526040808320938352929052205460ff1690565b73ffffffffffffffffffffffffffffffffffffffff908116600090815260016020908152604080832094835293905291909120541690565b33600090815260036020908152604080832084845282529182902080548351601f60026101006001851615026000190190931692909204918201849004840281018401909452808452606093928301828280156106a05780601f10610675576101008083540402835291602001916106a0565b820191906000526020600020905b81548152906001019060200180831161068357829003601f168201915b50505050509050919050565b73ffffffffffffffffffffffffffffffffffffffff16600090815260208181526040808320938352929052205490565b33600090815260026020908152604080832094835293905291909120805460ff1916911515919091179055565b33600090815260208181526040808320938352929052205490565b33600090815260016020908152604080832094835293905291909120805473ffffffffffffffffffffffffffffffffffffffff191673ffffffffffffffffffffffffffffffffffffffff909216919091179055565b336000908152602081815260408083209483529390529190912055565b3360009081526020818152604080832093835292905290812055565b33600090815260036020908152604080832084845290915281206107d591610856565b50565b828054600181600116156101000203166002900490600052602060002090601f016020900481019282601f1061081957805160ff1916838001178555610846565b82800160010185558215610846579182015b8281111561084657825182559160200191906001019061082b565b50610852929150610896565b5090565b50805460018160011615610100020316600290046000825580601f1061087c57506107d5565b601f0160209004906000526020600020908101906107d591905b6108b091905b80821115610852576000815560010161089c565b905600a165627a7a723058202d559668c82287a9c66320302e420e0dbc90c09f8ad501b5ed201b48322fab260029",
  "source": "pragma solidity ^0.4.24;\n\ncontract EternalStorage {\n\n    mapping(address => mapping(bytes32 => uint256)) _uintStorage;\n    mapping(address => mapping(bytes32 => address)) _addressStorage;\n    mapping(address => mapping(bytes32 => bool)) _boolStorage;\n    mapping(address => mapping(bytes32 => string)) _stringStorage;\n\n    /*********** Getter Methods ***********/\n\n    function getAddress(bytes32 key) public view returns (address) {\n        return _addressStorage[msg.sender][key];\n    }\n\n    function getUint(bytes32 key) public view returns (uint) {\n        return _uintStorage[msg.sender][key];\n    }\n\n    function getBool(bytes32 key) public view returns (bool) {\n        return _boolStorage[msg.sender][key];\n    }\n\n    function getString(bytes32 key) public view returns (string) {\n        return _stringStorage[msg.sender][key];\n    }\n\n    /*********** Get At Address Methods ***********/\n\n    function getAddressFromAddress(bytes32 key, address addr) public view returns (address) {\n        return _addressStorage[addr][key];\n    }\n\n    function getUintFromAddress(bytes32 key, address addr) public view returns (uint) {\n        return _uintStorage[addr][key];\n    }\n\n    function getBoolFromAddress(bytes32 key, address addr) public view returns (bool) {\n        return _boolStorage[addr][key];\n    }\n\n    function getStringFromAddress(bytes32 key, address addr) public view returns (string) {\n        return _stringStorage[addr][key];\n    }\n\n    /*********** Setter Methods ***********/\n\n    function setAddress(bytes32 key, address value) public {\n        _addressStorage[msg.sender][key] = value;\n    }\n\n    function setUint(bytes32 key, uint value) public {\n        _uintStorage[msg.sender][key] = value;\n    }\n\n    function setBool(bytes32 key, bool value) public {\n        _boolStorage[msg.sender][key] = value;\n    }\n\n    function setString(bytes32 key, string value) public {\n        _stringStorage[msg.sender][key] = value;\n    }\n\n    /*********** Delete Methods ***********/\n\n    function deleteAddress(bytes32 key) public {\n        delete _addressStorage[msg.sender][key];\n    }\n\n    function deleteUint(bytes32 key) public {\n        delete _uintStorage[msg.sender][key];\n    }\n\n    function deleteBool(bytes32 key) public {\n        delete _boolStorage[msg.sender][key];\n    }\n    \n    function deleteString(bytes32 key) public {\n        delete _stringStorage[msg.sender][key];\n    }\n}\n",
  "sourcePath": "/Users/bryceDoganer/Solidity/Solidity_Examples/proxy-interface-react/contracts/Storage/EternalStorage.sol",
  "compiler": {
    "name": "solc",
    "version": "0.4.24+commit.e67f0147.Emscripten.clang"
  },
  "schemaVersion": "2.0.1",
  "updatedAt": "2018-08-15T17:51:17.276Z"
}