{
  "contractName": "EternalStorage",
  "abi": [
    {
      "constant": true,
      "inputs": [
        {
          "name": "key",
          "type": "bytes32"
        }
      ],
      "name": "getAddress",
      "outputs": [
        {
          "name": "",
          "type": "address"
        }
      ],
      "payable": false,
      "stateMutability": "view",
      "type": "function"
    },
    {
      "constant": true,
      "inputs": [
        {
          "name": "key",
          "type": "bytes32"
        }
      ],
      "name": "getUint",
      "outputs": [
        {
          "name": "",
          "type": "uint256"
        }
      ],
      "payable": false,
      "stateMutability": "view",
      "type": "function"
    },
    {
      "constant": true,
      "inputs": [
        {
          "name": "key",
          "type": "bytes32"
        }
      ],
      "name": "getBool",
      "outputs": [
        {
          "name": "",
          "type": "bool"
        }
      ],
      "payable": false,
      "stateMutability": "view",
      "type": "function"
    },
    {
      "constant": true,
      "inputs": [
        {
          "name": "key",
          "type": "bytes32"
        }
      ],
      "name": "getString",
      "outputs": [
        {
          "name": "",
          "type": "string"
        }
      ],
      "payable": false,
      "stateMutability": "view",
      "type": "function"
    },
    {
      "constant": true,
      "inputs": [
        {
          "name": "key",
          "type": "bytes32"
        },
        {
          "name": "addr",
          "type": "address"
        }
      ],
      "name": "getAddressFromAddress",
      "outputs": [
        {
          "name": "",
          "type": "address"
        }
      ],
      "payable": false,
      "stateMutability": "view",
      "type": "function"
    },
    {
      "constant": true,
      "inputs": [
        {
          "name": "key",
          "type": "bytes32"
        },
        {
          "name": "addr",
          "type": "address"
        }
      ],
      "name": "getUintFromAddress",
      "outputs": [
        {
          "name": "",
          "type": "uint256"
        }
      ],
      "payable": false,
      "stateMutability": "view",
      "type": "function"
    },
    {
      "constant": true,
      "inputs": [
        {
          "name": "key",
          "type": "bytes32"
        },
        {
          "name": "addr",
          "type": "address"
        }
      ],
      "name": "getBoolFromAddress",
      "outputs": [
        {
          "name": "",
          "type": "bool"
        }
      ],
      "payable": false,
      "stateMutability": "view",
      "type": "function"
    },
    {
      "constant": true,
      "inputs": [
        {
          "name": "key",
          "type": "bytes32"
        },
        {
          "name": "addr",
          "type": "address"
        }
      ],
      "name": "getStringFromAddress",
      "outputs": [
        {
          "name": "",
          "type": "string"
        }
      ],
      "payable": false,
      "stateMutability": "view",
      "type": "function"
    },
    {
      "constant": false,
      "inputs": [
        {
          "name": "key",
          "type": "bytes32"
        },
        {
          "name": "value",
          "type": "address"
        }
      ],
      "name": "setAddress",
      "outputs": [],
      "payable": false,
      "stateMutability": "nonpayable",
      "type": "function"
    },
    {
      "constant": false,
      "inputs": [
        {
          "name": "key",
          "type": "bytes32"
        },
        {
          "name": "value",
          "type": "uint256"
        }
      ],
      "name": "setUint",
      "outputs": [],
      "payable": false,
      "stateMutability": "nonpayable",
      "type": "function"
    },
    {
      "constant": false,
      "inputs": [
        {
          "name": "key",
          "type": "bytes32"
        },
        {
          "name": "value",
          "type": "bool"
        }
      ],
      "name": "setBool",
      "outputs": [],
      "payable": false,
      "stateMutability": "nonpayable",
      "type": "function"
    },
    {
      "constant": false,
      "inputs": [
        {
          "name": "key",
          "type": "bytes32"
        },
        {
          "name": "value",
          "type": "string"
        }
      ],
      "name": "setString",
      "outputs": [],
      "payable": false,
      "stateMutability": "nonpayable",
      "type": "function"
    },
    {
      "constant": false,
      "inputs": [
        {
          "name": "key",
          "type": "bytes32"
        }
      ],
      "name": "deleteAddress",
      "outputs": [],
      "payable": false,
      "stateMutability": "nonpayable",
      "type": "function"
    },
    {
      "constant": false,
      "inputs": [
        {
          "name": "key",
          "type": "bytes32"
        }
      ],
      "name": "deleteUint",
      "outputs": [],
      "payable": false,
      "stateMutability": "nonpayable",
      "type": "function"
    },
    {
      "constant": false,
      "inputs": [
        {
          "name": "key",
          "type": "bytes32"
        }
      ],
      "name": "deleteBool",
      "outputs": [],
      "payable": false,
      "stateMutability": "nonpayable",
      "type": "function"
    },
    {
      "constant": false,
      "inputs": [
        {
          "name": "key",
          "type": "bytes32"
        }
      ],
      "name": "deleteString",
      "outputs": [],
      "payable": false,
      "stateMutability": "nonpayable",
      "type": "function"
    }
  ],
  "bytecode": "0x608060405234801561001057600080fd5b50611004806100206000396000f3006080604052600436106100e6576000357c0100000000000000000000000000000000000000000000000000000000900463ffffffff1680630e14a376146100eb57806321f8a7211461011c5780632c62ff2d1461018d5780633519d857146101be5780636e899550146102275780636f01e64f1461029e5780637ae1cfca1461036857806396fe8386146103b1578063986e791a14610442578063a61bd18b146104ec578063abfdcced14610551578063bd02d0f51461058e578063ca446dd9146105d3578063e2a4853a14610624578063e2b202bf1461065f578063f6bb3cc414610690575b600080fd5b3480156100f757600080fd5b5061011a60048036038101908080356000191690602001909291905050506106c1565b005b34801561012857600080fd5b5061014b600480360381019080803560001916906020019092919050505061073f565b604051808273ffffffffffffffffffffffffffffffffffffffff1673ffffffffffffffffffffffffffffffffffffffff16815260200191505060405180910390f35b34801561019957600080fd5b506101bc60048036038101908080356000191690602001909291905050506107c1565b005b3480156101ca57600080fd5b5061020d6004803603810190808035600019169060200190929190803573ffffffffffffffffffffffffffffffffffffffff16906020019092919050505061082c565b604051808215151515815260200191505060405180910390f35b34801561023357600080fd5b5061029c6004803603810190808035600019169060200190929190803590602001908201803590602001908080601f016020809104026020016040519081016040528093929190818152602001838380828437820191505050505050919291929050505061089c565b005b3480156102aa57600080fd5b506102ed6004803603810190808035600019169060200190929190803573ffffffffffffffffffffffffffffffffffffffff16906020019092919050505061090d565b6040518080602001828103825283818151815260200191508051906020019080838360005b8381101561032d578082015181840152602081019050610312565b50505050905090810190601f16801561035a5780820380516001836020036101000a031916815260200191505b509250505060405180910390f35b34801561037457600080fd5b506103976004803603810190808035600019169060200190929190505050610a08565b604051808215151515815260200191505060405180910390f35b3480156103bd57600080fd5b506104006004803603810190808035600019169060200190929190803573ffffffffffffffffffffffffffffffffffffffff169060200190929190505050610a77565b604051808273ffffffffffffffffffffffffffffffffffffffff1673ffffffffffffffffffffffffffffffffffffffff16815260200191505060405180910390f35b34801561044e57600080fd5b506104716004803603810190808035600019169060200190929190505050610afa565b6040518080602001828103825283818151815260200191508051906020019080838360005b838110156104b1578082015181840152602081019050610496565b50505050905090810190601f1680156104de5780820380516001836020036101000a031916815260200191505b509250505060405180910390f35b3480156104f857600080fd5b5061053b6004803603810190808035600019169060200190929190803573ffffffffffffffffffffffffffffffffffffffff169060200190929190505050610bf4565b6040518082815260200191505060405180910390f35b34801561055d57600080fd5b5061058c6004803603810190808035600019169060200190929190803515159060200190929190505050610c56565b005b34801561059a57600080fd5b506105bd6004803603810190808035600019169060200190929190505050610cca565b6040518082815260200191505060405180910390f35b3480156105df57600080fd5b506106226004803603810190808035600019169060200190929190803573ffffffffffffffffffffffffffffffffffffffff169060200190929190505050610d2b565b005b34801561063057600080fd5b5061065d600480360381019080803560001916906020019092919080359060200190929190505050610dc6565b005b34801561066b57600080fd5b5061068e6004803603810190808035600019169060200190929190505050610e26565b005b34801561069c57600080fd5b506106bf6004803603810190808035600019169060200190929190505050610e84565b005b600160003373ffffffffffffffffffffffffffffffffffffffff1673ffffffffffffffffffffffffffffffffffffffff1681526020019081526020016000206000826000191660001916815260200190815260200160002060006101000a81549073ffffffffffffffffffffffffffffffffffffffff021916905550565b6000600160003373ffffffffffffffffffffffffffffffffffffffff1673ffffffffffffffffffffffffffffffffffffffff1681526020019081526020016000206000836000191660001916815260200190815260200160002060009054906101000a900473ffffffffffffffffffffffffffffffffffffffff169050919050565b600260003373ffffffffffffffffffffffffffffffffffffffff1673ffffffffffffffffffffffffffffffffffffffff1681526020019081526020016000206000826000191660001916815260200190815260200160002060006101000a81549060ff021916905550565b6000600260008373ffffffffffffffffffffffffffffffffffffffff1673ffffffffffffffffffffffffffffffffffffffff1681526020019081526020016000206000846000191660001916815260200190815260200160002060009054906101000a900460ff16905092915050565b80600360003373ffffffffffffffffffffffffffffffffffffffff1673ffffffffffffffffffffffffffffffffffffffff168152602001908152602001600020600084600019166000191681526020019081526020016000209080519060200190610908929190610eeb565b505050565b6060600360008373ffffffffffffffffffffffffffffffffffffffff1673ffffffffffffffffffffffffffffffffffffffff168152602001908152602001600020600084600019166000191681526020019081526020016000208054600181600116156101000203166002900480601f0160208091040260200160405190810160405280929190818152602001828054600181600116156101000203166002900480156109fb5780601f106109d0576101008083540402835291602001916109fb565b820191906000526020600020905b8154815290600101906020018083116109de57829003601f168201915b5050505050905092915050565b6000600260003373ffffffffffffffffffffffffffffffffffffffff1673ffffffffffffffffffffffffffffffffffffffff1681526020019081526020016000206000836000191660001916815260200190815260200160002060009054906101000a900460ff169050919050565b6000600160008373ffffffffffffffffffffffffffffffffffffffff1673ffffffffffffffffffffffffffffffffffffffff1681526020019081526020016000206000846000191660001916815260200190815260200160002060009054906101000a900473ffffffffffffffffffffffffffffffffffffffff16905092915050565b6060600360003373ffffffffffffffffffffffffffffffffffffffff1673ffffffffffffffffffffffffffffffffffffffff168152602001908152602001600020600083600019166000191681526020019081526020016000208054600181600116156101000203166002900480601f016020809104026020016040519081016040528092919081815260200182805460018160011615610100020316600290048015610be85780601f10610bbd57610100808354040283529160200191610be8565b820191906000526020600020905b815481529060010190602001808311610bcb57829003601f168201915b50505050509050919050565b60008060008373ffffffffffffffffffffffffffffffffffffffff1673ffffffffffffffffffffffffffffffffffffffff1681526020019081526020016000206000846000191660001916815260200190815260200160002054905092915050565b80600260003373ffffffffffffffffffffffffffffffffffffffff1673ffffffffffffffffffffffffffffffffffffffff1681526020019081526020016000206000846000191660001916815260200190815260200160002060006101000a81548160ff0219169083151502179055505050565b60008060003373ffffffffffffffffffffffffffffffffffffffff1673ffffffffffffffffffffffffffffffffffffffff16815260200190815260200160002060008360001916600019168152602001908152602001600020549050919050565b80600160003373ffffffffffffffffffffffffffffffffffffffff1673ffffffffffffffffffffffffffffffffffffffff1681526020019081526020016000206000846000191660001916815260200190815260200160002060006101000a81548173ffffffffffffffffffffffffffffffffffffffff021916908373ffffffffffffffffffffffffffffffffffffffff1602179055505050565b806000803373ffffffffffffffffffffffffffffffffffffffff1673ffffffffffffffffffffffffffffffffffffffff16815260200190815260200160002060008460001916600019168152602001908152602001600020819055505050565b6000803373ffffffffffffffffffffffffffffffffffffffff1673ffffffffffffffffffffffffffffffffffffffff168152602001908152602001600020600082600019166000191681526020019081526020016000206000905550565b600360003373ffffffffffffffffffffffffffffffffffffffff1673ffffffffffffffffffffffffffffffffffffffff168152602001908152602001600020600082600019166000191681526020019081526020016000206000610ee89190610f6b565b50565b828054600181600116156101000203166002900490600052602060002090601f016020900481019282601f10610f2c57805160ff1916838001178555610f5a565b82800160010185558215610f5a579182015b82811115610f59578251825591602001919060010190610f3e565b5b509050610f679190610fb3565b5090565b50805460018160011615610100020316600290046000825580601f10610f915750610fb0565b601f016020900490600052602060002090810190610faf9190610fb3565b5b50565b610fd591905b80821115610fd1576000816000905550600101610fb9565b5090565b905600a165627a7a7230582032449534aa958260d98933c75ea774fbcdd98f43a5005ab2c7abba71660f5a8c0029",
  "source": "pragma solidity ^0.4.24;\n\ncontract EternalStorage {\n\n    mapping(address => mapping(bytes32 => uint256)) _uintStorage;\n    mapping(address => mapping(bytes32 => address)) _addressStorage;\n    mapping(address => mapping(bytes32 => bool)) _boolStorage;\n    mapping(address => mapping(bytes32 => string)) _stringStorage;\n\n    /*********** Getter Methods ***********/\n\n    function getAddress(bytes32 key) public view returns (address) {\n        return _addressStorage[msg.sender][key];\n    }\n\n    function getUint(bytes32 key) public view returns (uint) {\n        return _uintStorage[msg.sender][key];\n    }\n\n    function getBool(bytes32 key) public view returns (bool) {\n        return _boolStorage[msg.sender][key];\n    }\n\n    function getString(bytes32 key) public view returns (string) {\n        return _stringStorage[msg.sender][key];\n    }\n\n    /*********** Get At Address Methods ***********/\n\n    function getAddressFromAddress(bytes32 key, address addr) public view returns (address) {\n        return _addressStorage[addr][key];\n    }\n\n    function getUintFromAddress(bytes32 key, address addr) public view returns (uint) {\n        return _uintStorage[addr][key];\n    }\n\n    function getBoolFromAddress(bytes32 key, address addr) public view returns (bool) {\n        return _boolStorage[addr][key];\n    }\n\n    function getStringFromAddress(bytes32 key, address addr) public view returns (string) {\n        return _stringStorage[addr][key];\n    }\n\n    /*********** Setter Methods ***********/\n\n    function setAddress(bytes32 key, address value) public {\n        _addressStorage[msg.sender][key] = value;\n    }\n\n    function setUint(bytes32 key, uint value) public {\n        _uintStorage[msg.sender][key] = value;\n    }\n\n    function setBool(bytes32 key, bool value) public {\n        _boolStorage[msg.sender][key] = value;\n    }\n\n    function setString(bytes32 key, string value) public {\n        _stringStorage[msg.sender][key] = value;\n    }\n\n    /*********** Delete Methods ***********/\n\n    function deleteAddress(bytes32 key) public {\n        delete _addressStorage[msg.sender][key];\n    }\n\n    function deleteUint(bytes32 key) public {\n        delete _uintStorage[msg.sender][key];\n    }\n\n    function deleteBool(bytes32 key) public {\n        delete _boolStorage[msg.sender][key];\n    }\n    \n    function deleteString(bytes32 key) public {\n        delete _stringStorage[msg.sender][key];\n    }\n}\n",
  "sourcePath": "/Users/bryceDoganer/Solidity/Solidity_Examples/proxy-interface-react/contracts/Storage/EternalStorage.sol",
  "compiler": {
    "name": "solc",
    "version": "0.4.24+commit.e67f0147.Emscripten.clang"
  },
  "schemaVersion": "2.0.1",
  "updatedAt": "2018-08-14T23:10:33.439Z"
}