{
  "contractName": "PropertyManagementV1",
  "abi": [
    {
      "constant": false,
      "inputs": [
        {
          "name": "_proxyController",
          "type": "address"
        }
      ],
      "name": "setProxyControllerAddress",
      "outputs": [],
      "payable": false,
      "stateMutability": "nonpayable",
      "type": "function"
    },
    {
      "constant": true,
      "inputs": [],
      "name": "getProxyControllerAddress",
      "outputs": [
        {
          "name": "",
          "type": "address"
        }
      ],
      "payable": false,
      "stateMutability": "view",
      "type": "function"
    },
    {
      "constant": false,
      "inputs": [
        {
          "name": "_propertyName",
          "type": "string"
        }
      ],
      "name": "createDefaultProperty",
      "outputs": [],
      "payable": false,
      "stateMutability": "nonpayable",
      "type": "function"
    },
    {
      "constant": false,
      "inputs": [
        {
          "name": "_propertyName",
          "type": "string"
        },
        {
          "name": "_cost",
          "type": "uint256"
        }
      ],
      "name": "createProperty",
      "outputs": [
        {
          "name": "",
          "type": "bool"
        }
      ],
      "payable": false,
      "stateMutability": "nonpayable",
      "type": "function"
    },
    {
      "constant": true,
      "inputs": [
        {
          "name": "_propertyName",
          "type": "string"
        }
      ],
      "name": "propertyExists",
      "outputs": [
        {
          "name": "",
          "type": "bool"
        }
      ],
      "payable": false,
      "stateMutability": "view",
      "type": "function"
    },
    {
      "constant": true,
      "inputs": [
        {
          "name": "_tokenId",
          "type": "uint256"
        }
      ],
      "name": "getPropertyNameAtID",
      "outputs": [
        {
          "name": "",
          "type": "string"
        }
      ],
      "payable": false,
      "stateMutability": "view",
      "type": "function"
    },
    {
      "constant": true,
      "inputs": [
        {
          "name": "_propertyName",
          "type": "string"
        }
      ],
      "name": "getPropertyId",
      "outputs": [
        {
          "name": "",
          "type": "uint256"
        }
      ],
      "payable": false,
      "stateMutability": "view",
      "type": "function"
    },
    {
      "constant": true,
      "inputs": [
        {
          "name": "_propertyName",
          "type": "string"
        }
      ],
      "name": "getPropertyWeiCost",
      "outputs": [
        {
          "name": "",
          "type": "uint256"
        }
      ],
      "payable": false,
      "stateMutability": "view",
      "type": "function"
    },
    {
      "constant": true,
      "inputs": [
        {
          "name": "_propertyName",
          "type": "string"
        }
      ],
      "name": "getPropertyOwnerAddress",
      "outputs": [
        {
          "name": "",
          "type": "address"
        }
      ],
      "payable": false,
      "stateMutability": "view",
      "type": "function"
    },
    {
      "constant": true,
      "inputs": [
        {
          "name": "_owner",
          "type": "address"
        }
      ],
      "name": "getOwnerPropertyCount",
      "outputs": [
        {
          "name": "",
          "type": "uint256"
        }
      ],
      "payable": false,
      "stateMutability": "view",
      "type": "function"
    },
    {
      "constant": true,
      "inputs": [],
      "name": "getTotalPropertyCount",
      "outputs": [
        {
          "name": "",
          "type": "uint256"
        }
      ],
      "payable": false,
      "stateMutability": "view",
      "type": "function"
    },
    {
      "constant": false,
      "inputs": [
        {
          "name": "_propertyName",
          "type": "string"
        },
        {
          "name": "_weiCost",
          "type": "uint256"
        }
      ],
      "name": "setPropertyWeiCost",
      "outputs": [],
      "payable": false,
      "stateMutability": "nonpayable",
      "type": "function"
    },
    {
      "constant": false,
      "inputs": [
        {
          "name": "_propertyName",
          "type": "string"
        },
        {
          "name": "_address",
          "type": "address"
        }
      ],
      "name": "setPropertyOwnerAddress",
      "outputs": [],
      "payable": false,
      "stateMutability": "nonpayable",
      "type": "function"
    }
  ],
  "bytecode": "0x608060405234801561001057600080fd5b506126eb806100206000396000f3006080604052600436106100c5576000357c0100000000000000000000000000000000000000000000000000000000900463ffffffff1680630dc8bde1146100ca578063224b5dd81461010d578063287283f1146101b65780634f3c374e146102375780635a6368ef146102dd57806364789ebb146103685780638733b0f5146103e55780638bb0985214610458578063a5520197146104af578063b0830751146104da578063be1cf18114610543578063d79fb4ff146105cc578063fb3b2afc14610623575b600080fd5b3480156100d657600080fd5b5061010b600480360381019080803573ffffffffffffffffffffffffffffffffffffffff1690602001909291905050506106a0565b005b34801561011957600080fd5b50610174600480360381019080803590602001908201803590602001908080601f01602080910402602001604051908101604052809392919081815260200183838082843782019150505050505091929192905050506108ec565b604051808273ffffffffffffffffffffffffffffffffffffffff1673ffffffffffffffffffffffffffffffffffffffff16815260200191505060405180910390f35b3480156101c257600080fd5b5061021d600480360381019080803590602001908201803590602001908080601f0160208091040260200160405190810160405280939291908181526020018383808284378201915050505050509192919290505050610ad4565b604051808215151515815260200191505060405180910390f35b34801561024357600080fd5b5061026260048036038101908080359060200190929190505050610ae8565b6040518080602001828103825283818151815260200191508051906020019080838360005b838110156102a2578082015181840152602081019050610287565b50505050905090810190601f1680156102cf5780820380516001836020036101000a031916815260200191505b509250505060405180910390f35b3480156102e957600080fd5b5061034e600480360381019080803590602001908201803590602001908080601f016020809104026020016040519081016040528093929190818152602001838380828437820191505050505050919291929080359060200190929190505050610cbf565b604051808215151515815260200191505060405180910390f35b34801561037457600080fd5b506103cf600480360381019080803590602001908201803590602001908080601f0160208091040260200160405190810160405280939291908181526020018383808284378201915050505050509192919290505050610dd9565b6040518082815260200191505060405180910390f35b3480156103f157600080fd5b50610456600480360381019080803590602001908201803590602001908080601f016020809104026020016040519081016040528093929190818152602001838380828437820191505050505050919291929080359060200190929190505050610fc1565b005b34801561046457600080fd5b5061046d611259565b604051808273ffffffffffffffffffffffffffffffffffffffff1673ffffffffffffffffffffffffffffffffffffffff16815260200191505060405180910390f35b3480156104bb57600080fd5b506104c46113cd565b6040518082815260200191505060405180910390f35b3480156104e657600080fd5b50610541600480360381019080803590602001908201803590602001908080601f0160208091040260200160405190810160405280939291908181526020018383808284378201915050505050509192919290505050611541565b005b34801561054f57600080fd5b506105ca600480360381019080803590602001908201803590602001908080601f0160208091040260200160405190810160405280939291908181526020018383808284378201915050505050509192919290803573ffffffffffffffffffffffffffffffffffffffff169060200190929190505050611558565b005b3480156105d857600080fd5b5061060d600480360381019080803573ffffffffffffffffffffffffffffffffffffffff16906020019092919050505061181c565b6040518082815260200191505060405180910390f35b34801561062f57600080fd5b5061068a600480360381019080803590602001908201803590602001908080601f01602080910402602001604051908101604052809392919081815260200183838082843782019150505050505091929192905050506119c9565b6040518082815260200191505060405180910390f35b600073ffffffffffffffffffffffffffffffffffffffff168173ffffffffffffffffffffffffffffffffffffffff161415151561076b576040517f08c379a000000000000000000000000000000000000000000000000000000000815260040180806020018281038252602d8152602001807f43616e6e6f7420736574207468652050726f787920436f6e74726f6c6c65722081526020017f746f20616464726573732830290000000000000000000000000000000000000081525060400191505060405180910390fd5b6000809054906101000a900473ffffffffffffffffffffffffffffffffffffffff1673ffffffffffffffffffffffffffffffffffffffff1663ca446dd973__ProxyControllerKeyLib_________________637ef3878d6040518163ffffffff167c010000000000000000000000000000000000000000000000000000000002815260040160206040518083038186803b15801561080857600080fd5b505af415801561081c573d6000803e3d6000fd5b505050506040513d602081101561083257600080fd5b8101908080519060200190929190505050836040518363ffffffff167c01000000000000000000000000000000000000000000000000000000000281526004018083600019166000191681526020018273ffffffffffffffffffffffffffffffffffffffff1673ffffffffffffffffffffffffffffffffffffffff16815260200192505050600060405180830381600087803b1580156108d157600080fd5b505af11580156108e5573d6000803e3d6000fd5b5050505050565b60008060009054906101000a900473ffffffffffffffffffffffffffffffffffffffff1673ffffffffffffffffffffffffffffffffffffffff166321f8a7218373__StorageKeyLib_________________________630dfeade290916040518263ffffffff167c01000000000000000000000000000000000000000000000000000000000281526004018080602001828103825283818151815260200191508051906020019080838360005b838110156109b3578082015181840152602081019050610998565b50505050905090810190601f1680156109e05780820380516001836020036101000a031916815260200191505b509250505060206040518083038186803b1580156109fd57600080fd5b505af4158015610a11573d6000803e3d6000fd5b505050506040513d6020811015610a2757600080fd5b81019080805190602001909291905050506040518263ffffffff167c0100000000000000000000000000000000000000000000000000000000028152600401808260001916600019168152602001915050602060405180830381600087803b158015610a9257600080fd5b505af1158015610aa6573d6000803e3d6000fd5b505050506040513d6020811015610abc57600080fd5b81019080805190602001909291905050509050919050565b600080610ae083610dd9565b119050919050565b60606000809054906101000a900473ffffffffffffffffffffffffffffffffffffffff1673ffffffffffffffffffffffffffffffffffffffff1663986e791a73__StorageKeyLib_________________________63e2e3b7cc856040518263ffffffff167c01000000000000000000000000000000000000000000000000000000000281526004018082815260200191505060206040518083038186803b158015610b9257600080fd5b505af4158015610ba6573d6000803e3d6000fd5b505050506040513d6020811015610bbc57600080fd5b81019080805190602001909291905050506040518263ffffffff167c0100000000000000000000000000000000000000000000000000000000028152600401808260001916600019168152602001915050600060405180830381600087803b158015610c2757600080fd5b505af1158015610c3b573d6000803e3d6000fd5b505050506040513d6000823e3d601f19601f820116820180604052506020811015610c6557600080fd5b810190808051640100000000811115610c7d57600080fd5b82810190506020810184811115610c9357600080fd5b8151856001820283011164010000000082111715610cb057600080fd5b50509291905050509050919050565b6000610cc9611259565b73ffffffffffffffffffffffffffffffffffffffff163373ffffffffffffffffffffffffffffffffffffffff16141515610d91576040517f08c379a000000000000000000000000000000000000000000000000000000000815260040180806020018281038252603a8152602001807f4f6e6c79207468697320636f6e747261637427732027636f6e74726f6c6c657281526020017f272063616e20706572666f726d207468697320616374696f6e2e00000000000081525060400191505060405180910390fd5b610d9a83610ad4565b15610da85760009050610dd3565b610db28383611bb1565b610dbc8333611d79565b610dc533611f6d565b610dce836121d4565b600190505b92915050565b60008060009054906101000a900473ffffffffffffffffffffffffffffffffffffffff1673ffffffffffffffffffffffffffffffffffffffff1663bd02d0f58373__StorageKeyLib_________________________63f2b57bdd90916040518263ffffffff167c01000000000000000000000000000000000000000000000000000000000281526004018080602001828103825283818151815260200191508051906020019080838360005b83811015610ea0578082015181840152602081019050610e85565b50505050905090810190601f168015610ecd5780820380516001836020036101000a031916815260200191505b509250505060206040518083038186803b158015610eea57600080fd5b505af4158015610efe573d6000803e3d6000fd5b505050506040513d6020811015610f1457600080fd5b81019080805190602001909291905050506040518263ffffffff167c0100000000000000000000000000000000000000000000000000000000028152600401808260001916600019168152602001915050602060405180830381600087803b158015610f7f57600080fd5b505af1158015610f93573d6000803e3d6000fd5b505050506040513d6020811015610fa957600080fd5b81019080805190602001909291905050509050919050565b610fc9611259565b73ffffffffffffffffffffffffffffffffffffffff163373ffffffffffffffffffffffffffffffffffffffff16141515611091576040517f08c379a000000000000000000000000000000000000000000000000000000000815260040180806020018281038252603a8152602001807f4f6e6c79207468697320636f6e747261637427732027636f6e74726f6c6c657281526020017f272063616e20706572666f726d207468697320616374696f6e2e00000000000081525060400191505060405180910390fd5b6000809054906101000a900473ffffffffffffffffffffffffffffffffffffffff1673ffffffffffffffffffffffffffffffffffffffff1663e2a4853a8373__StorageKeyLib_________________________63a6912aaa90916040518263ffffffff167c01000000000000000000000000000000000000000000000000000000000281526004018080602001828103825283818151815260200191508051906020019080838360005b8381101561115657808201518184015260208101905061113b565b50505050905090810190601f1680156111835780820380516001836020036101000a031916815260200191505b509250505060206040518083038186803b1580156111a057600080fd5b505af41580156111b4573d6000803e3d6000fd5b505050506040513d60208110156111ca57600080fd5b8101908080519060200190929190505050836040518363ffffffff167c010000000000000000000000000000000000000000000000000000000002815260040180836000191660001916815260200182815260200192505050600060405180830381600087803b15801561123d57600080fd5b505af1158015611251573d6000803e3d6000fd5b505050505050565b60008060009054906101000a900473ffffffffffffffffffffffffffffffffffffffff1673ffffffffffffffffffffffffffffffffffffffff166321f8a72173__ProxyControllerKeyLib_________________637ef3878d6040518163ffffffff167c010000000000000000000000000000000000000000000000000000000002815260040160206040518083038186803b1580156112f857600080fd5b505af415801561130c573d6000803e3d6000fd5b505050506040513d602081101561132257600080fd5b81019080805190602001909291905050506040518263ffffffff167c0100000000000000000000000000000000000000000000000000000000028152600401808260001916600019168152602001915050602060405180830381600087803b15801561138d57600080fd5b505af11580156113a1573d6000803e3d6000fd5b505050506040513d60208110156113b757600080fd5b8101908080519060200190929190505050905090565b60008060009054906101000a900473ffffffffffffffffffffffffffffffffffffffff1673ffffffffffffffffffffffffffffffffffffffff1663bd02d0f573__StorageKeyLib_________________________6318240f496040518163ffffffff167c010000000000000000000000000000000000000000000000000000000002815260040160206040518083038186803b15801561146c57600080fd5b505af4158015611480573d6000803e3d6000fd5b505050506040513d602081101561149657600080fd5b81019080805190602001909291905050506040518263ffffffff167c0100000000000000000000000000000000000000000000000000000000028152600401808260001916600019168152602001915050602060405180830381600087803b15801561150157600080fd5b505af1158015611515573d6000803e3d6000fd5b505050506040513d602081101561152b57600080fd5b8101908080519060200190929190505050905090565b6115548168056bc75e2d63100000610cbf565b5050565b611560611259565b73ffffffffffffffffffffffffffffffffffffffff163373ffffffffffffffffffffffffffffffffffffffff16141515611628576040517f08c379a000000000000000000000000000000000000000000000000000000000815260040180806020018281038252603a8152602001807f4f6e6c79207468697320636f6e747261637427732027636f6e74726f6c6c657281526020017f272063616e20706572666f726d207468697320616374696f6e2e00000000000081525060400191505060405180910390fd5b6000809054906101000a900473ffffffffffffffffffffffffffffffffffffffff1673ffffffffffffffffffffffffffffffffffffffff1663ca446dd98373__StorageKeyLib_________________________630dfeade290916040518263ffffffff167c01000000000000000000000000000000000000000000000000000000000281526004018080602001828103825283818151815260200191508051906020019080838360005b838110156116ed5780820151818401526020810190506116d2565b50505050905090810190601f16801561171a5780820380516001836020036101000a031916815260200191505b509250505060206040518083038186803b15801561173757600080fd5b505af415801561174b573d6000803e3d6000fd5b505050506040513d602081101561176157600080fd5b8101908080519060200190929190505050836040518363ffffffff167c01000000000000000000000000000000000000000000000000000000000281526004018083600019166000191681526020018273ffffffffffffffffffffffffffffffffffffffff1673ffffffffffffffffffffffffffffffffffffffff16815260200192505050600060405180830381600087803b15801561180057600080fd5b505af1158015611814573d6000803e3d6000fd5b505050505050565b60008060009054906101000a900473ffffffffffffffffffffffffffffffffffffffff1673ffffffffffffffffffffffffffffffffffffffff1663bd02d0f573__StorageKeyLib_________________________63e61e6491856040518263ffffffff167c0100000000000000000000000000000000000000000000000000000000028152600401808273ffffffffffffffffffffffffffffffffffffffff1673ffffffffffffffffffffffffffffffffffffffff16815260200191505060206040518083038186803b1580156118f257600080fd5b505af4158015611906573d6000803e3d6000fd5b505050506040513d602081101561191c57600080fd5b81019080805190602001909291905050506040518263ffffffff167c0100000000000000000000000000000000000000000000000000000000028152600401808260001916600019168152602001915050602060405180830381600087803b15801561198757600080fd5b505af115801561199b573d6000803e3d6000fd5b505050506040513d60208110156119b157600080fd5b81019080805190602001909291905050509050919050565b60008060009054906101000a900473ffffffffffffffffffffffffffffffffffffffff1673ffffffffffffffffffffffffffffffffffffffff1663bd02d0f58373__StorageKeyLib_________________________63a6912aaa90916040518263ffffffff167c01000000000000000000000000000000000000000000000000000000000281526004018080602001828103825283818151815260200191508051906020019080838360005b83811015611a90578082015181840152602081019050611a75565b50505050905090810190601f168015611abd5780820380516001836020036101000a031916815260200191505b509250505060206040518083038186803b158015611ada57600080fd5b505af4158015611aee573d6000803e3d6000fd5b505050506040513d6020811015611b0457600080fd5b81019080805190602001909291905050506040518263ffffffff167c0100000000000000000000000000000000000000000000000000000000028152600401808260001916600019168152602001915050602060405180830381600087803b158015611b6f57600080fd5b505af1158015611b83573d6000803e3d6000fd5b505050506040513d6020811015611b9957600080fd5b81019080805190602001909291905050509050919050565b6000809054906101000a900473ffffffffffffffffffffffffffffffffffffffff1673ffffffffffffffffffffffffffffffffffffffff1663e2a4853a8373__StorageKeyLib_________________________63a6912aaa90916040518263ffffffff167c01000000000000000000000000000000000000000000000000000000000281526004018080602001828103825283818151815260200191508051906020019080838360005b83811015611c76578082015181840152602081019050611c5b565b50505050905090810190601f168015611ca35780820380516001836020036101000a031916815260200191505b509250505060206040518083038186803b158015611cc057600080fd5b505af4158015611cd4573d6000803e3d6000fd5b505050506040513d6020811015611cea57600080fd5b8101908080519060200190929190505050836040518363ffffffff167c010000000000000000000000000000000000000000000000000000000002815260040180836000191660001916815260200182815260200192505050600060405180830381600087803b158015611d5d57600080fd5b505af1158015611d71573d6000803e3d6000fd5b505050505050565b6000809054906101000a900473ffffffffffffffffffffffffffffffffffffffff1673ffffffffffffffffffffffffffffffffffffffff1663ca446dd98373__StorageKeyLib_________________________630dfeade290916040518263ffffffff167c01000000000000000000000000000000000000000000000000000000000281526004018080602001828103825283818151815260200191508051906020019080838360005b83811015611e3e578082015181840152602081019050611e23565b50505050905090810190601f168015611e6b5780820380516001836020036101000a031916815260200191505b509250505060206040518083038186803b158015611e8857600080fd5b505af4158015611e9c573d6000803e3d6000fd5b505050506040513d6020811015611eb257600080fd5b8101908080519060200190929190505050836040518363ffffffff167c01000000000000000000000000000000000000000000000000000000000281526004018083600019166000191681526020018273ffffffffffffffffffffffffffffffffffffffff1673ffffffffffffffffffffffffffffffffffffffff16815260200192505050600060405180830381600087803b158015611f5157600080fd5b505af1158015611f65573d6000803e3d6000fd5b505050505050565b600073__StorageKeyLib_________________________63e61e6491836040518263ffffffff167c0100000000000000000000000000000000000000000000000000000000028152600401808273ffffffffffffffffffffffffffffffffffffffff1673ffffffffffffffffffffffffffffffffffffffff16815260200191505060206040518083038186803b15801561200657600080fd5b505af415801561201a573d6000803e3d6000fd5b505050506040513d602081101561203057600080fd5b810190808051906020019092919050505090506000809054906101000a900473ffffffffffffffffffffffffffffffffffffffff1673ffffffffffffffffffffffffffffffffffffffff1663e2a4853a8260016000809054906101000a900473ffffffffffffffffffffffffffffffffffffffff1673ffffffffffffffffffffffffffffffffffffffff1663bd02d0f5866040518263ffffffff167c0100000000000000000000000000000000000000000000000000000000028152600401808260001916600019168152602001915050602060405180830381600087803b15801561211b57600080fd5b505af115801561212f573d6000803e3d6000fd5b505050506040513d602081101561214557600080fd5b8101908080519060200190929190505050016040518363ffffffff167c010000000000000000000000000000000000000000000000000000000002815260040180836000191660001916815260200182815260200192505050600060405180830381600087803b1580156121b857600080fd5b505af11580156121cc573d6000803e3d6000fd5b505050505050565b600060016121e06113cd565b0190506000809054906101000a900473ffffffffffffffffffffffffffffffffffffffff1673ffffffffffffffffffffffffffffffffffffffff1663e2a4853a73__StorageKeyLib_________________________6318240f496040518163ffffffff167c010000000000000000000000000000000000000000000000000000000002815260040160206040518083038186803b15801561228057600080fd5b505af4158015612294573d6000803e3d6000fd5b505050506040513d60208110156122aa57600080fd5b8101908080519060200190929190505050836040518363ffffffff167c010000000000000000000000000000000000000000000000000000000002815260040180836000191660001916815260200182815260200192505050600060405180830381600087803b15801561231d57600080fd5b505af1158015612331573d6000803e3d6000fd5b505050506000809054906101000a900473ffffffffffffffffffffffffffffffffffffffff1673ffffffffffffffffffffffffffffffffffffffff16636e89955073__StorageKeyLib_________________________63e2e3b7cc846040518263ffffffff167c01000000000000000000000000000000000000000000000000000000000281526004018082815260200191505060206040518083038186803b1580156123dd57600080fd5b505af41580156123f1573d6000803e3d6000fd5b505050506040513d602081101561240757600080fd5b8101908080519060200190929190505050846040518363ffffffff167c010000000000000000000000000000000000000000000000000000000002815260040180836000191660001916815260200180602001828103825283818151815260200191508051906020019080838360005b83811015612492578082015181840152602081019050612477565b50505050905090810190601f1680156124bf5780820380516001836020036101000a031916815260200191505b509350505050600060405180830381600087803b1580156124df57600080fd5b505af11580156124f3573d6000803e3d6000fd5b505050506000809054906101000a900473ffffffffffffffffffffffffffffffffffffffff1673ffffffffffffffffffffffffffffffffffffffff1663e2a4853a8373__StorageKeyLib_________________________63f2b57bdd90916040518263ffffffff167c01000000000000000000000000000000000000000000000000000000000281526004018080602001828103825283818151815260200191508051906020019080838360005b838110156125bc5780820151818401526020810190506125a1565b50505050905090810190601f1680156125e95780820380516001836020036101000a031916815260200191505b509250505060206040518083038186803b15801561260657600080fd5b505af415801561261a573d6000803e3d6000fd5b505050506040513d602081101561263057600080fd5b8101908080519060200190929190505050836040518363ffffffff167c010000000000000000000000000000000000000000000000000000000002815260040180836000191660001916815260200182815260200192505050600060405180830381600087803b1580156126a357600080fd5b505af11580156126b7573d6000803e3d6000fd5b5050505050505600a165627a7a72305820d9664701b37dbb4d2133c9f0fa6344777166d70c9bc242b0782ec07d19be81a00029",
  "source": "pragma solidity ^0.4.24;\n\nimport \"./Controllable.sol\";\nimport \"../libs/StorageKeyLib.sol\";\n\ncontract PropertyManagementV1 is Controllable {  \n    using StorageKeyLib for string; \n\n    //// @dev Create a default property with a starting price\n    function createDefaultProperty(string _propertyName)\n        public\n    {\n        createProperty(\n            _propertyName, \n            10**20 // 100 Ether\n        );\n    }\n\n    // TEST: Updated this method for the new storage system\n    function createProperty(string _propertyName, uint _cost)\n        public\n        onlyController // NOTE: apparently I'm supposed to 'fix the COO logic?'\n        returns (bool)\n    {\n      // Check to see if there is a value initialized on the shield, if so \n      //  then this Property has already been created.\n        if(propertyExists(_propertyName)) return false;\n\n        // Initialize the property data to default values \n        _setPropertyWeiCost(_propertyName, _cost); \n        _setPropertyOwnerAddress(_propertyName, msg.sender);\n        _incrementOwnerPropertyCount(msg.sender);\n        _addPropertyAndID(_propertyName);\n\n        // FIXME: Need to reimplement this method (Possibly in a nother countract))\n        // _increaseFactionPower(id);\n        return true;\n    }\n\n    // NOTE: We are '1' indexing properties to tell if they have been init'ed or not\n    function _addPropertyAndID(string _propertyName) private {\n        uint propertyId = getTotalPropertyCount() + 1;\n        // Update the total propertys count \n        _storage.setUint(\n            StorageKeyLib.getTotalPropertysKey(), \n            propertyId\n        );\n        // Linking propertyId to the propertyName in Eternal Storage\n        _storage.setString(\n            StorageKeyLib.getPropertyNameFromIDKey(propertyId), \n            _propertyName\n        );\n        // Linking propertyName to the propertyId  in Eternal Storage\n        _storage.setUint(\n            _propertyName.getPropertyIDFromNameKey(), \n            propertyId\n        );  \n    }\n\n    function propertyExists(string _propertyName) public view returns (bool) {\n        return (getPropertyId(_propertyName) > 0);\n    }\n\n    function getPropertyNameAtID(uint _tokenId) public view returns (string) {\n        return _storage.getString(StorageKeyLib.getPropertyNameFromIDKey(_tokenId));\n    }\n\n    function getPropertyId(string _propertyName) public view returns (uint) {\n        return _storage.getUint(_propertyName.getPropertyIDFromNameKey());\n    }\n\n    // TEST: Test all of the 'get' logic \n    function getPropertyWeiCost(string _propertyName) public view returns (uint) {\n        return _storage.getUint(_propertyName.getCostKey());\n    }\n\n    function getPropertyOwnerAddress(string _propertyName) public view returns (address) {\n        return _storage.getAddress(_propertyName.getPropertyOwnerKey());\n    }\n\n    function getOwnerPropertyCount(address _owner) public view returns (uint) {\n        return _storage.getUint(StorageKeyLib.getOwnerPropertyCountKey(_owner));\n    }\n\n    function getTotalPropertyCount() public view returns (uint) {\n        return _storage.getUint(StorageKeyLib.getTotalPropertysKey());\n    }\n\n    // TEST: All these setters are new along with the new storage schema\n    // *** Public SETTERS - Only the 'Controller' can update these  *** \n    function setPropertyWeiCost(string _propertyName, uint _weiCost) public onlyController {\n        _storage.setUint(_propertyName.getCostKey(), _weiCost);\n    }\n\n    function setPropertyOwnerAddress(string _propertyName, address _address) public onlyController {\n        _storage.setAddress(_propertyName.getPropertyOwnerKey(), _address); // Set the owner as the sender\n    }\n\n    // *** Internal SETTERS  *** \n    function _setPropertyWeiCost(string _propertyName, uint _weiCost) internal {\n        _storage.setUint(_propertyName.getCostKey(), _weiCost);\n    }\n\n    function _setPropertyOwnerAddress(string _propertyName, address _address) internal {\n        _storage.setAddress(_propertyName.getPropertyOwnerKey(), _address); // Set the owner as the sender\n    }\n\n    function _incrementOwnerPropertyCount(address _owner) internal {\n        bytes32 key = StorageKeyLib.getOwnerPropertyCountKey(_owner);\n        _storage.setUint(\n          key, \n          _storage.getUint(key) + 1\n        );\n    }\n\n    function _decrementOwnerPropertyCount(address _owner) internal {\n        bytes32 ownerPropertyCountKey = StorageKeyLib.getOwnerPropertyCountKey(_owner);\n        uint propertyCount = _storage.getUint(ownerPropertyCountKey);\n        require(propertyCount > 0, \"Cannot decrement property count below zero.\");\n        _storage.setUint(\n          ownerPropertyCountKey, \n          propertyCount - 1\n        );\n    }\n\n    // Need to look through these functions to see which ones need reimplementation \n    // // FIXME: probably deleting this function\n    // function getFactionPowerLevelAddress(uint _index) public view returns (address _addresse) {\n    //     return factionPowerLevelAddresses[_index];\n    // }\n}",
  "sourcePath": "/Users/bryceDoganer/Solidity/Solidity_Examples/proxy-interface-react/contracts/Storage/PropertyManagementV1.sol",
  "compiler": {
    "name": "solc",
    "version": "0.4.24+commit.e67f0147.Emscripten.clang"
  },
  "schemaVersion": "2.0.1",
  "updatedAt": "2018-08-14T23:10:33.925Z"
}