{
  "contractName": "PropertyConnectorV1",
  "abi": [
    {
      "constant": false,
      "inputs": [
        {
          "name": "_newCEO",
          "type": "address"
        }
      ],
      "name": "setCEO",
      "outputs": [],
      "payable": false,
      "stateMutability": "nonpayable",
      "type": "function"
    },
    {
      "constant": true,
      "inputs": [],
      "name": "CFOAddress",
      "outputs": [
        {
          "name": "",
          "type": "address"
        }
      ],
      "payable": false,
      "stateMutability": "view",
      "type": "function"
    },
    {
      "constant": false,
      "inputs": [
        {
          "name": "_newCOO",
          "type": "address"
        }
      ],
      "name": "setCOO",
      "outputs": [],
      "payable": false,
      "stateMutability": "nonpayable",
      "type": "function"
    },
    {
      "constant": false,
      "inputs": [],
      "name": "unpause",
      "outputs": [],
      "payable": false,
      "stateMutability": "nonpayable",
      "type": "function"
    },
    {
      "constant": false,
      "inputs": [
        {
          "name": "_newCFO",
          "type": "address"
        }
      ],
      "name": "setCFO",
      "outputs": [],
      "payable": false,
      "stateMutability": "nonpayable",
      "type": "function"
    },
    {
      "constant": true,
      "inputs": [],
      "name": "CEOAddress",
      "outputs": [
        {
          "name": "",
          "type": "address"
        }
      ],
      "payable": false,
      "stateMutability": "view",
      "type": "function"
    },
    {
      "constant": false,
      "inputs": [],
      "name": "pause",
      "outputs": [],
      "payable": false,
      "stateMutability": "nonpayable",
      "type": "function"
    },
    {
      "constant": false,
      "inputs": [],
      "name": "pauseCEO",
      "outputs": [],
      "payable": false,
      "stateMutability": "nonpayable",
      "type": "function"
    },
    {
      "constant": false,
      "inputs": [],
      "name": "unpauseCEO",
      "outputs": [],
      "payable": false,
      "stateMutability": "nonpayable",
      "type": "function"
    },
    {
      "constant": true,
      "inputs": [],
      "name": "isPaused",
      "outputs": [
        {
          "name": "",
          "type": "bool"
        }
      ],
      "payable": false,
      "stateMutability": "view",
      "type": "function"
    },
    {
      "constant": true,
      "inputs": [],
      "name": "isCEOPaused",
      "outputs": [
        {
          "name": "",
          "type": "bool"
        }
      ],
      "payable": false,
      "stateMutability": "view",
      "type": "function"
    },
    {
      "constant": true,
      "inputs": [],
      "name": "COOAddress",
      "outputs": [
        {
          "name": "",
          "type": "address"
        }
      ],
      "payable": false,
      "stateMutability": "view",
      "type": "function"
    },
    {
      "anonymous": false,
      "inputs": [
        {
          "indexed": false,
          "name": "paused",
          "type": "bool"
        }
      ],
      "name": "Paused",
      "type": "event"
    },
    {
      "constant": false,
      "inputs": [
        {
          "name": "_proxyAddress",
          "type": "address"
        }
      ],
      "name": "setInterface",
      "outputs": [],
      "payable": false,
      "stateMutability": "nonpayable",
      "type": "function"
    },
    {
      "constant": true,
      "inputs": [
        {
          "name": "_tokenId",
          "type": "uint256"
        }
      ],
      "name": "getName",
      "outputs": [
        {
          "name": "",
          "type": "string"
        }
      ],
      "payable": false,
      "stateMutability": "view",
      "type": "function"
    },
    {
      "constant": false,
      "inputs": [
        {
          "name": "_name",
          "type": "string"
        }
      ],
      "name": "createDefaultProperty",
      "outputs": [],
      "payable": false,
      "stateMutability": "nonpayable",
      "type": "function"
    },
    {
      "constant": false,
      "inputs": [
        {
          "name": "_tokenId",
          "type": "uint256"
        },
        {
          "name": "_weiCost",
          "type": "uint256"
        }
      ],
      "name": "setWeiCost",
      "outputs": [],
      "payable": false,
      "stateMutability": "nonpayable",
      "type": "function"
    },
    {
      "constant": true,
      "inputs": [
        {
          "name": "_tokenId",
          "type": "uint256"
        }
      ],
      "name": "getWeiCost",
      "outputs": [
        {
          "name": "",
          "type": "uint256"
        }
      ],
      "payable": false,
      "stateMutability": "view",
      "type": "function"
    }
  ],
  "bytecode": "0x60806040526002805460a060020a61ffff021916905560008054600160a060020a031916331790556115e6806100366000396000f3006080604052600436106100f05763ffffffff7c010000000000000000000000000000000000000000000000000000000060003504166327d7874c81146100f5578063298ad569146101185780632ba73c15146101495780633f4ba83a1461016a5780634e0a33791461017f5780635aa513f2146101a05780635fcee7a0146101bb5780636b8ff574146101d05780638456cb591461025d57806397492c4614610272578063988baa9514610293578063aeb2cebc146102a8578063b0830751146102bd578063b187bd2614610316578063bed519291461033f578063d33a2cb014610354578063d781ab0314610369575b600080fd5b34801561010157600080fd5b50610116600160a060020a0360043516610393565b005b34801561012457600080fd5b5061012d6104d0565b60408051600160a060020a039092168252519081900360200190f35b34801561015557600080fd5b50610116600160a060020a03600435166104df565b34801561017657600080fd5b5061011661061c565b34801561018b57600080fd5b50610116600160a060020a036004351661082e565b3480156101ac57600080fd5b5061011660043560243561096b565b3480156101c757600080fd5b5061012d610a5d565b3480156101dc57600080fd5b506101e8600435610a6c565b6040805160208082528351818301528351919283929083019185019080838360005b8381101561022257818101518382015260200161020a565b50505050905090810190601f16801561024f5780820380516001836020036101000a031916815260200191505b509250505060405180910390f35b34801561026957600080fd5b50610116610b60565b34801561027e57600080fd5b50610116600160a060020a0360043516610d71565b34801561029f57600080fd5b50610116610e28565b3480156102b457600080fd5b50610116611021565b3480156102c957600080fd5b506040805160206004803580820135601f81018490048402850184019095528484526101169436949293602493928401919081908401838280828437509497506112059650505050505050565b34801561032257600080fd5b5061032b611465565b604080519115158252519081900360200190f35b34801561034b57600080fd5b5061032b611487565b34801561036057600080fd5b5061012d6114a8565b34801561037557600080fd5b506103816004356114b7565b60408051918252519081900360200190f35b600054600160a060020a0316331461041b576040805160e560020a62461bcd02815260206004820152602b60248201527f596f75206d757374206265207468652043454f20746f20706572666f726d207460448201527f68697320616374696f6e2e000000000000000000000000000000000000000000606482015290519081900360840190fd5b600160a060020a03811615156104a1576040805160e560020a62461bcd02815260206004820152603460248201527f596f752061726520617474656d7074696e6720746f2073657420746865206e6560448201527f772043454f20746f20616464726573732830292e000000000000000000000000606482015290519081900360840190fd5b6000805473ffffffffffffffffffffffffffffffffffffffff1916600160a060020a0392909216919091179055565b600154600160a060020a031681565b600054600160a060020a03163314610567576040805160e560020a62461bcd02815260206004820152602b60248201527f596f75206d757374206265207468652043454f20746f20706572666f726d207460448201527f68697320616374696f6e2e000000000000000000000000000000000000000000606482015290519081900360840190fd5b600160a060020a03811615156105ed576040805160e560020a62461bcd02815260206004820152603460248201527f596f752061726520617474656d7074696e6720746f2073657420746865206e6560448201527f7720434f4f20746f20616464726573732830292e000000000000000000000000606482015290519081900360840190fd5b6002805473ffffffffffffffffffffffffffffffffffffffff1916600160a060020a0392909216919091179055565b600054600160a060020a031633148061063f5750600154600160a060020a031633145b806106545750600254600160a060020a031633145b15156106d0576040805160e560020a62461bcd02815260206004820152603560248201527f596f75206d757374206265206120636f6d70616e79206f66666963657220746f60448201527f20706572666f726d207468697320616374696f6e2e0000000000000000000000606482015290519081900360840190fd5b600160025460ff7501000000000000000000000000000000000000000000909104161515610794576040805160e560020a62461bcd02815260206004820152605460248201527f43616e6e6f7420706572666f726d20616374696f6e206265636175736520746860448201527f6520617070206e6565647320746f20626520277061757365642720286e6f742060648201527f636f756e74696e672043454f506175736564292e000000000000000000000000608482015290519081900360a40190fd5b6002805475ff0000000000000000000000000000000000000000001916908190557f0e2fb031ee032dc02d8011dc50b816eb450cf856abd8261680dac74f72165bd2907501000000000000000000000000000000000000000000900460ff1680610818575060025474010000000000000000000000000000000000000000900460ff165b604080519115158252519081900360200190a150565b600054600160a060020a031633146108b6576040805160e560020a62461bcd02815260206004820152602b60248201527f596f75206d757374206265207468652043454f20746f20706572666f726d207460448201527f68697320616374696f6e2e000000000000000000000000000000000000000000606482015290519081900360840190fd5b600160a060020a038116151561093c576040805160e560020a62461bcd02815260206004820152603460248201527f596f752061726520617474656d7074696e6720746f2073657420746865206e6560448201527f772043464f20746f20616464726573732830292e000000000000000000000000606482015290519081900360840190fd5b6001805473ffffffffffffffffffffffffffffffffffffffff1916600160a060020a0392909216919091179055565b600354600160a060020a0316638733b0f561098584610a6c565b836040518363ffffffff167c01000000000000000000000000000000000000000000000000000000000281526004018080602001838152602001828103825284818151815260200191508051906020019080838360005b838110156109f45781810151838201526020016109dc565b50505050905090810190601f168015610a215780820380516001836020036101000a031916815260200191505b509350505050600060405180830381600087803b158015610a4157600080fd5b505af1158015610a55573d6000803e3d6000fd5b505050505050565b600054600160a060020a031681565b600354604080517f4f3c374e000000000000000000000000000000000000000000000000000000008152600481018490529051606092600160a060020a031691634f3c374e91602480830192600092919082900301818387803b158015610ad257600080fd5b505af1158015610ae6573d6000803e3d6000fd5b505050506040513d6000823e601f3d908101601f191682016040526020811015610b0f57600080fd5b810190808051640100000000811115610b2757600080fd5b82016020810184811115610b3a57600080fd5b8151640100000000811182820187101715610b5457600080fd5b50909695505050505050565b600054600160a060020a0316331480610b835750600154600160a060020a031633145b80610b985750600254600160a060020a031633145b1515610c14576040805160e560020a62461bcd02815260206004820152603560248201527f596f75206d757374206265206120636f6d70616e79206f66666963657220746f60448201527f20706572666f726d207468697320616374696f6e2e0000000000000000000000606482015290519081900360840190fd5b6002547501000000000000000000000000000000000000000000900460ff168015610c5a575060025474010000000000000000000000000000000000000000900460ff16155b1515610cd6576040805160e560020a62461bcd02815260206004820152603460248201527f43616e6e6f7420706572666f726d207468697320616374696f6e207768696c6560448201527f20636f6e7472616374206973207061757365642e000000000000000000000000606482015290519081900360840190fd5b6002805475ff00000000000000000000000000000000000000000019167501000000000000000000000000000000000000000000908117918290557f0e2fb031ee032dc02d8011dc50b816eb450cf856abd8261680dac74f72165bd2910460ff1680610d5c575060025474010000000000000000000000000000000000000000900460ff165b604080519115158252519081900360200190a1565b600054600160a060020a03163314610df9576040805160e560020a62461bcd02815260206004820152602b60248201527f596f75206d757374206265207468652043454f20746f20706572666f726d207460448201527f68697320616374696f6e2e000000000000000000000000000000000000000000606482015290519081900360840190fd5b6003805473ffffffffffffffffffffffffffffffffffffffff1916600160a060020a0392909216919091179055565b600054600160a060020a03163314610eb0576040805160e560020a62461bcd02815260206004820152602b60248201527f596f75206d757374206265207468652043454f20746f20706572666f726d207460448201527f68697320616374696f6e2e000000000000000000000000000000000000000000606482015290519081900360840190fd5b6002547501000000000000000000000000000000000000000000900460ff168015610ef6575060025474010000000000000000000000000000000000000000900460ff16155b1515610f72576040805160e560020a62461bcd02815260206004820152603460248201527f43616e6e6f7420706572666f726d207468697320616374696f6e207768696c6560448201527f20636f6e7472616374206973207061757365642e000000000000000000000000606482015290519081900360840190fd5b6002805474ff000000000000000000000000000000000000000019167401000000000000000000000000000000000000000017908190557f0e2fb031ee032dc02d8011dc50b816eb450cf856abd8261680dac74f72165bd2907501000000000000000000000000000000000000000000900460ff1680610d5c575060025460ff7401000000000000000000000000000000000000000090910416604080519115158252519081900360200190a1565b600054600160a060020a031633146110a9576040805160e560020a62461bcd02815260206004820152602b60248201527f596f75206d757374206265207468652043454f20746f20706572666f726d207460448201527f68697320616374696f6e2e000000000000000000000000000000000000000000606482015290519081900360840190fd5b60006002547501000000000000000000000000000000000000000000900460ff16806110ef575060025474010000000000000000000000000000000000000000900460ff165b151561116b576040805160e560020a62461bcd02815260206004820152603e60248201527f43616e6e6f7420706572666f726d207468697320616374696f6e20626563617560448201527f73652074686520636f6e7472616374206973206e6f74207061757365642e0000606482015290519081900360840190fd5b6002805475ffff00000000000000000000000000000000000000001916908190557f0e2fb031ee032dc02d8011dc50b816eb450cf856abd8261680dac74f72165bd2907501000000000000000000000000000000000000000000900460ff1680610818575060025460ff7401000000000000000000000000000000000000000090910416604080519115158252519081900360200190a150565b6003546040517f287283f1000000000000000000000000000000000000000000000000000000008152602060048201818152845160248401528451600160a060020a039094169363287283f193869383926044909201919085019080838360005b8381101561127e578181015183820152602001611266565b50505050905090810190601f1680156112ab5780820380516001836020036101000a031916815260200191505b5092505050602060405180830381600087803b1580156112ca57600080fd5b505af11580156112de573d6000803e3d6000fd5b505050506040513d60208110156112f457600080fd5b505115611371576040805160e560020a62461bcd02815260206004820152603a60248201527f43616e6e6f74206372656174652070726f70657274792077697468207468697360448201527f206e616d6520617320697420616c726561647920657869737473000000000000606482015290519081900360840190fd5b6003546040517fb0830751000000000000000000000000000000000000000000000000000000008152602060048201818152845160248401528451600160a060020a039094169363b083075193869383926044909201919085019080838360005b838110156113ea5781810151838201526020016113d2565b50505050905090810190601f1680156114175780820380516001836020036101000a031916815260200191505b5092505050602060405180830381600087803b15801561143657600080fd5b505af115801561144a573d6000803e3d6000fd5b505050506040513d602081101561146057600080fd5b505050565b6002547501000000000000000000000000000000000000000000900460ff1681565b60025474010000000000000000000000000000000000000000900460ff1681565b600254600160a060020a031681565b600354600090600160a060020a031663fb3b2afc6114d484610a6c565b6040518263ffffffff167c01000000000000000000000000000000000000000000000000000000000281526004018080602001828103825283818151815260200191508051906020019080838360005b8381101561153c578181015183820152602001611524565b50505050905090810190601f1680156115695780820380516001836020036101000a031916815260200191505b5092505050602060405180830381600087803b15801561158857600080fd5b505af115801561159c573d6000803e3d6000fd5b505050506040513d60208110156115b257600080fd5b5051929150505600a165627a7a723058205ef49f9d5569a3337c576305a4c1dbb03104b2fcb8cbf96f25e307a231b750f20029",
  "source": "pragma solidity ^0.4.24;\n\nimport \"../Storage/PropertyStorageInterfaceV1.sol\";\nimport \"./PropertyAccessControl.sol\";\n\n/// @title Property Access Control \n/// @author Bryce Doganer\n/// @notice This contract is setup as an interface between the front-end and \n///   the storage contract arrangement. \n/// @dev This contract sends calls to the `PropertyStorageProxy` contract through \n///   the `PropertyStorageInterface` contract by setting the address of the interface\n///   to the address of the proxy. Inside, the proxy is linked to the `PropertyManagement`\n///   contract which implements the functions in the interface contract. \ncontract PropertyConnectorV1 is PropertyAccessControl {\n    /// @notice This is the contracts pointer to the Interface\n    PropertyStorageInterfaceV1 _storageInterface;\n\n    /// @notice Sets the interface address as the address of the proxy contract\n    /// @param _proxyAddress -Address of the proxy contract, which implements the \n    ///   interface functions \n    function setInterface(address _proxyAddress) \n        external \n        onlyCEO \n    {\n        _storageInterface = PropertyStorageInterfaceV1(_proxyAddress);\n    }\n\n    /// @notice Get the name of a property with the given `tokenId`\n    /// @param _tokenId -The ID of a property \n    /// @return string -The name of the property\n    function getName(uint _tokenId) public view returns (string) {\n        return _storageInterface.getPropertyNameAtID(_tokenId);\n    }\n    \n    /// @notice Create a property with the given name and default values\n    /// @param _name -The desired name of a new property \n    function createDefaultProperty(string _name) public { \n        require(\n            _storageInterface.propertyExists(_name) == false,\n            \"Cannot create property with this name as it already exists\"\n        );\n        _storageInterface.createDefaultProperty(_name);\n    }\n\n    /// @notice Sets the weiCost of a property with the given id \n    /// @param _tokenId -The ID of a given property \n    /// @param _weiCost -The new cost in wei \n    function setWeiCost(uint _tokenId, uint _weiCost)  public {\n        _storageInterface.setPropertyWeiCost(getName(_tokenId), _weiCost);\n    }\n    \n    /// @notice Sets the weiCost of a property with the given id \n    /// @param _tokenId -The ID of a given property \n    /// @return uint -The cost of the property in wei \n    function getWeiCost(uint _tokenId) public view returns (uint) {\n        return _storageInterface.getPropertyWeiCost(getName(_tokenId));\n    }\n    \n\n}",
  "sourcePath": "/Users/bryceDoganer/Solidity/Solidity_Examples/proxy-interface-react/contracts/Controller/PropertyConnectorV1.sol",
  "compiler": {
    "name": "solc",
    "version": "0.4.24+commit.e67f0147.Emscripten.clang"
  },
  "schemaVersion": "2.0.1",
  "updatedAt": "2018-10-08T23:21:01.457Z"
}