{
  "contractName": "PropertyAccessControl",
  "abi": [
    {
      "constant": true,
      "inputs": [],
      "name": "CFOAddress",
      "outputs": [
        {
          "name": "",
          "type": "address"
        }
      ],
      "payable": false,
      "stateMutability": "view",
      "type": "function"
    },
    {
      "constant": true,
      "inputs": [],
      "name": "CEOAddress",
      "outputs": [
        {
          "name": "",
          "type": "address"
        }
      ],
      "payable": false,
      "stateMutability": "view",
      "type": "function"
    },
    {
      "constant": true,
      "inputs": [],
      "name": "isPaused",
      "outputs": [
        {
          "name": "",
          "type": "bool"
        }
      ],
      "payable": false,
      "stateMutability": "view",
      "type": "function"
    },
    {
      "constant": true,
      "inputs": [],
      "name": "isCEOPaused",
      "outputs": [
        {
          "name": "",
          "type": "bool"
        }
      ],
      "payable": false,
      "stateMutability": "view",
      "type": "function"
    },
    {
      "constant": true,
      "inputs": [],
      "name": "COOAddress",
      "outputs": [
        {
          "name": "",
          "type": "address"
        }
      ],
      "payable": false,
      "stateMutability": "view",
      "type": "function"
    },
    {
      "inputs": [],
      "payable": false,
      "stateMutability": "nonpayable",
      "type": "constructor"
    },
    {
      "anonymous": false,
      "inputs": [
        {
          "indexed": false,
          "name": "paused",
          "type": "bool"
        }
      ],
      "name": "Paused",
      "type": "event"
    },
    {
      "constant": false,
      "inputs": [
        {
          "name": "_newCEO",
          "type": "address"
        }
      ],
      "name": "setCEO",
      "outputs": [],
      "payable": false,
      "stateMutability": "nonpayable",
      "type": "function"
    },
    {
      "constant": false,
      "inputs": [
        {
          "name": "_newCFO",
          "type": "address"
        }
      ],
      "name": "setCFO",
      "outputs": [],
      "payable": false,
      "stateMutability": "nonpayable",
      "type": "function"
    },
    {
      "constant": false,
      "inputs": [
        {
          "name": "_newCOO",
          "type": "address"
        }
      ],
      "name": "setCOO",
      "outputs": [],
      "payable": false,
      "stateMutability": "nonpayable",
      "type": "function"
    },
    {
      "constant": false,
      "inputs": [],
      "name": "pauseCEO",
      "outputs": [],
      "payable": false,
      "stateMutability": "nonpayable",
      "type": "function"
    },
    {
      "constant": false,
      "inputs": [],
      "name": "unpauseCEO",
      "outputs": [],
      "payable": false,
      "stateMutability": "nonpayable",
      "type": "function"
    },
    {
      "constant": false,
      "inputs": [],
      "name": "pause",
      "outputs": [],
      "payable": false,
      "stateMutability": "nonpayable",
      "type": "function"
    },
    {
      "constant": false,
      "inputs": [],
      "name": "unpause",
      "outputs": [],
      "payable": false,
      "stateMutability": "nonpayable",
      "type": "function"
    }
  ],
  "bytecode": "0x60806040526002805460a060020a61ffff021916905534801561002157600080fd5b5060008054600160a060020a03191633179055610ec9806100436000396000f3006080604052600436106100b95763ffffffff7c010000000000000000000000000000000000000000000000000000000060003504166327d7874c81146100be578063298ad569146100e15780632ba73c15146101125780633f4ba83a146101335780634e0a3379146101485780635fcee7a0146101695780638456cb591461017e578063988baa9514610193578063aeb2cebc146101a8578063b187bd26146101bd578063bed51929146101e6578063d33a2cb0146101fb575b600080fd5b3480156100ca57600080fd5b506100df600160a060020a0360043516610210565b005b3480156100ed57600080fd5b506100f6610357565b60408051600160a060020a039092168252519081900360200190f35b34801561011e57600080fd5b506100df600160a060020a0360043516610366565b34801561013f57600080fd5b506100df6104ad565b34801561015457600080fd5b506100df600160a060020a03600435166106c9565b34801561017557600080fd5b506100f6610810565b34801561018a57600080fd5b506100df61081f565b34801561019f57600080fd5b506100df610a3a565b3480156101b457600080fd5b506100df610c3d565b3480156101c957600080fd5b506101d2610e2b565b604080519115158252519081900360200190f35b3480156101f257600080fd5b506101d2610e4d565b34801561020757600080fd5b506100f6610e6e565b600054600160a060020a0316331461029d5760408051600080516020610e7e833981519152815260206004820152602b60248201527f596f75206d757374206265207468652043454f20746f20706572666f726d207460448201527f68697320616374696f6e2e000000000000000000000000000000000000000000606482015290519081900360840190fd5b600160a060020a03811615156103285760408051600080516020610e7e833981519152815260206004820152603460248201527f596f752061726520617474656d7074696e6720746f2073657420746865206e6560448201527f772043454f20746f20616464726573732830292e000000000000000000000000606482015290519081900360840190fd5b6000805473ffffffffffffffffffffffffffffffffffffffff1916600160a060020a0392909216919091179055565b600154600160a060020a031681565b600054600160a060020a031633146103f35760408051600080516020610e7e833981519152815260206004820152602b60248201527f596f75206d757374206265207468652043454f20746f20706572666f726d207460448201527f68697320616374696f6e2e000000000000000000000000000000000000000000606482015290519081900360840190fd5b600160a060020a038116151561047e5760408051600080516020610e7e833981519152815260206004820152603460248201527f596f752061726520617474656d7074696e6720746f2073657420746865206e6560448201527f7720434f4f20746f20616464726573732830292e000000000000000000000000606482015290519081900360840190fd5b6002805473ffffffffffffffffffffffffffffffffffffffff1916600160a060020a0392909216919091179055565b600054600160a060020a03163314806104d05750600154600160a060020a031633145b806104e55750600254600160a060020a031633145b15156105665760408051600080516020610e7e833981519152815260206004820152603560248201527f596f75206d757374206265206120636f6d70616e79206f66666963657220746f60448201527f20706572666f726d207468697320616374696f6e2e0000000000000000000000606482015290519081900360840190fd5b600160025460ff750100000000000000000000000000000000000000000090910416151561062f5760408051600080516020610e7e833981519152815260206004820152605460248201527f43616e6e6f7420706572666f726d20616374696f6e206265636175736520746860448201527f6520617070206e6565647320746f20626520277061757365642720286e6f742060648201527f636f756e74696e672043454f506175736564292e000000000000000000000000608482015290519081900360a40190fd5b6002805475ff0000000000000000000000000000000000000000001916908190557f0e2fb031ee032dc02d8011dc50b816eb450cf856abd8261680dac74f72165bd2907501000000000000000000000000000000000000000000900460ff16806106b3575060025474010000000000000000000000000000000000000000900460ff165b604080519115158252519081900360200190a150565b600054600160a060020a031633146107565760408051600080516020610e7e833981519152815260206004820152602b60248201527f596f75206d757374206265207468652043454f20746f20706572666f726d207460448201527f68697320616374696f6e2e000000000000000000000000000000000000000000606482015290519081900360840190fd5b600160a060020a03811615156107e15760408051600080516020610e7e833981519152815260206004820152603460248201527f596f752061726520617474656d7074696e6720746f2073657420746865206e6560448201527f772043464f20746f20616464726573732830292e000000000000000000000000606482015290519081900360840190fd5b6001805473ffffffffffffffffffffffffffffffffffffffff1916600160a060020a0392909216919091179055565b600054600160a060020a031681565b600054600160a060020a03163314806108425750600154600160a060020a031633145b806108575750600254600160a060020a031633145b15156108d85760408051600080516020610e7e833981519152815260206004820152603560248201527f596f75206d757374206265206120636f6d70616e79206f66666963657220746f60448201527f20706572666f726d207468697320616374696f6e2e0000000000000000000000606482015290519081900360840190fd5b6002547501000000000000000000000000000000000000000000900460ff16801561091e575060025474010000000000000000000000000000000000000000900460ff16155b151561099f5760408051600080516020610e7e833981519152815260206004820152603460248201527f43616e6e6f7420706572666f726d207468697320616374696f6e207768696c6560448201527f20636f6e7472616374206973207061757365642e000000000000000000000000606482015290519081900360840190fd5b6002805475ff00000000000000000000000000000000000000000019167501000000000000000000000000000000000000000000908117918290557f0e2fb031ee032dc02d8011dc50b816eb450cf856abd8261680dac74f72165bd2910460ff1680610a25575060025474010000000000000000000000000000000000000000900460ff165b604080519115158252519081900360200190a1565b600054600160a060020a03163314610ac75760408051600080516020610e7e833981519152815260206004820152602b60248201527f596f75206d757374206265207468652043454f20746f20706572666f726d207460448201527f68697320616374696f6e2e000000000000000000000000000000000000000000606482015290519081900360840190fd5b6002547501000000000000000000000000000000000000000000900460ff168015610b0d575060025474010000000000000000000000000000000000000000900460ff16155b1515610b8e5760408051600080516020610e7e833981519152815260206004820152603460248201527f43616e6e6f7420706572666f726d207468697320616374696f6e207768696c6560448201527f20636f6e7472616374206973207061757365642e000000000000000000000000606482015290519081900360840190fd5b6002805474ff000000000000000000000000000000000000000019167401000000000000000000000000000000000000000017908190557f0e2fb031ee032dc02d8011dc50b816eb450cf856abd8261680dac74f72165bd2907501000000000000000000000000000000000000000000900460ff1680610a25575060025460ff7401000000000000000000000000000000000000000090910416604080519115158252519081900360200190a1565b600054600160a060020a03163314610cca5760408051600080516020610e7e833981519152815260206004820152602b60248201527f596f75206d757374206265207468652043454f20746f20706572666f726d207460448201527f68697320616374696f6e2e000000000000000000000000000000000000000000606482015290519081900360840190fd5b60006002547501000000000000000000000000000000000000000000900460ff1680610d10575060025474010000000000000000000000000000000000000000900460ff165b1515610d915760408051600080516020610e7e833981519152815260206004820152603e60248201527f43616e6e6f7420706572666f726d207468697320616374696f6e20626563617560448201527f73652074686520636f6e7472616374206973206e6f74207061757365642e0000606482015290519081900360840190fd5b6002805475ffff00000000000000000000000000000000000000001916908190557f0e2fb031ee032dc02d8011dc50b816eb450cf856abd8261680dac74f72165bd2907501000000000000000000000000000000000000000000900460ff16806106b3575060025460ff7401000000000000000000000000000000000000000090910416604080519115158252519081900360200190a150565b6002547501000000000000000000000000000000000000000000900460ff1681565b60025474010000000000000000000000000000000000000000900460ff1681565b600254600160a060020a031681560008c379a000000000000000000000000000000000000000000000000000000000a165627a7a7230582078c75b8164434a38efd21f93316a5cde4e025fa63cdd8f99d40be7de29fd36c30029",
  "source": "pragma solidity ^0.4.24;\n\n/// @title Property Access Control \n/// @author Adapted from: Axiom Zen (https://www.axiomzen.co)\ncontract PropertyAccessControl {\n    // This facet controls access control for CryptoCrests. There are four roles managed here:\n    //\n    //     - The CEO: The CEO can reassign other roles and change the addresses of our dependent smart\n    //         contracts. It is also the only role that can unpause the smart contract. It is initially\n    //         set to the address that created the smart contract in the\n    //\n    //     - The CFO: The CFO can withdraw funds from the contract.\n    //\n    //     - The COO: The COO .\n    //\n    // It should be NOTE:  that these roles are distinct without overlap in their access abilities, the\n    // abilities listed for each role above are exhaustive. In particular, while the CEO can assign any\n    // address to any role, the CEO address itself doesn't have the ability to act in those roles. This\n    // restriction is intentional so that we aren't tempted to use the CEO address frequently out of\n    // convenience. The less we use an address, the less likely it is that we somehow compromise the\n    // account.\n\n    event Paused(bool paused);\n\n    // The addresses of the accounts (or contracts) that can execute actions within each roles.\n    address public CEOAddress;\n    address public CFOAddress;\n    address public COOAddress;\n\n    // @dev Keeps track whether the contract is paused. When that is true, most actions are blocked\n    bool public isCEOPaused = false;\n    bool public isPaused = false;\n\n    /// @dev The CrestAccessControl constructor sets the original sender of the contract as the CEO\n    constructor() public {\n        CEOAddress = msg.sender;\n    }\n\n    /*\n\n    Function Modifiers \n\n    */\n\n    /// @dev Access modifier for CEO-only functionality\n    modifier onlyCEO() {\n        require(\n            msg.sender == CEOAddress,\n            \"You must be the CEO to perform this action.\"\n        );\n        _;\n    }\n\n    /// @dev Access modifier for CFO-only functionality\n    modifier onlyCFO() {\n        require(\n            msg.sender == CFOAddress,\n            \"You must be the CFO to perform this action.\"    \n        );\n        _;\n    }\n\n    /// @dev Access modifier for COO-only functionality\n    modifier onlyCOO() {\n        require(\n            msg.sender == COOAddress,\n            \"You must be the COO to perform this action.\"    \n        );\n        _;\n    }\n\n    modifier onlyCLevel() {\n        require(\n            msg.sender == CEOAddress ||\n            msg.sender == CFOAddress ||\n            msg.sender == COOAddress,\n            \"You must be a company officer to perform this action.\"\n        );\n        _;\n    }\n\n    /*\n\n    External Setters \n    \n    */\n\n    /// @dev Assigns a new address to act as the CEO. Only available to the current CEO.\n    /// @param _newCEO The address of the new CEO\n    function setCEO(address _newCEO) external onlyCEO {\n        require(\n            _newCEO != address(0),\n            \"You are attempting to set the new CEO to address(0).\"\n        );\n        CEOAddress = _newCEO; \n    }\n\n    /// @dev Assigns a new address to act as the CFO. Only available to the current CEO.\n    /// @param _newCFO The address of the new CFO\n    function setCFO(address _newCFO) external onlyCEO {\n        require(\n            _newCFO != address(0),\n            \"You are attempting to set the new CFO to address(0).\"   \n        );\n        CFOAddress = _newCFO;\n    }\n\n    /// @dev Assigns a new address to act as the COO. Only available to the current CEO.\n    /// @param _newCOO The address of the new COO\n    function setCOO(address _newCOO) external onlyCEO {\n        require(\n            _newCOO != address(0),\n            \"You are attempting to set the new COO to address(0).\"    \n        );\n        COOAddress = _newCOO;\n    }\n\n\n    /*\n\n    Pause Functionality  \n\n    */\n\n    /*** Pausable functionality adapted from OpenZeppelin ***/\n    /// @dev Modifier to allow actions only when the contract IS NOT paused\n    modifier whenNotPaused() {\n        require(\n            isPaused && !isCEOPaused,\n            \"Cannot perform this action while contract is paused.\"    \n        );\n        _;\n    }\n\n    /// @dev Modifier to allow actions only when the contract IS paused\n    modifier whenPaused(bool _excludingCEOPause) {\n        if(_excludingCEOPause) {\n            require(\n                isPaused,\n                \"Cannot perform action because the app needs to be 'paused' (not counting CEOPaused).\" \n            );\n        } else {\n            require(\n                isPaused || isCEOPaused,\n                \"Cannot perform this action because the contract is not paused.\"\n            );\n        }\n        _;\n    }\n\n    /// @dev A CEO pause option that only they can unpause. \n    function pauseCEO() external onlyCEO whenNotPaused {\n        isCEOPaused = true; \n        emit Paused(isPaused || isCEOPaused);\n    }\n\n    /// @dev Unpauses the smart contract. Can only be called by the CEO, since\n    //  one reason we may pause the contract is when CFO or COO accounts are\n    //  compromised.\n    /// @notice This is public rather than external so it can be called by\n    //  derived contracts.\n    function unpauseCEO() external onlyCEO whenPaused(false) {\n        isPaused = false;\n        isCEOPaused = false; \n        emit Paused(isPaused || isCEOPaused);\n    }\n\n    /// @dev When calculating faction payouts the contract will be paused to\n    // \tensure no data is updated during the payout session.\n    function pause() public onlyCLevel whenNotPaused {\n        isPaused = true;\n        emit Paused(isPaused || isCEOPaused);\n    }\n\n    /// @dev After the factions are paid the contract will resume operation.\n    function unpause() public onlyCLevel whenPaused(true) {\n        isPaused = false; \n        emit Paused(isPaused || isCEOPaused);\n    }\n\n\n}\n",
  "sourcePath": "/Users/bryceDoganer/Solidity/Solidity_Examples/proxy-interface-react/contracts/Controller/PropertyAccessControl.sol",
  "compiler": {
    "name": "solc",
    "version": "0.4.24+commit.e67f0147.Emscripten.clang"
  },
  "schemaVersion": "2.0.1",
  "updatedAt": "2018-10-08T23:19:55.658Z"
}