{
  "contractName": "PropertyConnectorV1",
  "abi": [
    {
      "constant": false,
      "inputs": [
        {
          "name": "_newCEO",
          "type": "address"
        }
      ],
      "name": "setCEO",
      "outputs": [],
      "payable": false,
      "stateMutability": "nonpayable",
      "type": "function"
    },
    {
      "constant": true,
      "inputs": [],
      "name": "CFOAddress",
      "outputs": [
        {
          "name": "",
          "type": "address"
        }
      ],
      "payable": false,
      "stateMutability": "view",
      "type": "function"
    },
    {
      "constant": false,
      "inputs": [
        {
          "name": "_newCOO",
          "type": "address"
        }
      ],
      "name": "setCOO",
      "outputs": [],
      "payable": false,
      "stateMutability": "nonpayable",
      "type": "function"
    },
    {
      "constant": false,
      "inputs": [],
      "name": "unpause",
      "outputs": [],
      "payable": false,
      "stateMutability": "nonpayable",
      "type": "function"
    },
    {
      "constant": false,
      "inputs": [
        {
          "name": "_newCFO",
          "type": "address"
        }
      ],
      "name": "setCFO",
      "outputs": [],
      "payable": false,
      "stateMutability": "nonpayable",
      "type": "function"
    },
    {
      "constant": true,
      "inputs": [],
      "name": "CEOAddress",
      "outputs": [
        {
          "name": "",
          "type": "address"
        }
      ],
      "payable": false,
      "stateMutability": "view",
      "type": "function"
    },
    {
      "constant": false,
      "inputs": [],
      "name": "pause",
      "outputs": [],
      "payable": false,
      "stateMutability": "nonpayable",
      "type": "function"
    },
    {
      "constant": false,
      "inputs": [],
      "name": "pauseCEO",
      "outputs": [],
      "payable": false,
      "stateMutability": "nonpayable",
      "type": "function"
    },
    {
      "constant": false,
      "inputs": [],
      "name": "unpauseCEO",
      "outputs": [],
      "payable": false,
      "stateMutability": "nonpayable",
      "type": "function"
    },
    {
      "constant": true,
      "inputs": [],
      "name": "isPaused",
      "outputs": [
        {
          "name": "",
          "type": "bool"
        }
      ],
      "payable": false,
      "stateMutability": "view",
      "type": "function"
    },
    {
      "constant": true,
      "inputs": [],
      "name": "isCEOPaused",
      "outputs": [
        {
          "name": "",
          "type": "bool"
        }
      ],
      "payable": false,
      "stateMutability": "view",
      "type": "function"
    },
    {
      "constant": true,
      "inputs": [],
      "name": "COOAddress",
      "outputs": [
        {
          "name": "",
          "type": "address"
        }
      ],
      "payable": false,
      "stateMutability": "view",
      "type": "function"
    },
    {
      "anonymous": false,
      "inputs": [
        {
          "indexed": false,
          "name": "paused",
          "type": "bool"
        }
      ],
      "name": "Paused",
      "type": "event"
    },
    {
      "constant": false,
      "inputs": [
        {
          "name": "_interfaceAddress",
          "type": "address"
        }
      ],
      "name": "setInterface",
      "outputs": [],
      "payable": false,
      "stateMutability": "nonpayable",
      "type": "function"
    },
    {
      "constant": true,
      "inputs": [
        {
          "name": "_tokenId",
          "type": "uint256"
        }
      ],
      "name": "getName",
      "outputs": [
        {
          "name": "",
          "type": "string"
        }
      ],
      "payable": false,
      "stateMutability": "view",
      "type": "function"
    },
    {
      "constant": false,
      "inputs": [
        {
          "name": "_name",
          "type": "string"
        }
      ],
      "name": "createDefaultProperty",
      "outputs": [],
      "payable": false,
      "stateMutability": "nonpayable",
      "type": "function"
    },
    {
      "constant": false,
      "inputs": [
        {
          "name": "_tokenId",
          "type": "uint256"
        },
        {
          "name": "_cost",
          "type": "uint256"
        }
      ],
      "name": "setWeiCost",
      "outputs": [],
      "payable": false,
      "stateMutability": "nonpayable",
      "type": "function"
    },
    {
      "constant": true,
      "inputs": [
        {
          "name": "_tokenId",
          "type": "uint256"
        }
      ],
      "name": "getWeiCost",
      "outputs": [
        {
          "name": "",
          "type": "uint256"
        }
      ],
      "payable": false,
      "stateMutability": "view",
      "type": "function"
    }
  ],
  "bytecode": "0x60806040526000600260146101000a81548160ff0219169083151502179055506000600260156101000a81548160ff021916908315150217905550336000806101000a81548173ffffffffffffffffffffffffffffffffffffffff021916908373ffffffffffffffffffffffffffffffffffffffff160217905550611da4806100896000396000f3006080604052600436106100f1576000357c0100000000000000000000000000000000000000000000000000000000900463ffffffff16806327d7874c146100f6578063298ad569146101395780632ba73c15146101905780633f4ba83a146101d35780634e0a3379146101ea5780635aa513f21461022d5780635fcee7a0146102645780636b8ff574146102bb5780638456cb591461036157806397492c4614610378578063988baa95146103bb578063aeb2cebc146103d2578063b0830751146103e9578063b187bd2614610452578063bed5192914610481578063d33a2cb0146104b0578063d781ab0314610507575b600080fd5b34801561010257600080fd5b50610137600480360381019080803573ffffffffffffffffffffffffffffffffffffffff169060200190929190505050610548565b005b34801561014557600080fd5b5061014e610740565b604051808273ffffffffffffffffffffffffffffffffffffffff1673ffffffffffffffffffffffffffffffffffffffff16815260200191505060405180910390f35b34801561019c57600080fd5b506101d1600480360381019080803573ffffffffffffffffffffffffffffffffffffffff169060200190929190505050610766565b005b3480156101df57600080fd5b506101e861095f565b005b3480156101f657600080fd5b5061022b600480360381019080803573ffffffffffffffffffffffffffffffffffffffff169060200190929190505050610d17565b005b34801561023957600080fd5b506102626004803603810190808035906020019092919080359060200190929190505050610f10565b005b34801561027057600080fd5b50610279611032565b604051808273ffffffffffffffffffffffffffffffffffffffff1673ffffffffffffffffffffffffffffffffffffffff16815260200191505060405180910390f35b3480156102c757600080fd5b506102e660048036038101908080359060200190929190505050611057565b6040518080602001828103825283818151815260200191508051906020019080838360005b8381101561032657808201518184015260208101905061030b565b50505050905090810190601f1680156103535780820380516001836020036101000a031916815260200191505b509250505060405180910390f35b34801561036d57600080fd5b50610376611182565b005b34801561038457600080fd5b506103b9600480360381019080803573ffffffffffffffffffffffffffffffffffffffff16906020019092919050505061145d565b005b3480156103c757600080fd5b506103d061158b565b005b3480156103de57600080fd5b506103e76117b6565b005b3480156103f557600080fd5b50610450600480360381019080803590602001908201803590602001908080601f0160208091040260200160405190810160405280939291908181526020018383808284378201915050505050509192919290505050611ad9565b005b34801561045e57600080fd5b50610467611bea565b604051808215151515815260200191505060405180910390f35b34801561048d57600080fd5b50610496611bfd565b604051808215151515815260200191505060405180910390f35b3480156104bc57600080fd5b506104c5611c10565b604051808273ffffffffffffffffffffffffffffffffffffffff1673ffffffffffffffffffffffffffffffffffffffff16815260200191505060405180910390f35b34801561051357600080fd5b5061053260048036038101908080359060200190929190505050611c36565b6040518082815260200191505060405180910390f35b6000809054906101000a900473ffffffffffffffffffffffffffffffffffffffff1673ffffffffffffffffffffffffffffffffffffffff163373ffffffffffffffffffffffffffffffffffffffff16141515610632576040517f08c379a000000000000000000000000000000000000000000000000000000000815260040180806020018281038252602b8152602001807f596f75206d757374206265207468652043454f20746f20706572666f726d207481526020017f68697320616374696f6e2e00000000000000000000000000000000000000000081525060400191505060405180910390fd5b600073ffffffffffffffffffffffffffffffffffffffff168173ffffffffffffffffffffffffffffffffffffffff16141515156106fd576040517f08c379a00000000000000000000000000000000000000000000000000000000081526004018080602001828103825260348152602001807f596f752061726520617474656d7074696e6720746f2073657420746865206e6581526020017f772043454f20746f20616464726573732830292e00000000000000000000000081525060400191505060405180910390fd5b806000806101000a81548173ffffffffffffffffffffffffffffffffffffffff021916908373ffffffffffffffffffffffffffffffffffffffff16021790555050565b600160009054906101000a900473ffffffffffffffffffffffffffffffffffffffff1681565b6000809054906101000a900473ffffffffffffffffffffffffffffffffffffffff1673ffffffffffffffffffffffffffffffffffffffff163373ffffffffffffffffffffffffffffffffffffffff16141515610850576040517f08c379a000000000000000000000000000000000000000000000000000000000815260040180806020018281038252602b8152602001807f596f75206d757374206265207468652043454f20746f20706572666f726d207481526020017f68697320616374696f6e2e00000000000000000000000000000000000000000081525060400191505060405180910390fd5b600073ffffffffffffffffffffffffffffffffffffffff168173ffffffffffffffffffffffffffffffffffffffff161415151561091b576040517f08c379a00000000000000000000000000000000000000000000000000000000081526004018080602001828103825260348152602001807f596f752061726520617474656d7074696e6720746f2073657420746865206e6581526020017f7720434f4f20746f20616464726573732830292e00000000000000000000000081525060400191505060405180910390fd5b80600260006101000a81548173ffffffffffffffffffffffffffffffffffffffff021916908373ffffffffffffffffffffffffffffffffffffffff16021790555050565b6000809054906101000a900473ffffffffffffffffffffffffffffffffffffffff1673ffffffffffffffffffffffffffffffffffffffff163373ffffffffffffffffffffffffffffffffffffffff161480610a075750600160009054906101000a900473ffffffffffffffffffffffffffffffffffffffff1673ffffffffffffffffffffffffffffffffffffffff163373ffffffffffffffffffffffffffffffffffffffff16145b80610a5f5750600260009054906101000a900473ffffffffffffffffffffffffffffffffffffffff1673ffffffffffffffffffffffffffffffffffffffff163373ffffffffffffffffffffffffffffffffffffffff16145b1515610af9576040517f08c379a00000000000000000000000000000000000000000000000000000000081526004018080602001828103825260358152602001807f596f75206d757374206265206120636f6d70616e79206f66666963657220746f81526020017f20706572666f726d207468697320616374696f6e2e000000000000000000000081525060400191505060405180910390fd5b60018015610bd657600260159054906101000a900460ff161515610bd1576040517f08c379a00000000000000000000000000000000000000000000000000000000081526004018080602001828103825260548152602001807f43616e6e6f7420706572666f726d20616374696f6e206265636175736520746881526020017f6520617070206e6565647320746f20626520277061757365642720286e6f742081526020017f636f756e74696e672043454f506175736564292e00000000000000000000000081525060600191505060405180910390fd5b610c98565b600260159054906101000a900460ff1680610bfd5750600260149054906101000a900460ff165b1515610c97576040517f08c379a000000000000000000000000000000000000000000000000000000000815260040180806020018281038252603e8152602001807f43616e6e6f7420706572666f726d207468697320616374696f6e20626563617581526020017f73652074686520636f6e7472616374206973206e6f74207061757365642e000081525060400191505060405180910390fd5b5b6000600260156101000a81548160ff0219169083151502179055507f0e2fb031ee032dc02d8011dc50b816eb450cf856abd8261680dac74f72165bd2600260159054906101000a900460ff1680610cfb5750600260149054906101000a900460ff165b604051808215151515815260200191505060405180910390a150565b6000809054906101000a900473ffffffffffffffffffffffffffffffffffffffff1673ffffffffffffffffffffffffffffffffffffffff163373ffffffffffffffffffffffffffffffffffffffff16141515610e01576040517f08c379a000000000000000000000000000000000000000000000000000000000815260040180806020018281038252602b8152602001807f596f75206d757374206265207468652043454f20746f20706572666f726d207481526020017f68697320616374696f6e2e00000000000000000000000000000000000000000081525060400191505060405180910390fd5b600073ffffffffffffffffffffffffffffffffffffffff168173ffffffffffffffffffffffffffffffffffffffff1614151515610ecc576040517f08c379a00000000000000000000000000000000000000000000000000000000081526004018080602001828103825260348152602001807f596f752061726520617474656d7074696e6720746f2073657420746865206e6581526020017f772043464f20746f20616464726573732830292e00000000000000000000000081525060400191505060405180910390fd5b80600160006101000a81548173ffffffffffffffffffffffffffffffffffffffff021916908373ffffffffffffffffffffffffffffffffffffffff16021790555050565b600360009054906101000a900473ffffffffffffffffffffffffffffffffffffffff1673ffffffffffffffffffffffffffffffffffffffff16638733b0f5610f5784611057565b836040518363ffffffff167c01000000000000000000000000000000000000000000000000000000000281526004018080602001838152602001828103825284818151815260200191508051906020019080838360005b83811015610fc9578082015181840152602081019050610fae565b50505050905090810190601f168015610ff65780820380516001836020036101000a031916815260200191505b509350505050600060405180830381600087803b15801561101657600080fd5b505af115801561102a573d6000803e3d6000fd5b505050505050565b6000809054906101000a900473ffffffffffffffffffffffffffffffffffffffff1681565b6060600360009054906101000a900473ffffffffffffffffffffffffffffffffffffffff1673ffffffffffffffffffffffffffffffffffffffff16634f3c374e836040518263ffffffff167c010000000000000000000000000000000000000000000000000000000002815260040180828152602001915050600060405180830381600087803b1580156110ea57600080fd5b505af11580156110fe573d6000803e3d6000fd5b505050506040513d6000823e3d601f19601f82011682018060405250602081101561112857600080fd5b81019080805164010000000081111561114057600080fd5b8281019050602081018481111561115657600080fd5b815185600182028301116401000000008211171561117357600080fd5b50509291905050509050919050565b6000809054906101000a900473ffffffffffffffffffffffffffffffffffffffff1673ffffffffffffffffffffffffffffffffffffffff163373ffffffffffffffffffffffffffffffffffffffff16148061122a5750600160009054906101000a900473ffffffffffffffffffffffffffffffffffffffff1673ffffffffffffffffffffffffffffffffffffffff163373ffffffffffffffffffffffffffffffffffffffff16145b806112825750600260009054906101000a900473ffffffffffffffffffffffffffffffffffffffff1673ffffffffffffffffffffffffffffffffffffffff163373ffffffffffffffffffffffffffffffffffffffff16145b151561131c576040517f08c379a00000000000000000000000000000000000000000000000000000000081526004018080602001828103825260358152602001807f596f75206d757374206265206120636f6d70616e79206f66666963657220746f81526020017f20706572666f726d207468697320616374696f6e2e000000000000000000000081525060400191505060405180910390fd5b600260159054906101000a900460ff1680156113455750600260149054906101000a900460ff16155b15156113df576040517f08c379a00000000000000000000000000000000000000000000000000000000081526004018080602001828103825260348152602001807f43616e6e6f7420706572666f726d207468697320616374696f6e207768696c6581526020017f20636f6e7472616374206973207061757365642e00000000000000000000000081525060400191505060405180910390fd5b6001600260156101000a81548160ff0219169083151502179055507f0e2fb031ee032dc02d8011dc50b816eb450cf856abd8261680dac74f72165bd2600260159054906101000a900460ff16806114425750600260149054906101000a900460ff165b604051808215151515815260200191505060405180910390a1565b6000809054906101000a900473ffffffffffffffffffffffffffffffffffffffff1673ffffffffffffffffffffffffffffffffffffffff163373ffffffffffffffffffffffffffffffffffffffff16141515611547576040517f08c379a000000000000000000000000000000000000000000000000000000000815260040180806020018281038252602b8152602001807f596f75206d757374206265207468652043454f20746f20706572666f726d207481526020017f68697320616374696f6e2e00000000000000000000000000000000000000000081525060400191505060405180910390fd5b80600360006101000a81548173ffffffffffffffffffffffffffffffffffffffff021916908373ffffffffffffffffffffffffffffffffffffffff16021790555050565b6000809054906101000a900473ffffffffffffffffffffffffffffffffffffffff1673ffffffffffffffffffffffffffffffffffffffff163373ffffffffffffffffffffffffffffffffffffffff16141515611675576040517f08c379a000000000000000000000000000000000000000000000000000000000815260040180806020018281038252602b8152602001807f596f75206d757374206265207468652043454f20746f20706572666f726d207481526020017f68697320616374696f6e2e00000000000000000000000000000000000000000081525060400191505060405180910390fd5b600260159054906101000a900460ff16801561169e5750600260149054906101000a900460ff16155b1515611738576040517f08c379a00000000000000000000000000000000000000000000000000000000081526004018080602001828103825260348152602001807f43616e6e6f7420706572666f726d207468697320616374696f6e207768696c6581526020017f20636f6e7472616374206973207061757365642e00000000000000000000000081525060400191505060405180910390fd5b6001600260146101000a81548160ff0219169083151502179055507f0e2fb031ee032dc02d8011dc50b816eb450cf856abd8261680dac74f72165bd2600260159054906101000a900460ff168061179b5750600260149054906101000a900460ff165b604051808215151515815260200191505060405180910390a1565b6000809054906101000a900473ffffffffffffffffffffffffffffffffffffffff1673ffffffffffffffffffffffffffffffffffffffff163373ffffffffffffffffffffffffffffffffffffffff161415156118a0576040517f08c379a000000000000000000000000000000000000000000000000000000000815260040180806020018281038252602b8152602001807f596f75206d757374206265207468652043454f20746f20706572666f726d207481526020017f68697320616374696f6e2e00000000000000000000000000000000000000000081525060400191505060405180910390fd5b6000801561197d57600260159054906101000a900460ff161515611978576040517f08c379a00000000000000000000000000000000000000000000000000000000081526004018080602001828103825260548152602001807f43616e6e6f7420706572666f726d20616374696f6e206265636175736520746881526020017f6520617070206e6565647320746f20626520277061757365642720286e6f742081526020017f636f756e74696e672043454f506175736564292e00000000000000000000000081525060600191505060405180910390fd5b611a3f565b600260159054906101000a900460ff16806119a45750600260149054906101000a900460ff165b1515611a3e576040517f08c379a000000000000000000000000000000000000000000000000000000000815260040180806020018281038252603e8152602001807f43616e6e6f7420706572666f726d207468697320616374696f6e20626563617581526020017f73652074686520636f6e7472616374206973206e6f74207061757365642e000081525060400191505060405180910390fd5b5b6000600260156101000a81548160ff0219169083151502179055506000600260146101000a81548160ff0219169083151502179055507f0e2fb031ee032dc02d8011dc50b816eb450cf856abd8261680dac74f72165bd2600260159054906101000a900460ff1680611abd5750600260149054906101000a900460ff165b604051808215151515815260200191505060405180910390a150565b600360009054906101000a900473ffffffffffffffffffffffffffffffffffffffff1673ffffffffffffffffffffffffffffffffffffffff1663b0830751826040518263ffffffff167c01000000000000000000000000000000000000000000000000000000000281526004018080602001828103825283818151815260200191508051906020019080838360005b83811015611b83578082015181840152602081019050611b68565b50505050905090810190601f168015611bb05780820380516001836020036101000a031916815260200191505b5092505050600060405180830381600087803b158015611bcf57600080fd5b505af1158015611be3573d6000803e3d6000fd5b5050505050565b600260159054906101000a900460ff1681565b600260149054906101000a900460ff1681565b600260009054906101000a900473ffffffffffffffffffffffffffffffffffffffff1681565b6000600360009054906101000a900473ffffffffffffffffffffffffffffffffffffffff1673ffffffffffffffffffffffffffffffffffffffff1663fb3b2afc611c7f84611057565b6040518263ffffffff167c01000000000000000000000000000000000000000000000000000000000281526004018080602001828103825283818151815260200191508051906020019080838360005b83811015611cea578082015181840152602081019050611ccf565b50505050905090810190601f168015611d175780820380516001836020036101000a031916815260200191505b5092505050602060405180830381600087803b158015611d3657600080fd5b505af1158015611d4a573d6000803e3d6000fd5b505050506040513d6020811015611d6057600080fd5b810190808051906020019092919050505090509190505600a165627a7a723058201de928705440268bf630e132ab92213465a16a63f0c24bc83bace838a149d9d70029",
  "source": "pragma solidity ^0.4.24;\n\nimport \"./PropertyAccessControl.sol\";\nimport \"../Storage/PropertyStorageInterfaceV1.sol\";\nimport \"../Storage/PropertyStorageProxy.sol\";\n\n/// @title Crest Access Control \n/// @author Bryce Doganer - DApples.io\ncontract PropertyConnectorV1 is PropertyAccessControl {\n/*\nThis contract facilitates the interaction between the crest logic (here) and \nthe Crest Storage\n*/\n    PropertyStorageInterfaceV1 _storageInterface;\n\n    function setInterface(address _interfaceAddress) \n        external \n        onlyCEO \n    {\n        _storageInterface = PropertyStorageInterfaceV1(_interfaceAddress);\n    }\n\n    function getName(uint _tokenId) public view returns (string) {\n        // TODO: Check if property exists\n        return _storageInterface.getPropertyNameAtID(_tokenId);\n    }\n    \n    function createDefaultProperty(string _name) public {\n        _storageInterface.createDefaultProperty(_name);\n    }\n\n    function setWeiCost(uint _tokenId, uint _cost) \n        public \n    {\n        _storageInterface.setPropertyWeiCost(getName(_tokenId), _cost);\n    }\n\n    function getWeiCost(uint _tokenId) public view returns (uint) {\n        return _storageInterface.getPropertyWeiCost(getName(_tokenId));\n    }\n    \n\n}",
  "sourcePath": "/Users/bryceDoganer/Solidity/Solidity_Examples/proxy-interface-react/contracts/Controller/PropertyConnectorV1.sol",
  "compiler": {
    "name": "solc",
    "version": "0.4.24+commit.e67f0147.Emscripten.clang"
  },
  "schemaVersion": "2.0.1",
  "updatedAt": "2018-08-14T23:10:33.443Z"
}