{
  "contractName": "PropertyManagementV1",
  "abi": [
    {
      "constant": false,
      "inputs": [
        {
          "name": "_proxyController",
          "type": "address"
        }
      ],
      "name": "setProxyControllerAddress",
      "outputs": [],
      "payable": false,
      "stateMutability": "nonpayable",
      "type": "function"
    },
    {
      "constant": false,
      "inputs": [],
      "name": "renounceOwnership",
      "outputs": [],
      "payable": false,
      "stateMutability": "nonpayable",
      "type": "function"
    },
    {
      "constant": true,
      "inputs": [],
      "name": "getProxyControllerAddress",
      "outputs": [
        {
          "name": "",
          "type": "address"
        }
      ],
      "payable": false,
      "stateMutability": "view",
      "type": "function"
    },
    {
      "constant": true,
      "inputs": [],
      "name": "owner",
      "outputs": [
        {
          "name": "",
          "type": "address"
        }
      ],
      "payable": false,
      "stateMutability": "view",
      "type": "function"
    },
    {
      "constant": false,
      "inputs": [
        {
          "name": "_newOwner",
          "type": "address"
        }
      ],
      "name": "transferOwnership",
      "outputs": [],
      "payable": false,
      "stateMutability": "nonpayable",
      "type": "function"
    },
    {
      "anonymous": false,
      "inputs": [
        {
          "indexed": true,
          "name": "previousOwner",
          "type": "address"
        }
      ],
      "name": "OwnershipRenounced",
      "type": "event"
    },
    {
      "anonymous": false,
      "inputs": [
        {
          "indexed": true,
          "name": "previousOwner",
          "type": "address"
        },
        {
          "indexed": true,
          "name": "newOwner",
          "type": "address"
        }
      ],
      "name": "OwnershipTransferred",
      "type": "event"
    },
    {
      "constant": false,
      "inputs": [
        {
          "name": "_propertyName",
          "type": "string"
        }
      ],
      "name": "createDefaultProperty",
      "outputs": [
        {
          "name": "_success",
          "type": "bool"
        }
      ],
      "payable": false,
      "stateMutability": "nonpayable",
      "type": "function"
    },
    {
      "constant": false,
      "inputs": [
        {
          "name": "_propertyName",
          "type": "string"
        },
        {
          "name": "_weiCost",
          "type": "uint256"
        }
      ],
      "name": "createProperty",
      "outputs": [
        {
          "name": "",
          "type": "bool"
        }
      ],
      "payable": false,
      "stateMutability": "nonpayable",
      "type": "function"
    },
    {
      "constant": true,
      "inputs": [
        {
          "name": "_propertyName",
          "type": "string"
        }
      ],
      "name": "propertyExists",
      "outputs": [
        {
          "name": "",
          "type": "bool"
        }
      ],
      "payable": false,
      "stateMutability": "view",
      "type": "function"
    },
    {
      "constant": true,
      "inputs": [
        {
          "name": "_tokenId",
          "type": "uint256"
        }
      ],
      "name": "getPropertyNameAtID",
      "outputs": [
        {
          "name": "",
          "type": "string"
        }
      ],
      "payable": false,
      "stateMutability": "view",
      "type": "function"
    },
    {
      "constant": true,
      "inputs": [
        {
          "name": "_propertyName",
          "type": "string"
        }
      ],
      "name": "getPropertyId",
      "outputs": [
        {
          "name": "",
          "type": "uint256"
        }
      ],
      "payable": false,
      "stateMutability": "view",
      "type": "function"
    },
    {
      "constant": true,
      "inputs": [
        {
          "name": "_propertyName",
          "type": "string"
        }
      ],
      "name": "getPropertyWeiCost",
      "outputs": [
        {
          "name": "",
          "type": "uint256"
        }
      ],
      "payable": false,
      "stateMutability": "view",
      "type": "function"
    },
    {
      "constant": true,
      "inputs": [
        {
          "name": "_propertyName",
          "type": "string"
        }
      ],
      "name": "getPropertyOwnerAddress",
      "outputs": [
        {
          "name": "",
          "type": "address"
        }
      ],
      "payable": false,
      "stateMutability": "view",
      "type": "function"
    },
    {
      "constant": true,
      "inputs": [
        {
          "name": "_owner",
          "type": "address"
        }
      ],
      "name": "getOwnerPropertyCount",
      "outputs": [
        {
          "name": "",
          "type": "uint256"
        }
      ],
      "payable": false,
      "stateMutability": "view",
      "type": "function"
    },
    {
      "constant": true,
      "inputs": [],
      "name": "getTotalPropertyCount",
      "outputs": [
        {
          "name": "",
          "type": "uint256"
        }
      ],
      "payable": false,
      "stateMutability": "view",
      "type": "function"
    },
    {
      "constant": false,
      "inputs": [
        {
          "name": "_propertyName",
          "type": "string"
        },
        {
          "name": "_weiCost",
          "type": "uint256"
        }
      ],
      "name": "setPropertyWeiCost",
      "outputs": [],
      "payable": false,
      "stateMutability": "nonpayable",
      "type": "function"
    },
    {
      "constant": false,
      "inputs": [
        {
          "name": "_propertyName",
          "type": "string"
        },
        {
          "name": "_address",
          "type": "address"
        }
      ],
      "name": "setPropertyOwnerAddress",
      "outputs": [],
      "payable": false,
      "stateMutability": "nonpayable",
      "type": "function"
    }
  ],
  "bytecode": "0x608060405260018054600160a060020a031916331790556118f2806100256000396000f3006080604052600436106100cc5763ffffffff60e060020a6000350416630dc8bde181146100d1578063224b5dd8146100f4578063287283f1146101695780634f3c374e146101d65780635a6368ef1461026357806364789ebb146102be578063715018a6146103295780638733b0f51461033e5780638bb09852146103995780638da5cb5b146103ae578063a5520197146103c3578063b0830751146103d8578063be1cf18114610431578063d79fb4ff14610495578063f2fde38b146104b6578063fb3b2afc146104d7575b600080fd5b3480156100dd57600080fd5b506100f2600160a060020a0360043516610530565b005b34801561010057600080fd5b506040805160206004803580820135601f810184900484028501840190955284845261014d94369492936024939284019190819084018382808284375094975061071e9650505050505050565b60408051600160a060020a039092168252519081900360200190f35b34801561017557600080fd5b506040805160206004803580820135601f81018490048402850184019095528484526101c294369492936024939284019190819084018382808284375094975061089a9650505050505050565b604080519115158252519081900360200190f35b3480156101e257600080fd5b506101ee6004356108ad565b6040805160208082528351818301528351919283929083019185019080838360005b83811015610228578181015183820152602001610210565b50505050905090810190601f1680156102555780820380516001836020036101000a031916815260200191505b509250505060405180910390f35b34801561026f57600080fd5b506040805160206004803580820135601f81018490048402850184019095528484526101c29436949293602493928401919081908401838280828437509497505093359450610a249350505050565b3480156102ca57600080fd5b506040805160206004803580820135601f8101849004840285018401909552848452610317943694929360249392840191908190840183828082843750949750610afe9650505050505050565b60408051918252519081900360200190f35b34801561033557600080fd5b506100f2610b94565b34801561034a57600080fd5b506040805160206004803580820135601f81018490048402850184019095528484526100f29436949293602493928401919081908401838280828437509497505093359450610c529350505050565b3480156103a557600080fd5b5061014d610e52565b3480156103ba57600080fd5b5061014d610f58565b3480156103cf57600080fd5b50610317610f67565b3480156103e457600080fd5b506040805160206004803580820135601f81018490048402850184019095528484526101c2943694929360249392840191908190840183828082843750949750610fd39650505050505050565b34801561043d57600080fd5b506040805160206004803580820135601f81018490048402850184019095528484526100f294369492936024939284019190819084018382808284375094975050509235600160a060020a03169350610fe892505050565b3480156104a157600080fd5b50610317600160a060020a03600435166111d4565b3480156104c257600080fd5b506100f2600160a060020a0360043516611257565b3480156104e357600080fd5b506040805160206004803580820135601f81018490048402850184019095528484526103179436949293602493928401919081908401838280828437509497506112ca9650505050505050565b600154600160a060020a0316331461059757604080516000805160206118a7833981519152815260206004820152601960248201527f6d73672e73656e646572206d757374206265206f776e65722e00000000000000604482015290519081900360640190fd5b600160a060020a038116151561062257604080516000805160206118a7833981519152815260206004820152602d60248201527f43616e6e6f7420736574207468652050726f787920436f6e74726f6c6c65722060448201527f746f206164647265737328302900000000000000000000000000000000000000606482015290519081900360840190fd5b6000809054906101000a9004600160a060020a0316600160a060020a031663ca446dd973__ProxyControllerKeyLib_________________637ef3878d6040518163ffffffff1660e060020a02815260040160206040518083038186803b15801561068c57600080fd5b505af41580156106a0573d6000803e3d6000fd5b505050506040513d60208110156106b657600080fd5b50516040805160e060020a63ffffffff85160281526004810192909252600160a060020a038516602483015251604480830192600092919082900301818387803b15801561070357600080fd5b505af1158015610717573d6000803e3d6000fd5b5050505050565b600080546040517f0dfeade2000000000000000000000000000000000000000000000000000000008152602060048201818152855160248401528551600160a060020a03909416936321f8a7219373__StorageKeyLib_________________________93630dfeade293899390928392604490910191908501908083838d5b838110156107b557818101518382015260200161079d565b50505050905090810190601f1680156107e25780820380516001836020036101000a031916815260200191505b509250505060206040518083038186803b1580156107ff57600080fd5b505af4158015610813573d6000803e3d6000fd5b505050506040513d602081101561082957600080fd5b50516040805160e060020a63ffffffff851602815260048101929092525160248083019260209291908290030181600087803b15801561086857600080fd5b505af115801561087c573d6000803e3d6000fd5b505050506040513d602081101561089257600080fd5b505192915050565b6000806108a683610afe565b1192915050565b600054604080517fe2e3b7cc000000000000000000000000000000000000000000000000000000008152600481018490529051606092600160a060020a03169163986e791a9173__StorageKeyLib_________________________9163e2e3b7cc916024808301926020929190829003018186803b15801561092e57600080fd5b505af4158015610942573d6000803e3d6000fd5b505050506040513d602081101561095857600080fd5b50516040805160e060020a63ffffffff8516028152600481019290925251602480830192600092919082900301818387803b15801561099657600080fd5b505af11580156109aa573d6000803e3d6000fd5b505050506040513d6000823e601f3d908101601f1916820160405260208110156109d357600080fd5b8101908080516401000000008111156109eb57600080fd5b820160208101848111156109fe57600080fd5b8151640100000000811182820187101715610a1857600080fd5b50909695505050505050565b6000610a2e610e52565b600160a060020a03163314610ab857604080516000805160206118a7833981519152815260206004820152603a60248201527f4f6e6c79207468697320636f6e747261637427732027636f6e74726f6c6c657260448201527f272063616e20706572666f726d207468697320616374696f6e2e000000000000606482015290519081900360840190fd5b610ac18361089a565b15610ace57506000610af8565b610ad88383610ce4565b610ae2833361107a565b610aeb33611360565b610af4836114da565b5060015b92915050565b600080546040517ff2b57bdd000000000000000000000000000000000000000000000000000000008152602060048201818152855160248401528551600160a060020a039094169363bd02d0f59373__StorageKeyLib_________________________9363f2b57bdd93899390928392604490910191908501908083838d838110156107b557818101518382015260200161079d565b600154600160a060020a03163314610bfb57604080516000805160206118a7833981519152815260206004820152601960248201527f6d73672e73656e646572206d757374206265206f776e65722e00000000000000604482015290519081900360640190fd5b600154604051600160a060020a03909116907ff8df31144d9c2f0f6b59d69b8b98abd5459d07f2742c4df920b25aae33c6482090600090a26001805473ffffffffffffffffffffffffffffffffffffffff19169055565b610c5a610e52565b600160a060020a03163314610ce457604080516000805160206118a7833981519152815260206004820152603a60248201527f4f6e6c79207468697320636f6e747261637427732027636f6e74726f6c6c657260448201527f272063616e20706572666f726d207468697320616374696f6e2e000000000000606482015290519081900360840190fd5b600080546040517fa6912aaa000000000000000000000000000000000000000000000000000000008152602060048201818152865160248401528651600160a060020a039094169463e2a4853a9473__StorageKeyLib_________________________9463a6912aaa948a9493849360449093019291860191908190849084905b83811015610d7d578181015183820152602001610d65565b50505050905090810190601f168015610daa5780820380516001836020036101000a031916815260200191505b509250505060206040518083038186803b158015610dc757600080fd5b505af4158015610ddb573d6000803e3d6000fd5b505050506040513d6020811015610df157600080fd5b50516040805160e060020a63ffffffff851602815260048101929092526024820185905251604480830192600092919082900301818387803b158015610e3657600080fd5b505af1158015610e4a573d6000803e3d6000fd5b505050505050565b60008060009054906101000a9004600160a060020a0316600160a060020a03166321f8a72173__ProxyControllerKeyLib_________________637ef3878d6040518163ffffffff1660e060020a02815260040160206040518083038186803b158015610ebe57600080fd5b505af4158015610ed2573d6000803e3d6000fd5b505050506040513d6020811015610ee857600080fd5b50516040805160e060020a63ffffffff851602815260048101929092525160248083019260209291908290030181600087803b158015610f2757600080fd5b505af1158015610f3b573d6000803e3d6000fd5b505050506040513d6020811015610f5157600080fd5b5051905090565b600154600160a060020a031681565b60008060009054906101000a9004600160a060020a0316600160a060020a031663bd02d0f573__StorageKeyLib_________________________637805c7586040518163ffffffff1660e060020a02815260040160206040518083038186803b158015610ebe57600080fd5b6000610af88268056bc75e2d63100000610a24565b610ff0610e52565b600160a060020a0316331461107a57604080516000805160206118a7833981519152815260206004820152603a60248201527f4f6e6c79207468697320636f6e747261637427732027636f6e74726f6c6c657260448201527f272063616e20706572666f726d207468697320616374696f6e2e000000000000606482015290519081900360840190fd5b600080546040517f0dfeade2000000000000000000000000000000000000000000000000000000008152602060048201818152865160248401528651600160a060020a039094169463ca446dd99473__StorageKeyLib_________________________94630dfeade2948a9493849360449093019291860191908190849084905b838110156111135781810151838201526020016110fb565b50505050905090810190601f1680156111405780820380516001836020036101000a031916815260200191505b509250505060206040518083038186803b15801561115d57600080fd5b505af4158015611171573d6000803e3d6000fd5b505050506040513d602081101561118757600080fd5b50516040805160e060020a63ffffffff85160281526004810192909252600160a060020a038516602483015251604480830192600092919082900301818387803b158015610e3657600080fd5b60008054604080517fe61e6491000000000000000000000000000000000000000000000000000000008152600160a060020a0385811660048301529151919092169163bd02d0f59173__StorageKeyLib_________________________9163e61e6491916024808301926020929190829003018186803b1580156107ff57600080fd5b600154600160a060020a031633146112be57604080516000805160206118a7833981519152815260206004820152601960248201527f6d73672e73656e646572206d757374206265206f776e65722e00000000000000604482015290519081900360640190fd5b6112c7816117d8565b50565b600080546040517fa6912aaa000000000000000000000000000000000000000000000000000000008152602060048201818152855160248401528551600160a060020a039094169363bd02d0f59373__StorageKeyLib_________________________9363a6912aaa93899390928392604490910191908501908083838d838110156107b557818101518382015260200161079d565b600073__StorageKeyLib_________________________63e61e6491836040518263ffffffff1660e060020a0281526004018082600160a060020a0316600160a060020a0316815260200191505060206040518083038186803b1580156113c657600080fd5b505af41580156113da573d6000803e3d6000fd5b505050506040513d60208110156113f057600080fd5b505160008054604080517fbd02d0f5000000000000000000000000000000000000000000000000000000008152600481018590529051939450600160a060020a039091169263e2a4853a928592859263bd02d0f592602480840193602093929083900390910190829087803b15801561146857600080fd5b505af115801561147c573d6000803e3d6000fd5b505050506040513d602081101561149257600080fd5b50516040805160e060020a63ffffffff861602815260048101939093526001909101602483015251604480830192600092919082900301818387803b158015610e3657600080fd5b60006114e4610f67565b60010190506000809054906101000a9004600160a060020a0316600160a060020a031663e2a4853a73__StorageKeyLib_________________________637805c7586040518163ffffffff1660e060020a02815260040160206040518083038186803b15801561155357600080fd5b505af4158015611567573d6000803e3d6000fd5b505050506040513d602081101561157d57600080fd5b50516040805160e060020a63ffffffff851602815260048101929092526024820185905251604480830192600092919082900301818387803b1580156115c257600080fd5b505af11580156115d6573d6000803e3d6000fd5b5050600054604080517fe2e3b7cc000000000000000000000000000000000000000000000000000000008152600481018690529051600160a060020a039092169350636e899550925073__StorageKeyLib_________________________9163e2e3b7cc91602480820192602092909190829003018186803b15801561165b57600080fd5b505af415801561166f573d6000803e3d6000fd5b505050506040513d602081101561168557600080fd5b50516040805160e060020a63ffffffff851602815260048101838152602482019283528751604483015287518893919260640190602085019080838360005b838110156116dc5781810151838201526020016116c4565b50505050905090810190601f1680156117095780820380516001836020036101000a031916815260200191505b509350505050600060405180830381600087803b15801561172957600080fd5b505af115801561173d573d6000803e3d6000fd5b5050600080546040517ff2b57bdd000000000000000000000000000000000000000000000000000000008152602060048201818152885160248401528851600160a060020a03909416965063e2a4853a955073__StorageKeyLib_________________________9463f2b57bdd948a949293849360440192908601919081908490849083811015610d7d578181015183820152602001610d65565b600160a060020a038116151561183d57604080516000805160206118a7833981519152815260206004820152601e60248201527f5f6e65774f776e65722063616e6e6f7420626520616464726573732830290000604482015290519081900360640190fd5b600154604051600160a060020a038084169216907f8be0079c531659141344cd1fd0a4f28419497f9722a3daafe3b4186f6b6457e090600090a36001805473ffffffffffffffffffffffffffffffffffffffff1916600160a060020a0392909216919091179055560008c379a000000000000000000000000000000000000000000000000000000000a165627a7a7230582068c8039d52024ce6053856f0ea862f8ff4ed6411f47180f49af52c706cad6c1f0029",
  "source": "pragma solidity ^0.4.24;\n\nimport \"./Controllable.sol\";\nimport \"../libs/StorageKeyLib.sol\";\n\ncontract PropertyManagementV1 is Controllable {  \n    using StorageKeyLib for string; \n\n\n    /// @notice Crestes a default property with a price of 100 Ether.\n    /// @param _propertyName -The name of the property.\n    /// @dev The value is stored on the blockcahin in wei. 1 Ether = 10**18 wei\n    function createDefaultProperty(string _propertyName) public returns (bool _success) {\n        _success = createProperty(_propertyName, 10**20); // 100 Ether\n    }\n\n    /// @notice Create a property with a given name and wei cost.\n    /// @param _propertyName -The name of the property.\n    /// @param _weiCost -The cost of the property in wei.\n    /// @return bool -Return if the creation was a success \n    function createProperty(string _propertyName, uint _weiCost)\n        public\n        onlyController\n        returns (bool)\n    {\n        // The way the DB is setup, we cannot have two properties \n        //  with the same name\n        if(propertyExists(_propertyName)) return false;\n        // Initialize the property data to default values \n        _setPropertyWeiCost(_propertyName, _weiCost); \n        _setPropertyOwnerAddress(_propertyName, msg.sender);\n        _incrementOwnerPropertyCount(msg.sender);  \n        _addPropertyAndID(_propertyName);\n        return true;\n    }\n\n    /// @notice Updates total properties count and \n    ///     links the property name and id together .\n    /// @param _propertyName -The name of the property.\n    /// @dev If you choose to implement ERC721 standard, then you need a way\n    ///     to look up properties by ID. The name and id linking in this \n    ///     function allows us to do just that.  \n    function _addPropertyAndID(string _propertyName) private {\n        // NOTE: We are '1' indexing to tell if they have been init'ed or not\n        uint propertyId = getTotalPropertyCount() + 1;\n        // Update the total properties count \n        _storage.setUint(\n            StorageKeyLib.getTotalPropertiesKey(), \n            propertyId\n        );\n        // Linking propertyId to the propertyName in Eternal Storage\n        _storage.setString(\n            StorageKeyLib.getPropertyNameFromIDKey(propertyId), \n            _propertyName\n        );\n        // Linking propertyName to the propertyId in Eternal Storage\n        _storage.setUint(\n            _propertyName.getPropertyIDFromNameKey(), \n            propertyId\n        );  \n    }\n\n    /*\n\n    *** Public GETTERS\n\n    */\n    /// @notice Find if a property exists by checking it's id number\n    /// @dev We '1-indexed' the property id's so that if and id of 0 was \n    ///     returned from the database we know it has not been created yet\n    function propertyExists(string _propertyName) public view returns (bool) {\n        return (getPropertyId(_propertyName) > 0);\n    }\n\n    function getPropertyNameAtID(uint _tokenId) public view returns (string) {\n        return _storage.getString(StorageKeyLib.getPropertyNameFromIDKey(_tokenId));\n    }\n\n    function getPropertyId(string _propertyName) public view returns (uint) {\n        return _storage.getUint(_propertyName.getPropertyIDFromNameKey());\n    }\n\n    function getPropertyWeiCost(string _propertyName) public view returns (uint) {\n        return _storage.getUint(_propertyName.getCostKey());\n    }\n\n    function getPropertyOwnerAddress(string _propertyName) public view returns (address) {\n        return _storage.getAddress(_propertyName.getPropertyOwnerKey());\n    }\n\n    function getOwnerPropertyCount(address _owner) public view returns (uint) {\n        return _storage.getUint(StorageKeyLib.getOwnerPropertyCountKey(_owner));\n    }\n\n    function getTotalPropertyCount() public view returns (uint) {\n        return _storage.getUint(StorageKeyLib.getTotalPropertiesKey());\n    }\n\n    /*\n    \n    *** Public SETTERS - Only the 'Controller' can update these  *** \n\n    */\n    /// @dev In this section, only the contracts 'controller' \n    ///     can access these functions\n    function setPropertyWeiCost(string _propertyName, uint _weiCost) \n        public \n        onlyController \n    {\n        _storage.setUint(_propertyName.getCostKey(), _weiCost);\n    }\n\n    function setPropertyOwnerAddress(string _propertyName, address _address) \n        public \n        onlyController \n    {\n        _storage.setAddress(_propertyName.getPropertyOwnerKey(), _address); \n    }\n\n    /*\n    \n     *** Internal SETTERS  *** \n\n    */\n    \n    function _setPropertyWeiCost(string _propertyName, uint _weiCost) internal {\n        _storage.setUint(_propertyName.getCostKey(), _weiCost);\n    }\n\n    function _setPropertyOwnerAddress(string _propertyName, address _address) internal {\n        _storage.setAddress(_propertyName.getPropertyOwnerKey(), _address); // Set the owner as the sender\n    }\n\n    function _incrementOwnerPropertyCount(address _owner) internal {\n        bytes32 key = StorageKeyLib.getOwnerPropertyCountKey(_owner);\n        _storage.setUint(\n          key, \n          _storage.getUint(key) + 1\n        );\n    }\n\n    function _decrementOwnerPropertyCount(address _owner) internal {\n        bytes32 ownerPropertyCountKey = StorageKeyLib.getOwnerPropertyCountKey(_owner);\n        uint propertyCount = _storage.getUint(ownerPropertyCountKey);\n        require(propertyCount > 0, \"Cannot decrement property count below zero.\");\n        _storage.setUint(\n          ownerPropertyCountKey, \n          propertyCount - 1\n        );\n    }\n}",
  "sourcePath": "/Users/bryceDoganer/Solidity/Solidity_Examples/proxy-interface-react/contracts/Storage/PropertyManagementV1.sol",
  "compiler": {
    "name": "solc",
    "version": "0.4.24+commit.e67f0147.Emscripten.clang"
  },
  "schemaVersion": "2.0.1",
  "updatedAt": "2018-08-17T15:15:25.984Z"
}