{
  "contractName": "PropertyAccessControl",
  "abi": [
    {
      "constant": true,
      "inputs": [],
      "name": "CFOAddress",
      "outputs": [
        {
          "name": "",
          "type": "address"
        }
      ],
      "payable": false,
      "stateMutability": "view",
      "type": "function"
    },
    {
      "constant": true,
      "inputs": [],
      "name": "CEOAddress",
      "outputs": [
        {
          "name": "",
          "type": "address"
        }
      ],
      "payable": false,
      "stateMutability": "view",
      "type": "function"
    },
    {
      "constant": true,
      "inputs": [],
      "name": "isPaused",
      "outputs": [
        {
          "name": "",
          "type": "bool"
        }
      ],
      "payable": false,
      "stateMutability": "view",
      "type": "function"
    },
    {
      "constant": true,
      "inputs": [],
      "name": "isCEOPaused",
      "outputs": [
        {
          "name": "",
          "type": "bool"
        }
      ],
      "payable": false,
      "stateMutability": "view",
      "type": "function"
    },
    {
      "constant": true,
      "inputs": [],
      "name": "COOAddress",
      "outputs": [
        {
          "name": "",
          "type": "address"
        }
      ],
      "payable": false,
      "stateMutability": "view",
      "type": "function"
    },
    {
      "inputs": [],
      "payable": false,
      "stateMutability": "nonpayable",
      "type": "constructor"
    },
    {
      "anonymous": false,
      "inputs": [
        {
          "indexed": false,
          "name": "paused",
          "type": "bool"
        }
      ],
      "name": "Paused",
      "type": "event"
    },
    {
      "constant": false,
      "inputs": [
        {
          "name": "_newCEO",
          "type": "address"
        }
      ],
      "name": "setCEO",
      "outputs": [],
      "payable": false,
      "stateMutability": "nonpayable",
      "type": "function"
    },
    {
      "constant": false,
      "inputs": [
        {
          "name": "_newCFO",
          "type": "address"
        }
      ],
      "name": "setCFO",
      "outputs": [],
      "payable": false,
      "stateMutability": "nonpayable",
      "type": "function"
    },
    {
      "constant": false,
      "inputs": [
        {
          "name": "_newCOO",
          "type": "address"
        }
      ],
      "name": "setCOO",
      "outputs": [],
      "payable": false,
      "stateMutability": "nonpayable",
      "type": "function"
    },
    {
      "constant": false,
      "inputs": [],
      "name": "pauseCEO",
      "outputs": [],
      "payable": false,
      "stateMutability": "nonpayable",
      "type": "function"
    },
    {
      "constant": false,
      "inputs": [],
      "name": "unpauseCEO",
      "outputs": [],
      "payable": false,
      "stateMutability": "nonpayable",
      "type": "function"
    },
    {
      "constant": false,
      "inputs": [],
      "name": "pause",
      "outputs": [],
      "payable": false,
      "stateMutability": "nonpayable",
      "type": "function"
    },
    {
      "constant": false,
      "inputs": [],
      "name": "unpause",
      "outputs": [],
      "payable": false,
      "stateMutability": "nonpayable",
      "type": "function"
    }
  ],
  "bytecode": "0x60806040526000600260146101000a81548160ff0219169083151502179055506000600260156101000a81548160ff02191690831515021790555034801561004657600080fd5b50336000806101000a81548173ffffffffffffffffffffffffffffffffffffffff021916908373ffffffffffffffffffffffffffffffffffffffff1602179055506115d5806100966000396000f3006080604052600436106100ba576000357c0100000000000000000000000000000000000000000000000000000000900463ffffffff16806327d7874c146100bf578063298ad569146101025780632ba73c15146101595780633f4ba83a1461019c5780634e0a3379146101b35780635fcee7a0146101f65780638456cb591461024d578063988baa9514610264578063aeb2cebc1461027b578063b187bd2614610292578063bed51929146102c1578063d33a2cb0146102f0575b600080fd5b3480156100cb57600080fd5b50610100600480360381019080803573ffffffffffffffffffffffffffffffffffffffff169060200190929190505050610347565b005b34801561010e57600080fd5b5061011761053f565b604051808273ffffffffffffffffffffffffffffffffffffffff1673ffffffffffffffffffffffffffffffffffffffff16815260200191505060405180910390f35b34801561016557600080fd5b5061019a600480360381019080803573ffffffffffffffffffffffffffffffffffffffff169060200190929190505050610565565b005b3480156101a857600080fd5b506101b161075e565b005b3480156101bf57600080fd5b506101f4600480360381019080803573ffffffffffffffffffffffffffffffffffffffff169060200190929190505050610b16565b005b34801561020257600080fd5b5061020b610d0f565b604051808273ffffffffffffffffffffffffffffffffffffffff1673ffffffffffffffffffffffffffffffffffffffff16815260200191505060405180910390f35b34801561025957600080fd5b50610262610d34565b005b34801561027057600080fd5b5061027961100f565b005b34801561028757600080fd5b5061029061123a565b005b34801561029e57600080fd5b506102a761155d565b604051808215151515815260200191505060405180910390f35b3480156102cd57600080fd5b506102d6611570565b604051808215151515815260200191505060405180910390f35b3480156102fc57600080fd5b50610305611583565b604051808273ffffffffffffffffffffffffffffffffffffffff1673ffffffffffffffffffffffffffffffffffffffff16815260200191505060405180910390f35b6000809054906101000a900473ffffffffffffffffffffffffffffffffffffffff1673ffffffffffffffffffffffffffffffffffffffff163373ffffffffffffffffffffffffffffffffffffffff16141515610431576040517f08c379a000000000000000000000000000000000000000000000000000000000815260040180806020018281038252602b8152602001807f596f75206d757374206265207468652043454f20746f20706572666f726d207481526020017f68697320616374696f6e2e00000000000000000000000000000000000000000081525060400191505060405180910390fd5b600073ffffffffffffffffffffffffffffffffffffffff168173ffffffffffffffffffffffffffffffffffffffff16141515156104fc576040517f08c379a00000000000000000000000000000000000000000000000000000000081526004018080602001828103825260348152602001807f596f752061726520617474656d7074696e6720746f2073657420746865206e6581526020017f772043454f20746f20616464726573732830292e00000000000000000000000081525060400191505060405180910390fd5b806000806101000a81548173ffffffffffffffffffffffffffffffffffffffff021916908373ffffffffffffffffffffffffffffffffffffffff16021790555050565b600160009054906101000a900473ffffffffffffffffffffffffffffffffffffffff1681565b6000809054906101000a900473ffffffffffffffffffffffffffffffffffffffff1673ffffffffffffffffffffffffffffffffffffffff163373ffffffffffffffffffffffffffffffffffffffff1614151561064f576040517f08c379a000000000000000000000000000000000000000000000000000000000815260040180806020018281038252602b8152602001807f596f75206d757374206265207468652043454f20746f20706572666f726d207481526020017f68697320616374696f6e2e00000000000000000000000000000000000000000081525060400191505060405180910390fd5b600073ffffffffffffffffffffffffffffffffffffffff168173ffffffffffffffffffffffffffffffffffffffff161415151561071a576040517f08c379a00000000000000000000000000000000000000000000000000000000081526004018080602001828103825260348152602001807f596f752061726520617474656d7074696e6720746f2073657420746865206e6581526020017f7720434f4f20746f20616464726573732830292e00000000000000000000000081525060400191505060405180910390fd5b80600260006101000a81548173ffffffffffffffffffffffffffffffffffffffff021916908373ffffffffffffffffffffffffffffffffffffffff16021790555050565b6000809054906101000a900473ffffffffffffffffffffffffffffffffffffffff1673ffffffffffffffffffffffffffffffffffffffff163373ffffffffffffffffffffffffffffffffffffffff1614806108065750600160009054906101000a900473ffffffffffffffffffffffffffffffffffffffff1673ffffffffffffffffffffffffffffffffffffffff163373ffffffffffffffffffffffffffffffffffffffff16145b8061085e5750600260009054906101000a900473ffffffffffffffffffffffffffffffffffffffff1673ffffffffffffffffffffffffffffffffffffffff163373ffffffffffffffffffffffffffffffffffffffff16145b15156108f8576040517f08c379a00000000000000000000000000000000000000000000000000000000081526004018080602001828103825260358152602001807f596f75206d757374206265206120636f6d70616e79206f66666963657220746f81526020017f20706572666f726d207468697320616374696f6e2e000000000000000000000081525060400191505060405180910390fd5b600180156109d557600260159054906101000a900460ff1615156109d0576040517f08c379a00000000000000000000000000000000000000000000000000000000081526004018080602001828103825260548152602001807f43616e6e6f7420706572666f726d20616374696f6e206265636175736520746881526020017f6520617070206e6565647320746f20626520277061757365642720286e6f742081526020017f636f756e74696e672043454f506175736564292e00000000000000000000000081525060600191505060405180910390fd5b610a97565b600260159054906101000a900460ff16806109fc5750600260149054906101000a900460ff165b1515610a96576040517f08c379a000000000000000000000000000000000000000000000000000000000815260040180806020018281038252603e8152602001807f43616e6e6f7420706572666f726d207468697320616374696f6e20626563617581526020017f73652074686520636f6e7472616374206973206e6f74207061757365642e000081525060400191505060405180910390fd5b5b6000600260156101000a81548160ff0219169083151502179055507f0e2fb031ee032dc02d8011dc50b816eb450cf856abd8261680dac74f72165bd2600260159054906101000a900460ff1680610afa5750600260149054906101000a900460ff165b604051808215151515815260200191505060405180910390a150565b6000809054906101000a900473ffffffffffffffffffffffffffffffffffffffff1673ffffffffffffffffffffffffffffffffffffffff163373ffffffffffffffffffffffffffffffffffffffff16141515610c00576040517f08c379a000000000000000000000000000000000000000000000000000000000815260040180806020018281038252602b8152602001807f596f75206d757374206265207468652043454f20746f20706572666f726d207481526020017f68697320616374696f6e2e00000000000000000000000000000000000000000081525060400191505060405180910390fd5b600073ffffffffffffffffffffffffffffffffffffffff168173ffffffffffffffffffffffffffffffffffffffff1614151515610ccb576040517f08c379a00000000000000000000000000000000000000000000000000000000081526004018080602001828103825260348152602001807f596f752061726520617474656d7074696e6720746f2073657420746865206e6581526020017f772043464f20746f20616464726573732830292e00000000000000000000000081525060400191505060405180910390fd5b80600160006101000a81548173ffffffffffffffffffffffffffffffffffffffff021916908373ffffffffffffffffffffffffffffffffffffffff16021790555050565b6000809054906101000a900473ffffffffffffffffffffffffffffffffffffffff1681565b6000809054906101000a900473ffffffffffffffffffffffffffffffffffffffff1673ffffffffffffffffffffffffffffffffffffffff163373ffffffffffffffffffffffffffffffffffffffff161480610ddc5750600160009054906101000a900473ffffffffffffffffffffffffffffffffffffffff1673ffffffffffffffffffffffffffffffffffffffff163373ffffffffffffffffffffffffffffffffffffffff16145b80610e345750600260009054906101000a900473ffffffffffffffffffffffffffffffffffffffff1673ffffffffffffffffffffffffffffffffffffffff163373ffffffffffffffffffffffffffffffffffffffff16145b1515610ece576040517f08c379a00000000000000000000000000000000000000000000000000000000081526004018080602001828103825260358152602001807f596f75206d757374206265206120636f6d70616e79206f66666963657220746f81526020017f20706572666f726d207468697320616374696f6e2e000000000000000000000081525060400191505060405180910390fd5b600260159054906101000a900460ff168015610ef75750600260149054906101000a900460ff16155b1515610f91576040517f08c379a00000000000000000000000000000000000000000000000000000000081526004018080602001828103825260348152602001807f43616e6e6f7420706572666f726d207468697320616374696f6e207768696c6581526020017f20636f6e7472616374206973207061757365642e00000000000000000000000081525060400191505060405180910390fd5b6001600260156101000a81548160ff0219169083151502179055507f0e2fb031ee032dc02d8011dc50b816eb450cf856abd8261680dac74f72165bd2600260159054906101000a900460ff1680610ff45750600260149054906101000a900460ff165b604051808215151515815260200191505060405180910390a1565b6000809054906101000a900473ffffffffffffffffffffffffffffffffffffffff1673ffffffffffffffffffffffffffffffffffffffff163373ffffffffffffffffffffffffffffffffffffffff161415156110f9576040517f08c379a000000000000000000000000000000000000000000000000000000000815260040180806020018281038252602b8152602001807f596f75206d757374206265207468652043454f20746f20706572666f726d207481526020017f68697320616374696f6e2e00000000000000000000000000000000000000000081525060400191505060405180910390fd5b600260159054906101000a900460ff1680156111225750600260149054906101000a900460ff16155b15156111bc576040517f08c379a00000000000000000000000000000000000000000000000000000000081526004018080602001828103825260348152602001807f43616e6e6f7420706572666f726d207468697320616374696f6e207768696c6581526020017f20636f6e7472616374206973207061757365642e00000000000000000000000081525060400191505060405180910390fd5b6001600260146101000a81548160ff0219169083151502179055507f0e2fb031ee032dc02d8011dc50b816eb450cf856abd8261680dac74f72165bd2600260159054906101000a900460ff168061121f5750600260149054906101000a900460ff165b604051808215151515815260200191505060405180910390a1565b6000809054906101000a900473ffffffffffffffffffffffffffffffffffffffff1673ffffffffffffffffffffffffffffffffffffffff163373ffffffffffffffffffffffffffffffffffffffff16141515611324576040517f08c379a000000000000000000000000000000000000000000000000000000000815260040180806020018281038252602b8152602001807f596f75206d757374206265207468652043454f20746f20706572666f726d207481526020017f68697320616374696f6e2e00000000000000000000000000000000000000000081525060400191505060405180910390fd5b6000801561140157600260159054906101000a900460ff1615156113fc576040517f08c379a00000000000000000000000000000000000000000000000000000000081526004018080602001828103825260548152602001807f43616e6e6f7420706572666f726d20616374696f6e206265636175736520746881526020017f6520617070206e6565647320746f20626520277061757365642720286e6f742081526020017f636f756e74696e672043454f506175736564292e00000000000000000000000081525060600191505060405180910390fd5b6114c3565b600260159054906101000a900460ff16806114285750600260149054906101000a900460ff165b15156114c2576040517f08c379a000000000000000000000000000000000000000000000000000000000815260040180806020018281038252603e8152602001807f43616e6e6f7420706572666f726d207468697320616374696f6e20626563617581526020017f73652074686520636f6e7472616374206973206e6f74207061757365642e000081525060400191505060405180910390fd5b5b6000600260156101000a81548160ff0219169083151502179055506000600260146101000a81548160ff0219169083151502179055507f0e2fb031ee032dc02d8011dc50b816eb450cf856abd8261680dac74f72165bd2600260159054906101000a900460ff16806115415750600260149054906101000a900460ff165b604051808215151515815260200191505060405180910390a150565b600260159054906101000a900460ff1681565b600260149054906101000a900460ff1681565b600260009054906101000a900473ffffffffffffffffffffffffffffffffffffffff16815600a165627a7a72305820f61866e5d722ec3b89adeb2428b4f394dc6d1c74b04fcecd27b4733c7d6c6e9d0029",
  "source": "pragma solidity ^0.4.24;\n\n/// @title Property Access Control \n/// @author Adapted from: Axiom Zen (https://www.axiomzen.co)\ncontract PropertyAccessControl {\n    // This facet controls access control for CryptoCrests. There are four roles managed here:\n    //\n    //     - The CEO: The CEO can reassign other roles and change the addresses of our dependent smart\n    //         contracts. It is also the only role that can unpause the smart contract. It is initially\n    //         set to the address that created the smart contract in the\n    //\n    //     - The CFO: The CFO can withdraw funds from the contract.\n    //\n    //     - The COO: The COO .\n    //\n    // It should be NOTE:  that these roles are distinct without overlap in their access abilities, the\n    // abilities listed for each role above are exhaustive. In particular, while the CEO can assign any\n    // address to any role, the CEO address itself doesn't have the ability to act in those roles. This\n    // restriction is intentional so that we aren't tempted to use the CEO address frequently out of\n    // convenience. The less we use an address, the less likely it is that we somehow compromise the\n    // account.\n\n    event Paused(bool paused);\n\n    // The addresses of the accounts (or contracts) that can execute actions within each roles.\n    address public CEOAddress;\n    address public CFOAddress;\n    address public COOAddress;\n\n    // @dev Keeps track whether the contract is paused. When that is true, most actions are blocked\n    bool public isCEOPaused = false;\n    bool public isPaused = false;\n\n    /// @dev The CrestAccessControl constructor sets the original sender of the contract as the CEO\n    constructor() public {\n        CEOAddress = msg.sender;\n        // TODO: Probably need to start the app paused.\n        // TODO: start with the COO address initialized as well?\n    }\n\n    /*\n\n    Function Modifiers \n\n    */\n\n    /// @dev Access modifier for CEO-only functionality\n    modifier onlyCEO() {\n        require(\n            msg.sender == CEOAddress,\n            \"You must be the CEO to perform this action.\"\n        );\n        _;\n    }\n\n    /// @dev Access modifier for CFO-only functionality\n    modifier onlyCFO() {\n        require(\n            msg.sender == CFOAddress,\n            \"You must be the CFO to perform this action.\"    \n        );\n        _;\n    }\n\n    /// @dev Access modifier for COO-only functionality\n    modifier onlyCOO() {\n        require(\n            msg.sender == COOAddress,\n            \"You must be the COO to perform this action.\"    \n        );\n        _;\n    }\n\n    modifier onlyCLevel() {\n        require(\n            msg.sender == CEOAddress ||\n            msg.sender == CFOAddress ||\n            msg.sender == COOAddress,\n            \"You must be a company officer to perform this action.\"\n        );\n        _;\n    }\n\n    /*\n\n    External Setters \n    \n    */\n\n    /// @dev Assigns a new address to act as the CEO. Only available to the current CEO.\n    /// @param _newCEO The address of the new CEO\n    function setCEO(address _newCEO) external onlyCEO {\n        require(\n            _newCEO != address(0),\n            \"You are attempting to set the new CEO to address(0).\"\n        );\n        CEOAddress = _newCEO; \n    }\n\n    /// @dev Assigns a new address to act as the CFO. Only available to the current CEO.\n    /// @param _newCFO The address of the new CFO\n    function setCFO(address _newCFO) external onlyCEO {\n        require(\n            _newCFO != address(0),\n            \"You are attempting to set the new CFO to address(0).\"   \n        );\n        CFOAddress = _newCFO;\n    }\n\n    /// @dev Assigns a new address to act as the COO. Only available to the current CEO.\n    /// @param _newCOO The address of the new COO\n    function setCOO(address _newCOO) external onlyCEO {\n        require(\n            _newCOO != address(0),\n            \"You are attempting to set the new COO to address(0).\"    \n        );\n        COOAddress = _newCOO;\n    }\n\n\n    /*\n\n    Pause Functionality  \n\n    */\n\n    /*** Pausable functionality adapted from OpenZeppelin ***/\n    /// @dev Modifier to allow actions only when the contract IS NOT paused\n    modifier whenNotPaused() {\n        require(\n            isPaused && !isCEOPaused,\n            \"Cannot perform this action while contract is paused.\"    \n        );\n        _;\n    }\n\n    /// @dev Modifier to allow actions only when the contract IS paused\n    modifier whenPaused(bool _excludingCEOPause) {\n        if(_excludingCEOPause) {\n            require(\n                isPaused,\n                \"Cannot perform action because the app needs to be 'paused' (not counting CEOPaused).\" \n            );\n        } else {\n            require(\n                isPaused || isCEOPaused,\n                \"Cannot perform this action because the contract is not paused.\"\n            );\n        }\n        _;\n    }\n\n    /// @dev A CEO pause option that only they can unpause. \n    function pauseCEO() external onlyCEO whenNotPaused {\n        isCEOPaused = true; \n        emit Paused(isPaused || isCEOPaused);\n    }\n\n    /// @dev Unpauses the smart contract. Can only be called by the CEO, since\n    //  one reason we may pause the contract is when CFO or COO accounts are\n    //  compromised.\n    /// @notice This is public rather than external so it can be called by\n    //  derived contracts.\n    function unpauseCEO() external onlyCEO whenPaused(false) {\n        isPaused = false;\n        isCEOPaused = false; \n        emit Paused(isPaused || isCEOPaused);\n    }\n\n    // NOTE: Are we still planning on pausing the contract? \n    /// @dev When calculating faction payouts the contract will be paused to\n    // \tensure no data is updated during the payout session.\n    function pause() public onlyCLevel whenNotPaused {\n        isPaused = true;\n        emit Paused(isPaused || isCEOPaused);\n    }\n\n    /// @dev After the factions are paid the contract will resume operation.\n    function unpause() public onlyCLevel whenPaused(true) {\n        isPaused = false; \n        emit Paused(isPaused || isCEOPaused);\n    }\n\n\n}\n",
  "sourcePath": "/Users/bryceDoganer/Solidity/Solidity_Examples/proxy-interface-react/contracts/Controller/PropertyAccessControl.sol",
  "compiler": {
    "name": "solc",
    "version": "0.4.24+commit.e67f0147.Emscripten.clang"
  },
  "schemaVersion": "2.0.1",
  "updatedAt": "2018-08-13T13:54:40.418Z"
}