{
  "contractName": "PropertyControllerProxy",
  "abi": [
    {
      "constant": true,
      "inputs": [],
      "name": "_implementation",
      "outputs": [
        {
          "name": "",
          "type": "address"
        }
      ],
      "payable": false,
      "stateMutability": "view",
      "type": "function"
    },
    {
      "constant": false,
      "inputs": [],
      "name": "renounceOwnership",
      "outputs": [],
      "payable": false,
      "stateMutability": "nonpayable",
      "type": "function"
    },
    {
      "constant": true,
      "inputs": [],
      "name": "owner",
      "outputs": [
        {
          "name": "",
          "type": "address"
        }
      ],
      "payable": false,
      "stateMutability": "view",
      "type": "function"
    },
    {
      "constant": false,
      "inputs": [
        {
          "name": "_newOwner",
          "type": "address"
        }
      ],
      "name": "transferOwnership",
      "outputs": [],
      "payable": false,
      "stateMutability": "nonpayable",
      "type": "function"
    },
    {
      "payable": true,
      "stateMutability": "payable",
      "type": "fallback"
    },
    {
      "anonymous": false,
      "inputs": [
        {
          "indexed": true,
          "name": "implementation",
          "type": "address"
        }
      ],
      "name": "Upgraded",
      "type": "event"
    },
    {
      "anonymous": false,
      "inputs": [
        {
          "indexed": true,
          "name": "previousOwner",
          "type": "address"
        }
      ],
      "name": "OwnershipRenounced",
      "type": "event"
    },
    {
      "anonymous": false,
      "inputs": [
        {
          "indexed": true,
          "name": "previousOwner",
          "type": "address"
        },
        {
          "indexed": true,
          "name": "newOwner",
          "type": "address"
        }
      ],
      "name": "OwnershipTransferred",
      "type": "event"
    },
    {
      "constant": true,
      "inputs": [],
      "name": "implementation",
      "outputs": [
        {
          "name": "",
          "type": "address"
        }
      ],
      "payable": false,
      "stateMutability": "view",
      "type": "function"
    },
    {
      "constant": false,
      "inputs": [
        {
          "name": "impl",
          "type": "address"
        }
      ],
      "name": "upgradeTo",
      "outputs": [],
      "payable": false,
      "stateMutability": "nonpayable",
      "type": "function"
    }
  ],
  "bytecode": "0x6080604052336000806101000a81548173ffffffffffffffffffffffffffffffffffffffff021916908373ffffffffffffffffffffffffffffffffffffffff1602179055506109c5806100536000396000f300608060405260043610610078576000357c0100000000000000000000000000000000000000000000000000000000900463ffffffff1680633659cfe6146101ad57806359679b0f146101f05780635c60da1b14610247578063715018a61461029e5780638da5cb5b146102b5578063f2fde38b1461030c575b6000606061008461034f565b9150600073ffffffffffffffffffffffffffffffffffffffff168273ffffffffffffffffffffffffffffffffffffffff1614151515610151576040517f08c379a00000000000000000000000000000000000000000000000000000000081526004018080602001828103825260248152602001807f496d706c656d656e746174696f6e2063616e6e6f74206265206164647265737381526020017f2830292e0000000000000000000000000000000000000000000000000000000081525060400191505060405180910390fd5b6000368080601f0160208091040260200160405190810160405280939291908181526020018383808284378201915050505050509050600080825160208401855af43d604051816000823e82600081146101a9578282f35b8282fd5b3480156101b957600080fd5b506101ee600480360381019080803573ffffffffffffffffffffffffffffffffffffffff169060200190929190505050610379565b005b3480156101fc57600080fd5b506102056105b0565b604051808273ffffffffffffffffffffffffffffffffffffffff1673ffffffffffffffffffffffffffffffffffffffff16815260200191505060405180910390f35b34801561025357600080fd5b5061025c61034f565b604051808273ffffffffffffffffffffffffffffffffffffffff1673ffffffffffffffffffffffffffffffffffffffff16815260200191505060405180910390f35b3480156102aa57600080fd5b506102b36105d6565b005b3480156102c157600080fd5b506102ca610741565b604051808273ffffffffffffffffffffffffffffffffffffffff1673ffffffffffffffffffffffffffffffffffffffff16815260200191505060405180910390f35b34801561031857600080fd5b5061034d600480360381019080803573ffffffffffffffffffffffffffffffffffffffff169060200190929190505050610766565b005b6000600160009054906101000a900473ffffffffffffffffffffffffffffffffffffffff16905090565b6000809054906101000a900473ffffffffffffffffffffffffffffffffffffffff1673ffffffffffffffffffffffffffffffffffffffff163373ffffffffffffffffffffffffffffffffffffffff1614151561043d576040517f08c379a00000000000000000000000000000000000000000000000000000000081526004018080602001828103825260198152602001807f6d73672e73656e646572206d757374206265206f776e65722e0000000000000081525060200191505060405180910390fd5b8073ffffffffffffffffffffffffffffffffffffffff16600160009054906101000a900473ffffffffffffffffffffffffffffffffffffffff1673ffffffffffffffffffffffffffffffffffffffff1614151515610529576040517f08c379a00000000000000000000000000000000000000000000000000000000081526004018080602001828103825260378152602001807f4e657720696d706c656d656e746174696f6e2063616e6e6f7420657175616c2081526020017f63757272656e7420696d706c656d656e746174696f6e2e00000000000000000081525060400191505060405180910390fd5b80600160006101000a81548173ffffffffffffffffffffffffffffffffffffffff021916908373ffffffffffffffffffffffffffffffffffffffff1602179055508073ffffffffffffffffffffffffffffffffffffffff167fbc7cd75a20ee27fd9adebab32041f755214dbc6bffa90cc0225b39da2e5c2d3b60405160405180910390a250565b600160009054906101000a900473ffffffffffffffffffffffffffffffffffffffff1681565b6000809054906101000a900473ffffffffffffffffffffffffffffffffffffffff1673ffffffffffffffffffffffffffffffffffffffff163373ffffffffffffffffffffffffffffffffffffffff1614151561069a576040517f08c379a00000000000000000000000000000000000000000000000000000000081526004018080602001828103825260198152602001807f6d73672e73656e646572206d757374206265206f776e65722e0000000000000081525060200191505060405180910390fd5b6000809054906101000a900473ffffffffffffffffffffffffffffffffffffffff1673ffffffffffffffffffffffffffffffffffffffff167ff8df31144d9c2f0f6b59d69b8b98abd5459d07f2742c4df920b25aae33c6482060405160405180910390a260008060006101000a81548173ffffffffffffffffffffffffffffffffffffffff021916908373ffffffffffffffffffffffffffffffffffffffff160217905550565b6000809054906101000a900473ffffffffffffffffffffffffffffffffffffffff1681565b6000809054906101000a900473ffffffffffffffffffffffffffffffffffffffff1673ffffffffffffffffffffffffffffffffffffffff163373ffffffffffffffffffffffffffffffffffffffff1614151561082a576040517f08c379a00000000000000000000000000000000000000000000000000000000081526004018080602001828103825260198152602001807f6d73672e73656e646572206d757374206265206f776e65722e0000000000000081525060200191505060405180910390fd5b61083381610836565b50565b600073ffffffffffffffffffffffffffffffffffffffff168173ffffffffffffffffffffffffffffffffffffffff16141515156108db576040517f08c379a000000000000000000000000000000000000000000000000000000000815260040180806020018281038252601e8152602001807f5f6e65774f776e65722063616e6e6f742062652061646472657373283029000081525060200191505060405180910390fd5b8073ffffffffffffffffffffffffffffffffffffffff166000809054906101000a900473ffffffffffffffffffffffffffffffffffffffff1673ffffffffffffffffffffffffffffffffffffffff167f8be0079c531659141344cd1fd0a4f28419497f9722a3daafe3b4186f6b6457e060405160405180910390a3806000806101000a81548173ffffffffffffffffffffffffffffffffffffffff021916908373ffffffffffffffffffffffffffffffffffffffff160217905550505600a165627a7a72305820f87dea1b720121e68585abaea904839ebd5c1901df8ca93f42fc0e822197c2cc0029",
  "source": "pragma solidity ^0.4.18;\n\nimport \"../Ownable.sol\";\n\n/*\nThis article explains how this proxy works:\nhttps://medium.com/quillhash/how-to-write-upgradable-smart-contracts-in-solidity-d8f1b95a0e9a\n */\n\ncontract PropertyControllerProxy is Ownable {\n\n    // FIXME: We can't use an interface pointer because it can't be updated in interfacestate\n    // constructor(address _interfaceAddress) {\n    //     // We are setting the shared interface pointer so that the proxy can make \n    //     upgradeInterface(_interfaceAddress);\n    // }\n\n    // function upgradeInterface(address _interfaceAddress) external onlyOwner {\n    //     require(\n    //         _interfaceAddress != address(0),\n    //         \"You cannot set the interface to address(0)\"    \n    //     );\n    //     // We are setting the shared interface pointer so that the proxy can make \n    //     _storageInterface = PropertyStorageInterfaceV1(_interfaceAddress);\n    // }\n\n    event Upgraded(address indexed implementation);\n\n    address public _implementation;\n\n    function implementation() public view returns (address) {\n        return _implementation;\n    }\n\n    function upgradeTo(address impl) public onlyOwner {\n        require(\n            _implementation != impl,\n            \"New implementation cannot equal current implementation.\"\n        );\n        _implementation = impl;\n        emit Upgraded(impl);\n    }\n  \n    /*\n      \"Let break it down simply what is getting done in assembly code:\n      `delegatecall(gas, _impl, add(data, 0x20), mload(data), 0, 0);`\n\n      In above function delegate call is calling code at “_impl” address \n      with the input “add(data,0x20)” and with input memory size “mload(data)”,\n      delegate call will return 0 on error and 1 on success and result of the \n      fallback function is whatever will be returned by the called contract \n      function.\"\n    */\n    function () public payable {\n        address _impl = implementation();\n        require(\n            _impl != address(0),\n            \"Implementation cannot be address(0).\"\n        );\n        bytes memory data = msg.data;\n\n        assembly {\n          let result := delegatecall(gas, _impl, add(data, 0x20), mload(data), 0, 0)\n          let size := returndatasize\n          let ptr := mload(0x40)\n          returndatacopy(ptr, 0, size)\n          switch result\n          case 0 { revert(ptr, size) }\n          default { return(ptr, size) }\n        }\n    }\n}",
  "sourcePath": "/Users/bryceDoganer/Solidity/Solidity_Examples/proxy-interface-react/contracts/Controller/PropertyControllerProxy.sol",
  "compiler": {
    "name": "solc",
    "version": "0.4.24+commit.e67f0147.Emscripten.clang"
  },
  "schemaVersion": "2.0.1",
  "updatedAt": "2018-08-13T23:07:50.989Z"
}