{
  "contractName": "PropertyStorageProxy",
  "abi": [
    {
      "constant": true,
      "inputs": [],
      "name": "_implementation",
      "outputs": [
        {
          "name": "",
          "type": "address"
        }
      ],
      "payable": false,
      "stateMutability": "view",
      "type": "function"
    },
    {
      "constant": false,
      "inputs": [],
      "name": "renounceOwnership",
      "outputs": [],
      "payable": false,
      "stateMutability": "nonpayable",
      "type": "function"
    },
    {
      "constant": true,
      "inputs": [],
      "name": "owner",
      "outputs": [
        {
          "name": "",
          "type": "address"
        }
      ],
      "payable": false,
      "stateMutability": "view",
      "type": "function"
    },
    {
      "constant": false,
      "inputs": [
        {
          "name": "_newOwner",
          "type": "address"
        }
      ],
      "name": "transferOwnership",
      "outputs": [],
      "payable": false,
      "stateMutability": "nonpayable",
      "type": "function"
    },
    {
      "inputs": [
        {
          "name": "storage_",
          "type": "address"
        },
        {
          "name": "_proxyController",
          "type": "address"
        }
      ],
      "payable": false,
      "stateMutability": "nonpayable",
      "type": "constructor"
    },
    {
      "payable": true,
      "stateMutability": "payable",
      "type": "fallback"
    },
    {
      "anonymous": false,
      "inputs": [
        {
          "indexed": true,
          "name": "implementation",
          "type": "address"
        }
      ],
      "name": "Upgraded",
      "type": "event"
    },
    {
      "anonymous": false,
      "inputs": [
        {
          "indexed": true,
          "name": "previousOwner",
          "type": "address"
        }
      ],
      "name": "OwnershipRenounced",
      "type": "event"
    },
    {
      "anonymous": false,
      "inputs": [
        {
          "indexed": true,
          "name": "previousOwner",
          "type": "address"
        },
        {
          "indexed": true,
          "name": "newOwner",
          "type": "address"
        }
      ],
      "name": "OwnershipTransferred",
      "type": "event"
    },
    {
      "constant": true,
      "inputs": [],
      "name": "implementation",
      "outputs": [
        {
          "name": "",
          "type": "address"
        }
      ],
      "payable": false,
      "stateMutability": "view",
      "type": "function"
    },
    {
      "constant": false,
      "inputs": [
        {
          "name": "impl",
          "type": "address"
        }
      ],
      "name": "upgradeTo",
      "outputs": [],
      "payable": false,
      "stateMutability": "nonpayable",
      "type": "function"
    }
  ],
  "bytecode": "0x608060405234801561001057600080fd5b506040516040806107aa833981016040818152825160209384015160018054600160a060020a0319908116331790915560008054600160a060020a038086169190931617908190557f7ef3878d00000000000000000000000000000000000000000000000000000000865293519295919493169263ca446dd99273__ProxyControllerKeyLib_________________92637ef3878d9260048082019391829003018186803b1580156100c157600080fd5b505af41580156100d5573d6000803e3d6000fd5b505050506040513d60208110156100eb57600080fd5b5051604080517c010000000000000000000000000000000000000000000000000000000063ffffffff85160281526004810192909252600160a060020a038516602483015251604480830192600092919082900301818387803b15801561015157600080fd5b505af1158015610165573d6000803e3d6000fd5b5050505050506106308061017a6000396000f3006080604052600436106100775763ffffffff7c01000000000000000000000000000000000000000000000000000000006000350416633659cfe6811461017b57806359679b0f1461019e5780635c60da1b146101cf578063715018a6146101e45780638da5cb5b146101f9578063f2fde38b1461020e575b6000606061008361022f565b9150600160a060020a038216151561012157604080517f08c379a0000000000000000000000000000000000000000000000000000000008152602060048201526024808201527f496d706c656d656e746174696f6e2063616e6e6f74206265206164647265737360448201527f2830292e00000000000000000000000000000000000000000000000000000000606482015290519081900360840190fd5b6000368080601f0160208091040260200160405190810160405280939291908181526020018383808284378201915050505050509050600080825160208401855af43d604051816000823e828015610177578282f35b8282fd5b34801561018757600080fd5b5061019c600160a060020a036004351661023e565b005b3480156101aa57600080fd5b506101b36103b1565b60408051600160a060020a039092168252519081900360200190f35b3480156101db57600080fd5b506101b361022f565b3480156101f057600080fd5b5061019c6103c0565b34801561020557600080fd5b506101b3610490565b34801561021a57600080fd5b5061019c600160a060020a036004351661049f565b600254600160a060020a031690565b600154600160a060020a031633146102b757604080517f08c379a000000000000000000000000000000000000000000000000000000000815260206004820152601960248201527f6d73672e73656e646572206d757374206265206f776e65722e00000000000000604482015290519081900360640190fd5b600254600160a060020a038281169116141561035a57604080517f08c379a000000000000000000000000000000000000000000000000000000000815260206004820152603760248201527f4e657720696d706c656d656e746174696f6e2063616e6e6f7420657175616c2060448201527f63757272656e7420696d706c656d656e746174696f6e2e000000000000000000606482015290519081900360840190fd5b6002805473ffffffffffffffffffffffffffffffffffffffff1916600160a060020a0383169081179091556040517fbc7cd75a20ee27fd9adebab32041f755214dbc6bffa90cc0225b39da2e5c2d3b90600090a250565b600254600160a060020a031681565b600154600160a060020a0316331461043957604080517f08c379a000000000000000000000000000000000000000000000000000000000815260206004820152601960248201527f6d73672e73656e646572206d757374206265206f776e65722e00000000000000604482015290519081900360640190fd5b600154604051600160a060020a03909116907ff8df31144d9c2f0f6b59d69b8b98abd5459d07f2742c4df920b25aae33c6482090600090a26001805473ffffffffffffffffffffffffffffffffffffffff19169055565b600154600160a060020a031681565b600154600160a060020a0316331461051857604080517f08c379a000000000000000000000000000000000000000000000000000000000815260206004820152601960248201527f6d73672e73656e646572206d757374206265206f776e65722e00000000000000604482015290519081900360640190fd5b61052181610524565b50565b600160a060020a038116151561059b57604080517f08c379a000000000000000000000000000000000000000000000000000000000815260206004820152601e60248201527f5f6e65774f776e65722063616e6e6f7420626520616464726573732830290000604482015290519081900360640190fd5b600154604051600160a060020a038084169216907f8be0079c531659141344cd1fd0a4f28419497f9722a3daafe3b4186f6b6457e090600090a36001805473ffffffffffffffffffffffffffffffffffffffff1916600160a060020a03929092169190911790555600a165627a7a7230582008eca9e8d24172766efb821f868215a03c4cf96f064354f56637d66396fec9870029",
  "source": "pragma solidity ^0.4.18;\n\nimport \"../Ownable.sol\";\nimport \"./StorageState.sol\";\nimport \"../libs/ProxyControllerKeyLib.sol\";\n\n/*\n * This article explains how this proxy works:\n * https://medium.com/quillhash/how-to-write-upgradable-smart-contracts-in-solidity-d8f1b95a0e9a\n */\n\n/// @title Property Storage Proxy\n/// @author Adapted from Quillhash/upgradeableToken \n/// @notice This proxy 'leeches' onto another contract and handles calls to \n///   that contract as if this was the same contract. \n/// @dev Even though the calls are being made to the 'leeched' contract,\n///   the address sent is the address of the proxy. Funds are also stored in this \n///   proxy contract.\ncontract PropertyStorageProxy is StorageState, Ownable {\n   \n    constructor(EternalStorage storage_, address _proxyController) public {\n    // constructor(EternalStorage storage_) public {\n        _storage = storage_;\n        // _proxyController is the address of the proxy that handles \n        _storage.setAddress(\n            ProxyControllerKeyLib.getProxyControllerKey(), \n            _proxyController\n        );\n    }\n\n    event Upgraded(address indexed implementation);\n\n    /// @notice The implementation address of the 'leeched' contract\n    address public _implementation;\n\n    /// @notice Gets the current implementation address\n    function implementation() public view returns (address) {\n        return _implementation;\n    }\n\n    /// @notice Allows the owner to change the implementaion address\n    ///   to the next version of the 'leeched' contract.\n    /// @param impl -The address of the upgraded 'leeched' contract \n    function upgradeTo(address impl) public onlyOwner {\n        require(\n            _implementation != impl,\n            \"New implementation cannot equal current implementation.\"\n        );\n        _implementation = impl;\n        emit Upgraded(impl);\n    }\n  \n    /// @notice This is where the magic happens. Using `delegatecall()` \n    ///   we are able to make calls to the 'leeched' contract\n    function () public payable {\n        address _impl = implementation();\n        require(\n            _impl != address(0),\n            \"Implementation cannot be address(0).\"\n        );\n        bytes memory data = msg.data;\n\n        /*\n        \"Let's break down this function:\n        `delegatecall(gas, _impl, add(data, 0x20), mload(data), 0, 0);`\n\n        In this function, delegate call is calling code at “_impl” address \n        with the input “add(data,0x20)” and with input memory size “mload(data)”,\n        delegate call will return 0 on error and 1 on success and result of the \n        fallback function is whatever will be returned by the called contract \n        function.\"\n        */\n        assembly {\n            let result := delegatecall(gas, _impl, add(data, 0x20), mload(data), 0, 0)\n            let size := returndatasize\n            let ptr := mload(0x40)\n            returndatacopy(ptr, 0, size)\n            switch result\n            case 0 { revert(ptr, size) }\n            default { return(ptr, size) }\n        }\n    }\n}",
  "sourcePath": "/Users/bryceDoganer/Solidity/Solidity_Examples/proxy-interface-react/contracts/Storage/PropertyStorageProxy.sol",
  "compiler": {
    "name": "solc",
    "version": "0.4.24+commit.e67f0147.Emscripten.clang"
  },
  "schemaVersion": "2.0.1",
  "updatedAt": "2018-10-08T23:21:01.897Z"
}