{
  "contractName": "PropertyManagementV1",
  "abi": [
    {
      "constant": false,
      "inputs": [
        {
          "name": "_proxyController",
          "type": "address"
        }
      ],
      "name": "setProxyControllerAddress",
      "outputs": [],
      "payable": false,
      "stateMutability": "nonpayable",
      "type": "function"
    },
    {
      "constant": true,
      "inputs": [],
      "name": "getProxyControllerAddress",
      "outputs": [
        {
          "name": "",
          "type": "address"
        }
      ],
      "payable": false,
      "stateMutability": "view",
      "type": "function"
    },
    {
      "constant": false,
      "inputs": [
        {
          "name": "_propertyName",
          "type": "string"
        }
      ],
      "name": "createDefaultProperty",
      "outputs": [],
      "payable": false,
      "stateMutability": "nonpayable",
      "type": "function"
    },
    {
      "constant": false,
      "inputs": [
        {
          "name": "_propertyName",
          "type": "string"
        },
        {
          "name": "_cost",
          "type": "uint256"
        }
      ],
      "name": "createProperty",
      "outputs": [],
      "payable": false,
      "stateMutability": "nonpayable",
      "type": "function"
    },
    {
      "constant": true,
      "inputs": [
        {
          "name": "_tokenId",
          "type": "uint256"
        }
      ],
      "name": "getPropertyNameAtID",
      "outputs": [
        {
          "name": "",
          "type": "string"
        }
      ],
      "payable": false,
      "stateMutability": "view",
      "type": "function"
    },
    {
      "constant": true,
      "inputs": [
        {
          "name": "_propertyName",
          "type": "string"
        }
      ],
      "name": "getPropertyId",
      "outputs": [
        {
          "name": "",
          "type": "uint256"
        }
      ],
      "payable": false,
      "stateMutability": "view",
      "type": "function"
    },
    {
      "constant": true,
      "inputs": [
        {
          "name": "_propertyName",
          "type": "string"
        }
      ],
      "name": "getPropertyWeiCost",
      "outputs": [
        {
          "name": "",
          "type": "uint256"
        }
      ],
      "payable": false,
      "stateMutability": "view",
      "type": "function"
    },
    {
      "constant": true,
      "inputs": [
        {
          "name": "_propertyName",
          "type": "string"
        }
      ],
      "name": "getPropertyOwnerAddress",
      "outputs": [
        {
          "name": "",
          "type": "address"
        }
      ],
      "payable": false,
      "stateMutability": "view",
      "type": "function"
    },
    {
      "constant": true,
      "inputs": [
        {
          "name": "_owner",
          "type": "address"
        }
      ],
      "name": "getOwnerPropertyCount",
      "outputs": [
        {
          "name": "",
          "type": "uint256"
        }
      ],
      "payable": false,
      "stateMutability": "view",
      "type": "function"
    },
    {
      "constant": true,
      "inputs": [],
      "name": "getTotalPropertyCount",
      "outputs": [
        {
          "name": "",
          "type": "uint256"
        }
      ],
      "payable": false,
      "stateMutability": "view",
      "type": "function"
    },
    {
      "constant": false,
      "inputs": [
        {
          "name": "_propertyName",
          "type": "string"
        },
        {
          "name": "_weiCost",
          "type": "uint256"
        }
      ],
      "name": "setPropertyWeiCost",
      "outputs": [],
      "payable": false,
      "stateMutability": "nonpayable",
      "type": "function"
    },
    {
      "constant": false,
      "inputs": [
        {
          "name": "_propertyName",
          "type": "string"
        },
        {
          "name": "_address",
          "type": "address"
        }
      ],
      "name": "setPropertyOwnerAddress",
      "outputs": [],
      "payable": false,
      "stateMutability": "nonpayable",
      "type": "function"
    }
  ],
  "bytecode": "0x608060405234801561001057600080fd5b5061236a806100206000396000f3006080604052600436106100ba576000357c0100000000000000000000000000000000000000000000000000000000900463ffffffff1680630dc8bde1146100bf578063224b5dd8146101025780634f3c374e146101ab5780635a6368ef1461025157806364789ebb146102c45780638733b0f5146103415780638bb09852146103b4578063a55201971461040b578063b083075114610436578063be1cf1811461049f578063d79fb4ff14610528578063fb3b2afc1461057f575b600080fd5b3480156100cb57600080fd5b50610100600480360381019080803573ffffffffffffffffffffffffffffffffffffffff1690602001909291905050506105fc565b005b34801561010e57600080fd5b50610169600480360381019080803590602001908201803590602001908080601f0160208091040260200160405190810160405280939291908181526020018383808284378201915050505050509192919290505050610848565b604051808273ffffffffffffffffffffffffffffffffffffffff1673ffffffffffffffffffffffffffffffffffffffff16815260200191505060405180910390f35b3480156101b757600080fd5b506101d660048036038101908080359060200190929190505050610a30565b6040518080602001828103825283818151815260200191508051906020019080838360005b838110156102165780820151818401526020810190506101fb565b50505050905090810190601f1680156102435780820380516001836020036101000a031916815260200191505b509250505060405180910390f35b34801561025d57600080fd5b506102c2600480360381019080803590602001908201803590602001908080601f016020809104026020016040519081016040528093929190818152602001838380828437820191505050505050919291929080359060200190929190505050610c07565b005b3480156102d057600080fd5b5061032b600480360381019080803590602001908201803590602001908080601f0160208091040260200160405190810160405280939291908181526020018383808284378201915050505050509192919290505050610df9565b6040518082815260200191505060405180910390f35b34801561034d57600080fd5b506103b2600480360381019080803590602001908201803590602001908080601f016020809104026020016040519081016040528093929190818152602001838380828437820191505050505050919291929080359060200190929190505050610fe1565b005b3480156103c057600080fd5b506103c96110bf565b604051808273ffffffffffffffffffffffffffffffffffffffff1673ffffffffffffffffffffffffffffffffffffffff16815260200191505060405180910390f35b34801561041757600080fd5b50610420611233565b6040518082815260200191505060405180910390f35b34801561044257600080fd5b5061049d600480360381019080803590602001908201803590602001908080601f01602080910402602001604051908101604052809392919081815260200183838082843782019150505050505091929192905050506113a7565b005b3480156104ab57600080fd5b50610526600480360381019080803590602001908201803590602001908080601f0160208091040260200160405190810160405280939291908181526020018383808284378201915050505050509192919290803573ffffffffffffffffffffffffffffffffffffffff1690602001909291905050506113bd565b005b34801561053457600080fd5b50610569600480360381019080803573ffffffffffffffffffffffffffffffffffffffff16906020019092919050505061149b565b6040518082815260200191505060405180910390f35b34801561058b57600080fd5b506105e6600480360381019080803590602001908201803590602001908080601f0160208091040260200160405190810160405280939291908181526020018383808284378201915050505050509192919290505050611648565b6040518082815260200191505060405180910390f35b600073ffffffffffffffffffffffffffffffffffffffff168173ffffffffffffffffffffffffffffffffffffffff16141515156106c7576040517f08c379a000000000000000000000000000000000000000000000000000000000815260040180806020018281038252602d8152602001807f43616e6e6f7420736574207468652050726f787920436f6e74726f6c6c65722081526020017f746f20616464726573732830290000000000000000000000000000000000000081525060400191505060405180910390fd5b6000809054906101000a900473ffffffffffffffffffffffffffffffffffffffff1673ffffffffffffffffffffffffffffffffffffffff1663ca446dd973__ProxyControllerKeyLib_________________637ef3878d6040518163ffffffff167c010000000000000000000000000000000000000000000000000000000002815260040160206040518083038186803b15801561076457600080fd5b505af4158015610778573d6000803e3d6000fd5b505050506040513d602081101561078e57600080fd5b8101908080519060200190929190505050836040518363ffffffff167c01000000000000000000000000000000000000000000000000000000000281526004018083600019166000191681526020018273ffffffffffffffffffffffffffffffffffffffff1673ffffffffffffffffffffffffffffffffffffffff16815260200192505050600060405180830381600087803b15801561082d57600080fd5b505af1158015610841573d6000803e3d6000fd5b5050505050565b60008060009054906101000a900473ffffffffffffffffffffffffffffffffffffffff1673ffffffffffffffffffffffffffffffffffffffff166321f8a7218373__StorageKeyLib_________________________630dfeade290916040518263ffffffff167c01000000000000000000000000000000000000000000000000000000000281526004018080602001828103825283818151815260200191508051906020019080838360005b8381101561090f5780820151818401526020810190506108f4565b50505050905090810190601f16801561093c5780820380516001836020036101000a031916815260200191505b509250505060206040518083038186803b15801561095957600080fd5b505af415801561096d573d6000803e3d6000fd5b505050506040513d602081101561098357600080fd5b81019080805190602001909291905050506040518263ffffffff167c0100000000000000000000000000000000000000000000000000000000028152600401808260001916600019168152602001915050602060405180830381600087803b1580156109ee57600080fd5b505af1158015610a02573d6000803e3d6000fd5b505050506040513d6020811015610a1857600080fd5b81019080805190602001909291905050509050919050565b60606000809054906101000a900473ffffffffffffffffffffffffffffffffffffffff1673ffffffffffffffffffffffffffffffffffffffff1663986e791a73__StorageKeyLib_________________________63e2e3b7cc856040518263ffffffff167c01000000000000000000000000000000000000000000000000000000000281526004018082815260200191505060206040518083038186803b158015610ada57600080fd5b505af4158015610aee573d6000803e3d6000fd5b505050506040513d6020811015610b0457600080fd5b81019080805190602001909291905050506040518263ffffffff167c0100000000000000000000000000000000000000000000000000000000028152600401808260001916600019168152602001915050600060405180830381600087803b158015610b6f57600080fd5b505af1158015610b83573d6000803e3d6000fd5b505050506040513d6000823e3d601f19601f820116820180604052506020811015610bad57600080fd5b810190808051640100000000811115610bc557600080fd5b82810190506020810184811115610bdb57600080fd5b8151856001820283011164010000000082111715610bf857600080fd5b50509291905050509050919050565b6000610c116110bf565b73ffffffffffffffffffffffffffffffffffffffff163373ffffffffffffffffffffffffffffffffffffffff16141515610cd9576040517f08c379a000000000000000000000000000000000000000000000000000000000815260040180806020018281038252603a8152602001807f4f6e6c79207468697320636f6e747261637427732027636f6e74726f6c6c657281526020017f272063616e20706572666f726d207468697320616374696f6e2e00000000000081525060400191505060405180910390fd5b610ce283610df9565b9050600081141515610dce576040517f08c379a00000000000000000000000000000000000000000000000000000000081526004018080602001828103825260638152602001807f43616e6e6f74206372656174652061206e65772050726f70657274792077697481526020017f682074686973206e616d652e205468657265206170706561727320746f20616c81526020017f726561647920626520612070726f706572747920776974682074686174206e6181526020017f6d652e000000000000000000000000000000000000000000000000000000000081525060800191505060405180910390fd5b610dd88383611830565b610de283336119f8565b610deb33611bec565b610df483611e53565b505050565b60008060009054906101000a900473ffffffffffffffffffffffffffffffffffffffff1673ffffffffffffffffffffffffffffffffffffffff1663bd02d0f58373__StorageKeyLib_________________________63f2b57bdd90916040518263ffffffff167c01000000000000000000000000000000000000000000000000000000000281526004018080602001828103825283818151815260200191508051906020019080838360005b83811015610ec0578082015181840152602081019050610ea5565b50505050905090810190601f168015610eed5780820380516001836020036101000a031916815260200191505b509250505060206040518083038186803b158015610f0a57600080fd5b505af4158015610f1e573d6000803e3d6000fd5b505050506040513d6020811015610f3457600080fd5b81019080805190602001909291905050506040518263ffffffff167c0100000000000000000000000000000000000000000000000000000000028152600401808260001916600019168152602001915050602060405180830381600087803b158015610f9f57600080fd5b505af1158015610fb3573d6000803e3d6000fd5b505050506040513d6020811015610fc957600080fd5b81019080805190602001909291905050509050919050565b610fe96110bf565b73ffffffffffffffffffffffffffffffffffffffff163373ffffffffffffffffffffffffffffffffffffffff161415156110b1576040517f08c379a000000000000000000000000000000000000000000000000000000000815260040180806020018281038252603a8152602001807f4f6e6c79207468697320636f6e747261637427732027636f6e74726f6c6c657281526020017f272063616e20706572666f726d207468697320616374696f6e2e00000000000081525060400191505060405180910390fd5b6110bb8282611830565b5050565b60008060009054906101000a900473ffffffffffffffffffffffffffffffffffffffff1673ffffffffffffffffffffffffffffffffffffffff166321f8a72173__ProxyControllerKeyLib_________________637ef3878d6040518163ffffffff167c010000000000000000000000000000000000000000000000000000000002815260040160206040518083038186803b15801561115e57600080fd5b505af4158015611172573d6000803e3d6000fd5b505050506040513d602081101561118857600080fd5b81019080805190602001909291905050506040518263ffffffff167c0100000000000000000000000000000000000000000000000000000000028152600401808260001916600019168152602001915050602060405180830381600087803b1580156111f357600080fd5b505af1158015611207573d6000803e3d6000fd5b505050506040513d602081101561121d57600080fd5b8101908080519060200190929190505050905090565b60008060009054906101000a900473ffffffffffffffffffffffffffffffffffffffff1673ffffffffffffffffffffffffffffffffffffffff1663bd02d0f573__StorageKeyLib_________________________6318240f496040518163ffffffff167c010000000000000000000000000000000000000000000000000000000002815260040160206040518083038186803b1580156112d257600080fd5b505af41580156112e6573d6000803e3d6000fd5b505050506040513d60208110156112fc57600080fd5b81019080805190602001909291905050506040518263ffffffff167c0100000000000000000000000000000000000000000000000000000000028152600401808260001916600019168152602001915050602060405180830381600087803b15801561136757600080fd5b505af115801561137b573d6000803e3d6000fd5b505050506040513d602081101561139157600080fd5b8101908080519060200190929190505050905090565b6113ba8168056bc75e2d63100000610c07565b50565b6113c56110bf565b73ffffffffffffffffffffffffffffffffffffffff163373ffffffffffffffffffffffffffffffffffffffff1614151561148d576040517f08c379a000000000000000000000000000000000000000000000000000000000815260040180806020018281038252603a8152602001807f4f6e6c79207468697320636f6e747261637427732027636f6e74726f6c6c657281526020017f272063616e20706572666f726d207468697320616374696f6e2e00000000000081525060400191505060405180910390fd5b61149782826119f8565b5050565b60008060009054906101000a900473ffffffffffffffffffffffffffffffffffffffff1673ffffffffffffffffffffffffffffffffffffffff1663bd02d0f573__StorageKeyLib_________________________63e61e6491856040518263ffffffff167c0100000000000000000000000000000000000000000000000000000000028152600401808273ffffffffffffffffffffffffffffffffffffffff1673ffffffffffffffffffffffffffffffffffffffff16815260200191505060206040518083038186803b15801561157157600080fd5b505af4158015611585573d6000803e3d6000fd5b505050506040513d602081101561159b57600080fd5b81019080805190602001909291905050506040518263ffffffff167c0100000000000000000000000000000000000000000000000000000000028152600401808260001916600019168152602001915050602060405180830381600087803b15801561160657600080fd5b505af115801561161a573d6000803e3d6000fd5b505050506040513d602081101561163057600080fd5b81019080805190602001909291905050509050919050565b60008060009054906101000a900473ffffffffffffffffffffffffffffffffffffffff1673ffffffffffffffffffffffffffffffffffffffff1663bd02d0f58373__StorageKeyLib_________________________63a6912aaa90916040518263ffffffff167c01000000000000000000000000000000000000000000000000000000000281526004018080602001828103825283818151815260200191508051906020019080838360005b8381101561170f5780820151818401526020810190506116f4565b50505050905090810190601f16801561173c5780820380516001836020036101000a031916815260200191505b509250505060206040518083038186803b15801561175957600080fd5b505af415801561176d573d6000803e3d6000fd5b505050506040513d602081101561178357600080fd5b81019080805190602001909291905050506040518263ffffffff167c0100000000000000000000000000000000000000000000000000000000028152600401808260001916600019168152602001915050602060405180830381600087803b1580156117ee57600080fd5b505af1158015611802573d6000803e3d6000fd5b505050506040513d602081101561181857600080fd5b81019080805190602001909291905050509050919050565b6000809054906101000a900473ffffffffffffffffffffffffffffffffffffffff1673ffffffffffffffffffffffffffffffffffffffff1663e2a4853a8373__StorageKeyLib_________________________63a6912aaa90916040518263ffffffff167c01000000000000000000000000000000000000000000000000000000000281526004018080602001828103825283818151815260200191508051906020019080838360005b838110156118f55780820151818401526020810190506118da565b50505050905090810190601f1680156119225780820380516001836020036101000a031916815260200191505b509250505060206040518083038186803b15801561193f57600080fd5b505af4158015611953573d6000803e3d6000fd5b505050506040513d602081101561196957600080fd5b8101908080519060200190929190505050836040518363ffffffff167c010000000000000000000000000000000000000000000000000000000002815260040180836000191660001916815260200182815260200192505050600060405180830381600087803b1580156119dc57600080fd5b505af11580156119f0573d6000803e3d6000fd5b505050505050565b6000809054906101000a900473ffffffffffffffffffffffffffffffffffffffff1673ffffffffffffffffffffffffffffffffffffffff1663ca446dd98373__StorageKeyLib_________________________630dfeade290916040518263ffffffff167c01000000000000000000000000000000000000000000000000000000000281526004018080602001828103825283818151815260200191508051906020019080838360005b83811015611abd578082015181840152602081019050611aa2565b50505050905090810190601f168015611aea5780820380516001836020036101000a031916815260200191505b509250505060206040518083038186803b158015611b0757600080fd5b505af4158015611b1b573d6000803e3d6000fd5b505050506040513d6020811015611b3157600080fd5b8101908080519060200190929190505050836040518363ffffffff167c01000000000000000000000000000000000000000000000000000000000281526004018083600019166000191681526020018273ffffffffffffffffffffffffffffffffffffffff1673ffffffffffffffffffffffffffffffffffffffff16815260200192505050600060405180830381600087803b158015611bd057600080fd5b505af1158015611be4573d6000803e3d6000fd5b505050505050565b600073__StorageKeyLib_________________________63e61e6491836040518263ffffffff167c0100000000000000000000000000000000000000000000000000000000028152600401808273ffffffffffffffffffffffffffffffffffffffff1673ffffffffffffffffffffffffffffffffffffffff16815260200191505060206040518083038186803b158015611c8557600080fd5b505af4158015611c99573d6000803e3d6000fd5b505050506040513d6020811015611caf57600080fd5b810190808051906020019092919050505090506000809054906101000a900473ffffffffffffffffffffffffffffffffffffffff1673ffffffffffffffffffffffffffffffffffffffff1663e2a4853a8260016000809054906101000a900473ffffffffffffffffffffffffffffffffffffffff1673ffffffffffffffffffffffffffffffffffffffff1663bd02d0f5866040518263ffffffff167c0100000000000000000000000000000000000000000000000000000000028152600401808260001916600019168152602001915050602060405180830381600087803b158015611d9a57600080fd5b505af1158015611dae573d6000803e3d6000fd5b505050506040513d6020811015611dc457600080fd5b8101908080519060200190929190505050016040518363ffffffff167c010000000000000000000000000000000000000000000000000000000002815260040180836000191660001916815260200182815260200192505050600060405180830381600087803b158015611e3757600080fd5b505af1158015611e4b573d6000803e3d6000fd5b505050505050565b60006001611e5f611233565b0190506000809054906101000a900473ffffffffffffffffffffffffffffffffffffffff1673ffffffffffffffffffffffffffffffffffffffff1663e2a4853a73__StorageKeyLib_________________________6318240f496040518163ffffffff167c010000000000000000000000000000000000000000000000000000000002815260040160206040518083038186803b158015611eff57600080fd5b505af4158015611f13573d6000803e3d6000fd5b505050506040513d6020811015611f2957600080fd5b8101908080519060200190929190505050836040518363ffffffff167c010000000000000000000000000000000000000000000000000000000002815260040180836000191660001916815260200182815260200192505050600060405180830381600087803b158015611f9c57600080fd5b505af1158015611fb0573d6000803e3d6000fd5b505050506000809054906101000a900473ffffffffffffffffffffffffffffffffffffffff1673ffffffffffffffffffffffffffffffffffffffff16636e89955073__StorageKeyLib_________________________63e2e3b7cc846040518263ffffffff167c01000000000000000000000000000000000000000000000000000000000281526004018082815260200191505060206040518083038186803b15801561205c57600080fd5b505af4158015612070573d6000803e3d6000fd5b505050506040513d602081101561208657600080fd5b8101908080519060200190929190505050846040518363ffffffff167c010000000000000000000000000000000000000000000000000000000002815260040180836000191660001916815260200180602001828103825283818151815260200191508051906020019080838360005b838110156121115780820151818401526020810190506120f6565b50505050905090810190601f16801561213e5780820380516001836020036101000a031916815260200191505b509350505050600060405180830381600087803b15801561215e57600080fd5b505af1158015612172573d6000803e3d6000fd5b505050506000809054906101000a900473ffffffffffffffffffffffffffffffffffffffff1673ffffffffffffffffffffffffffffffffffffffff1663e2a4853a8373__StorageKeyLib_________________________63f2b57bdd90916040518263ffffffff167c01000000000000000000000000000000000000000000000000000000000281526004018080602001828103825283818151815260200191508051906020019080838360005b8381101561223b578082015181840152602081019050612220565b50505050905090810190601f1680156122685780820380516001836020036101000a031916815260200191505b509250505060206040518083038186803b15801561228557600080fd5b505af4158015612299573d6000803e3d6000fd5b505050506040513d60208110156122af57600080fd5b8101908080519060200190929190505050836040518363ffffffff167c010000000000000000000000000000000000000000000000000000000002815260040180836000191660001916815260200182815260200192505050600060405180830381600087803b15801561232257600080fd5b505af1158015612336573d6000803e3d6000fd5b5050505050505600a165627a7a72305820afabf9bfe48c6ae49c7e52b78c5ed183f8a6b0d9d56da84d54b7a6a31553f2770029",
  "source": "pragma solidity ^0.4.24;\n\nimport \"./Controllable.sol\";\nimport \"../libs/StorageKeyLib.sol\";\n\ncontract PropertyManagementV1 is Controllable {  \n    using StorageKeyLib for string; \n\n    //// @dev Create a default property with a starting price\n    function createDefaultProperty(string _propertyName)\n        public\n    {\n        createProperty(\n            _propertyName, \n            10**20 // 100 Ether\n        );\n    }\n\n    // TEST: Updated this method for the new storage system\n    function createProperty(string _propertyName, uint _cost)\n        public\n        onlyController // NOTE: apparently I'm supposed to 'fix the COO logic?'\n    {\n      // Check to see if there is a value initialized on the shield, if so \n      //  then this Property has already been created.\n        uint propertyId = getPropertyId(_propertyName);\n        require(\n            propertyId == 0, \n            \"Cannot create a new Property with this name. There appears to already be a property with that name.\"\n        );\n        // Initialize the property data to default values \n        _setPropertyWeiCost(_propertyName, _cost); \n        _setPropertyOwnerAddress(_propertyName, msg.sender);\n        _incrementOwnerPropertyCount(msg.sender);\n        _addPropertyAndID(_propertyName);\n\n        // FIXME: Need to reimplement this method (Possibly in a nother countract))\n        // _increaseFactionPower(id);\n    }\n\n    // NOTE: We are one indexing the propertys to more easily see\n    //  if they exist or not. \n    function _addPropertyAndID(string _propertyName) private {\n        uint propertyId = getTotalPropertyCount() + 1;\n        // Update the total propertys count \n        _storage.setUint(\n            StorageKeyLib.getTotalPropertysKey(), \n            propertyId\n        );\n        // Linking propertyId to the propertyName in Eternal Storage\n        _storage.setString(\n            StorageKeyLib.getPropertyNameFromIDKey(propertyId), \n            _propertyName\n        );\n        // Linking propertyName to the propertyId  in Eternal Storage\n        _storage.setUint(\n            _propertyName.getPropertyIDFromNameKey(), \n            propertyId\n        );  \n    }\n\n    function getPropertyNameAtID(uint _tokenId) public view returns (string) {\n        return _storage.getString(StorageKeyLib.getPropertyNameFromIDKey(_tokenId));\n    }\n\n    function getPropertyId(string _propertyName) public view returns (uint) {\n        return _storage.getUint(_propertyName.getPropertyIDFromNameKey());\n    }\n\n    // TEST: Test all of the 'get' logic \n    function getPropertyWeiCost(string _propertyName) public view returns (uint) {\n        return _storage.getUint(_propertyName.getCostKey());\n    }\n\n    function getPropertyOwnerAddress(string _propertyName) public view returns (address) {\n        return _storage.getAddress(_propertyName.getPropertyOwnerKey());\n    }\n\n    function getOwnerPropertyCount(address _owner) public view returns (uint) {\n        return _storage.getUint(StorageKeyLib.getOwnerPropertyCountKey(_owner));\n    }\n\n    function getTotalPropertyCount() public view returns (uint) {\n        return _storage.getUint(StorageKeyLib.getTotalPropertysKey());\n    }\n\n    // TEST: All these setters are new along with the new storage schema\n    // *** Public SETTERS - Only the 'Controller' can update these  *** \n    function setPropertyWeiCost(string _propertyName, uint _weiCost) public onlyController {\n        _setPropertyWeiCost(_propertyName, _weiCost);\n    }\n\n    function setPropertyOwnerAddress(string _propertyName, address _address) public onlyController {\n        _setPropertyOwnerAddress(_propertyName, _address); // Set the owner as the sender\n    }\n\n    // *** Internal SETTERS  *** \n    function _setPropertyWeiCost(string _propertyName, uint _weiCost) internal {\n        _storage.setUint(_propertyName.getCostKey(), _weiCost);\n    }\n\n    function _setPropertyOwnerAddress(string _propertyName, address _address) internal {\n        _storage.setAddress(_propertyName.getPropertyOwnerKey(), _address); // Set the owner as the sender\n    }\n\n    function _incrementOwnerPropertyCount(address _owner) internal {\n        bytes32 key = StorageKeyLib.getOwnerPropertyCountKey(_owner);\n        _storage.setUint(\n          key, \n          _storage.getUint(key) + 1\n        );\n    }\n\n    function _decrementOwnerPropertyCount(address _owner) internal {\n        bytes32 ownerPropertyCountKey = StorageKeyLib.getOwnerPropertyCountKey(_owner);\n        uint propertyCount = _storage.getUint(ownerPropertyCountKey);\n        require(propertyCount > 0, \"Cannot decrement property count below zero.\");\n        _storage.setUint(\n          ownerPropertyCountKey, \n          propertyCount - 1\n        );\n    }\n\n    // Need to look through these functions to see which ones need reimplementation \n    // // FIXME: probably deleting this function\n    // function getFactionPowerLevelAddress(uint _index) public view returns (address _addresse) {\n    //     return factionPowerLevelAddresses[_index];\n    // }\n}",
  "sourcePath": "/Users/bryceDoganer/Solidity/Solidity_Examples/proxy-interface-react/contracts/Storage/PropertyManagementV1.sol",
  "compiler": {
    "name": "solc",
    "version": "0.4.24+commit.e67f0147.Emscripten.clang"
  },
  "schemaVersion": "2.0.1",
  "updatedAt": "2018-08-13T14:04:21.725Z"
}