{
  "contractName": "ProxyControllerKeyLib",
  "abi": [
    {
      "constant": true,
      "inputs": [],
      "name": "getProxyControllerKey",
      "outputs": [
        {
          "name": "",
          "type": "bytes32"
        }
      ],
      "payable": false,
      "stateMutability": "pure",
      "type": "function"
    }
  ],
  "bytecode": "0x610158610030600b82828239805160001a6073146000811461002057610022565bfe5b5030600052607381538281f3007300000000000000000000000000000000000000003014608060405260043610610058576000357c0100000000000000000000000000000000000000000000000000000000900463ffffffff1680637ef3878d1461005d575b600080fd5b610065610083565b60405180826000191660001916815260200191505060405180910390f35b600060405160200180807f50524f58595f434f4e54524f4c4c45520000000000000000000000000000000081525060100190506040516020818303038152906040526040518082805190602001908083835b6020831015156100fa57805182526020820191506020810190506020830392506100d5565b6001836020036101000a03801982511681845116808217855250505050505090500191505060405180910390209050905600a165627a7a7230582068132d041a24a7b46d6da1c845fcb039ecbf3d8627c4db7994c59e4abdc890e20029",
  "source": "pragma solidity ^0.4.18;\n\n/**\n * @title ProxyControllerKeyLib\n * @dev Computes Keys to create and lookup values in Enternal Storage \n */\nlibrary ProxyControllerKeyLib {\n    /* \n\n    Proxy Controller Key\n\n    */\n\n    function getProxyControllerKey() public pure returns (bytes32) {\n        return keccak256(abi.encodePacked(\"PROXY_CONTROLLER\"));\n    }\n}",
  "sourcePath": "/Users/bryceDoganer/Solidity/Solidity_Examples/proxy-interface-react/contracts/libs/ProxyControllerKeyLib.sol",
  "compiler": {
    "name": "solc",
    "version": "0.4.24+commit.e67f0147.Emscripten.clang"
  },
  "schemaVersion": "2.0.1",
  "updatedAt": "2018-08-13T14:04:21.715Z"
}