{
  "contractName": "ProxyControllerKeyLib",
  "abi": [
    {
      "constant": true,
      "inputs": [],
      "name": "getProxyControllerKey",
      "outputs": [
        {
          "name": "",
          "type": "bytes32"
        }
      ],
      "payable": false,
      "stateMutability": "pure",
      "type": "function"
    }
  ],
  "bytecode": "0x610145610030600b82828239805160001a6073146000811461002057610022565bfe5b5030600052607381538281f30073000000000000000000000000000000000000000030146080604052600436106100575763ffffffff7c01000000000000000000000000000000000000000000000000000000006000350416637ef3878d811461005c575b600080fd5b610064610076565b60408051918252519081900360200190f35b600060405160200180807f50524f58595f434f4e54524f4c4c45520000000000000000000000000000000081525060100190506040516020818303038152906040526040518082805190602001908083835b602083106100e75780518252601f1990920191602091820191016100c8565b6001836020036101000a03801982511681845116808217855250505050505090500191505060405180910390209050905600a165627a7a72305820cb88e82f4bae43b847ce9aaa69b097411d7b6c08d5b915dcb1f37978164d2bb00029",
  "source": "pragma solidity ^0.4.18;\n\n/**\n * @title ProxyControllerKeyLib\n * @dev Computes Keys to create and lookup values in Enternal Storage \n */\nlibrary ProxyControllerKeyLib {\n    /* \n\n    Proxy Controller Key\n\n    */\n\n    function getProxyControllerKey() public pure returns (bytes32) {\n        return keccak256(abi.encodePacked(\"PROXY_CONTROLLER\"));\n    }\n}",
  "sourcePath": "/Users/bryceDoganer/Solidity/Solidity_Examples/proxy-interface-react/contracts/libs/ProxyControllerKeyLib.sol",
  "compiler": {
    "name": "solc",
    "version": "0.4.24+commit.e67f0147.Emscripten.clang"
  },
  "schemaVersion": "2.0.1",
  "updatedAt": "2018-10-08T23:21:01.891Z"
}