{
  "contractName": "StorageKeyLib",
  "abi": [
    {
      "constant": true,
      "inputs": [
        {
          "name": "_propertyName",
          "type": "string"
        }
      ],
      "name": "getCostKey",
      "outputs": [
        {
          "name": "",
          "type": "bytes32"
        }
      ],
      "payable": false,
      "stateMutability": "pure",
      "type": "function"
    },
    {
      "constant": true,
      "inputs": [
        {
          "name": "_propertyName",
          "type": "string"
        }
      ],
      "name": "getPowerMultiplierKey",
      "outputs": [
        {
          "name": "",
          "type": "bytes32"
        }
      ],
      "payable": false,
      "stateMutability": "pure",
      "type": "function"
    },
    {
      "constant": true,
      "inputs": [
        {
          "name": "_propertyName",
          "type": "string"
        }
      ],
      "name": "getShieldExpirationKey",
      "outputs": [
        {
          "name": "",
          "type": "bytes32"
        }
      ],
      "payable": false,
      "stateMutability": "pure",
      "type": "function"
    },
    {
      "constant": true,
      "inputs": [
        {
          "name": "_propertyName",
          "type": "string"
        }
      ],
      "name": "getPropertyOwnerKey",
      "outputs": [
        {
          "name": "",
          "type": "bytes32"
        }
      ],
      "payable": false,
      "stateMutability": "pure",
      "type": "function"
    },
    {
      "constant": true,
      "inputs": [
        {
          "name": "_owner",
          "type": "address"
        }
      ],
      "name": "getOwnerPropertyCountKey",
      "outputs": [
        {
          "name": "",
          "type": "bytes32"
        }
      ],
      "payable": false,
      "stateMutability": "pure",
      "type": "function"
    },
    {
      "constant": true,
      "inputs": [
        {
          "name": "_propertyName",
          "type": "string"
        }
      ],
      "name": "getPropertyIDFromNameKey",
      "outputs": [
        {
          "name": "",
          "type": "bytes32"
        }
      ],
      "payable": false,
      "stateMutability": "pure",
      "type": "function"
    },
    {
      "constant": true,
      "inputs": [
        {
          "name": "_id",
          "type": "uint256"
        }
      ],
      "name": "getPropertyNameFromIDKey",
      "outputs": [
        {
          "name": "",
          "type": "bytes32"
        }
      ],
      "payable": false,
      "stateMutability": "pure",
      "type": "function"
    },
    {
      "constant": true,
      "inputs": [],
      "name": "getTotalPropertysKey",
      "outputs": [
        {
          "name": "",
          "type": "bytes32"
        }
      ],
      "payable": false,
      "stateMutability": "pure",
      "type": "function"
    },
    {
      "constant": true,
      "inputs": [],
      "name": "getCEOAddressKey",
      "outputs": [
        {
          "name": "",
          "type": "bytes32"
        }
      ],
      "payable": false,
      "stateMutability": "pure",
      "type": "function"
    },
    {
      "constant": true,
      "inputs": [],
      "name": "getCFOAddressKey",
      "outputs": [
        {
          "name": "",
          "type": "bytes32"
        }
      ],
      "payable": false,
      "stateMutability": "pure",
      "type": "function"
    },
    {
      "constant": true,
      "inputs": [],
      "name": "getCOOAddressKey",
      "outputs": [
        {
          "name": "",
          "type": "bytes32"
        }
      ],
      "payable": false,
      "stateMutability": "pure",
      "type": "function"
    },
    {
      "constant": true,
      "inputs": [],
      "name": "getPausedKey",
      "outputs": [
        {
          "name": "",
          "type": "bytes32"
        }
      ],
      "payable": false,
      "stateMutability": "pure",
      "type": "function"
    },
    {
      "constant": true,
      "inputs": [],
      "name": "getCEOPausedKey",
      "outputs": [
        {
          "name": "",
          "type": "bytes32"
        }
      ],
      "payable": false,
      "stateMutability": "pure",
      "type": "function"
    },
    {
      "constant": true,
      "inputs": [
        {
          "name": "_propertyId",
          "type": "uint256"
        }
      ],
      "name": "getApprovalForPropertyIDKey",
      "outputs": [
        {
          "name": "",
          "type": "bytes32"
        }
      ],
      "payable": false,
      "stateMutability": "pure",
      "type": "function"
    }
  ],
  "bytecode": "0x6110d0610030600b82828239805160001a6073146000811461002057610022565bfe5b5030600052607381538281f30073000000000000000000000000000000000000000030146080604052600436106100e7576000357c0100000000000000000000000000000000000000000000000000000000900463ffffffff16806305fe7a43146100ec5780630dfeade21461012857806318240f49146101a05780636ab513c6146101c65780637959408d146101ec578063a6912aaa14610212578063b3b007a31461028a578063bf14703b14610302578063d82a25ef14610328578063e2e3b7cc1461034e578063e61e64911461038a578063efe4fc7a146103dc578063f2b57bdd14610402578063f826ae681461047a575b600080fd5b61010a600480360381019080803590602001909291905050506104f2565b60405180826000191660001916815260200191505060405180910390f35b610182600480360381019080803590602001908201803590602001908080601f01602080910402602001604051908101604052809392919081815260200183838082843782019150505050505091929192905050506105ad565b60405180826000191660001916815260200191505060405180910390f35b6101a86106b5565b60405180826000191660001916815260200191505060405180910390f35b6101ce61075e565b60405180826000191660001916815260200191505060405180910390f35b6101f461080f565b60405180826000191660001916815260200191505060405180910390f35b61026c600480360381019080803590602001908201803590602001908080601f01602080910402602001604051908101604052809392919081815260200183838082843782019150505050505091929192905050506108c0565b60405180826000191660001916815260200191505060405180910390f35b6102e4600480360381019080803590602001908201803590602001908080601f01602080910402602001604051908101604052809392919081815260200183838082843782019150505050505091929192905050506109c8565b60405180826000191660001916815260200191505060405180910390f35b61030a610ad0565b60405180826000191660001916815260200191505060405180910390f35b610330610b81565b60405180826000191660001916815260200191505060405180910390f35b61036c60048036038101908080359060200190929190505050610c32565b60405180826000191660001916815260200191505060405180910390f35b6103be600480360381019080803573ffffffffffffffffffffffffffffffffffffffff169060200190929190505050610ced565b60405180826000191660001916815260200191505060405180910390f35b6103e4610de3565b60405180826000191660001916815260200191505060405180910390f35b61045c600480360381019080803590602001908201803590602001908080601f0160208091040260200160405190810160405280939291908181526020018383808284378201915050505050509192919290505050610e94565b60405180826000191660001916815260200191505060405180910390f35b6104d4600480360381019080803590602001908201803590602001908080601f0160208091040260200160405190810160405280939291908181526020018383808284378201915050505050509192919290505050610f9c565b60405180826000191660001916815260200191505060405180910390f35b6000817f415050524f56414c000000000000000000000000000000000000000000000000604051602001808381526020018260001916600019168152602001925050506040516020818303038152906040526040518082805190602001908083835b6020831015156105795780518252602082019150602081019050602083039250610554565b6001836020036101000a03801982511681845116808217855250505050505090500191505060405180910390209050919050565b6000817f50524f50455254595f4f574e45520000000000000000000000000000000000006040516020018083805190602001908083835b60208310151561060957805182526020820191506020810190506020830392506105e4565b6001836020036101000a0380198251168184511680821785525050505050509050018260001916600019168152602001925050506040516020818303038152906040526040518082805190602001908083835b602083101515610681578051825260208201915060208101905060208303925061065c565b6001836020036101000a03801982511681845116808217855250505050505090500191505060405180910390209050919050565b600060405160200180807f544f54414c5f50524f504552544945530000000000000000000000000000000081525060100190506040516020818303038152906040526040518082805190602001908083835b60208310151561072c5780518252602082019150602081019050602083039250610707565b6001836020036101000a0380198251168184511680821785525050505050509050019150506040518091039020905090565b60007f50415553454400000000000000000000000000000000000000000000000000006040516020018082600019166000191681526020019150506040516020818303038152906040526040518082805190602001908083835b6020831015156107dd57805182526020820191506020810190506020830392506107b8565b6001836020036101000a0380198251168184511680821785525050505050509050019150506040518091039020905090565b60007f43464f5f414444524553530000000000000000000000000000000000000000006040516020018082600019166000191681526020019150506040516020818303038152906040526040518082805190602001908083835b60208310151561088e5780518252602082019150602081019050602083039250610869565b6001836020036101000a0380198251168184511680821785525050505050509050019150506040518091039020905090565b6000817f50524f50455254595f434f5354000000000000000000000000000000000000006040516020018083805190602001908083835b60208310151561091c57805182526020820191506020810190506020830392506108f7565b6001836020036101000a0380198251168184511680821785525050505050509050018260001916600019168152602001925050506040516020818303038152906040526040518082805190602001908083835b602083101515610994578051825260208201915060208101905060208303925061096f565b6001836020036101000a03801982511681845116808217855250505050505090500191505060405180910390209050919050565b6000817f50524f50455254595f504f5745525f4d554c5449504c494552000000000000006040516020018083805190602001908083835b602083101515610a2457805182526020820191506020810190506020830392506109ff565b6001836020036101000a0380198251168184511680821785525050505050509050018260001916600019168152602001925050506040516020818303038152906040526040518082805190602001908083835b602083101515610a9c5780518252602082019150602081019050602083039250610a77565b6001836020036101000a03801982511681845116808217855250505050505090500191505060405180910390209050919050565b60007f5041555345445f43454f000000000000000000000000000000000000000000006040516020018082600019166000191681526020019150506040516020818303038152906040526040518082805190602001908083835b602083101515610b4f5780518252602082019150602081019050602083039250610b2a565b6001836020036101000a0380198251168184511680821785525050505050509050019150506040518091039020905090565b60007f434f4f5f414444524553530000000000000000000000000000000000000000006040516020018082600019166000191681526020019150506040516020818303038152906040526040518082805190602001908083835b602083101515610c005780518252602082019150602081019050602083039250610bdb565b6001836020036101000a0380198251168184511680821785525050505050509050019150506040518091039020905090565b6000817f50524f50455254595f4944000000000000000000000000000000000000000000604051602001808381526020018260001916600019168152602001925050506040516020818303038152906040526040518082805190602001908083835b602083101515610cb95780518252602082019150602081019050602083039250610c94565b6001836020036101000a03801982511681845116808217855250505050505090500191505060405180910390209050919050565b6000817f50524f50455254595f434f554e54000000000000000000000000000000000000604051602001808373ffffffffffffffffffffffffffffffffffffffff1673ffffffffffffffffffffffffffffffffffffffff166c010000000000000000000000000281526014018260001916600019168152602001925050506040516020818303038152906040526040518082805190602001908083835b602083101515610daf5780518252602082019150602081019050602083039250610d8a565b6001836020036101000a03801982511681845116808217855250505050505090500191505060405180910390209050919050565b60007f43454f5f414444524553530000000000000000000000000000000000000000006040516020018082600019166000191681526020019150506040516020818303038152906040526040518082805190602001908083835b602083101515610e625780518252602082019150602081019050602083039250610e3d565b6001836020036101000a0380198251168184511680821785525050505050509050019150506040518091039020905090565b6000817f50524f50455254595f49440000000000000000000000000000000000000000006040516020018083805190602001908083835b602083101515610ef05780518252602082019150602081019050602083039250610ecb565b6001836020036101000a0380198251168184511680821785525050505050509050018260001916600019168152602001925050506040516020818303038152906040526040518082805190602001908083835b602083101515610f685780518252602082019150602081019050602083039250610f43565b6001836020036101000a03801982511681845116808217855250505050505090500191505060405180910390209050919050565b6000817f50524f50455254595f534849454c445f45585049524154494f4e0000000000006040516020018083805190602001908083835b602083101515610ff85780518252602082019150602081019050602083039250610fd3565b6001836020036101000a0380198251168184511680821785525050505050509050018260001916600019168152602001925050506040516020818303038152906040526040518082805190602001908083835b602083101515611070578051825260208201915060208101905060208303925061104b565b6001836020036101000a038019825116818451168082178552505050505050905001915050604051809103902090509190505600a165627a7a723058207fb9eb5135a2a2d576fd47a1aa99518d8d3fb6498b1415a42c56162889f3d0ee0029",
  "source": "/* global describe it abi */\npragma solidity ^0.4.24;\n\n/**\n * @title StorageKeyLib\n * @dev Computes Keys to create and lookup values in Enternal Storage \n */\nlibrary StorageKeyLib {\n    /* \n\n    PROPERTY Keys\n\n    */\n\n    // To store PROPERTY values in Eternal Storage, the PROPERTY name is hashed\n    //  along with one of these values. \n    bytes32 constant internal PROPERTY_COST = \"PROPERTY_COST\";\n    bytes32 constant internal PROPERTY_POWER_MULTIPLIER = \"PROPERTY_POWER_MULTIPLIER\";\n    bytes32 constant internal PROPERTY_SHIELD_EXPIRATION = \"PROPERTY_SHIELD_EXPIRATION\";\n    bytes32 constant internal PROPERTY_OWNER = \"PROPERTY_OWNER\";\n    bytes32 constant internal PROPERTY_COUNT = \"PROPERTY_COUNT\";\n    bytes32 constant internal PROPERTY_ID = \"PROPERTY_ID\";\n    bytes32 constant internal TOTAL_PROPERTYS = \"TOTAL_PROPERTYS\";\n    \n    function getCostKey(string _propertyName) public pure returns (bytes32) {\n        return keccak256(abi.encodePacked(_propertyName, PROPERTY_COST));\n    }\n\n    function getPowerMultiplierKey(string _propertyName) public pure returns (bytes32) {\n        return keccak256(abi.encodePacked(_propertyName, PROPERTY_POWER_MULTIPLIER));\n    }\n\n    function getShieldExpirationKey(string _propertyName) public pure returns (bytes32) {\n        return keccak256(abi.encodePacked(_propertyName, PROPERTY_SHIELD_EXPIRATION));\n    }\n    \n    function getPropertyOwnerKey(string _propertyName) public pure returns (bytes32) {\n        return keccak256(abi.encodePacked(_propertyName, PROPERTY_OWNER));\n    }\n\n    function getOwnerPropertyCountKey(address _owner) public pure returns (bytes32) {\n        return keccak256(abi.encodePacked(_owner, PROPERTY_COUNT));\n    }\n\n    function getPropertyIDFromNameKey(string _propertyName) public pure returns (bytes32) {\n        return keccak256(abi.encodePacked(_propertyName, PROPERTY_ID));\n    }\n\n    function getPropertyNameFromIDKey(uint _id) public pure returns (bytes32) {\n        return keccak256(abi.encodePacked(_id, PROPERTY_ID));\n    }\n\n    function getTotalPropertysKey() public pure returns (bytes32) {\n        return keccak256(abi.encodePacked(\"TOTAL_PROPERTIES\"));\n    }\n\n    /*\n\n    Admin Keys\n\n    */\n\n    // NOTE: Can't change the CEO_ADDRESS key because it's hardcoded in the proxy\n    bytes32 constant internal CEO_ADDRESS = \"CEO_ADDRESS\";\n    bytes32 constant internal CFO_ADDRESS = \"CFO_ADDRESS\";\n    bytes32 constant internal COO_ADDRESS = \"COO_ADDRESS\";\n    \n    bytes32 constant internal PAUSED = \"PAUSED\";\n    bytes32 constant internal PAUSED_CEO = \"PAUSED_CEO\";\n\n    function getCEOAddressKey() public pure returns (bytes32) {\n        return keccak256(abi.encodePacked(CEO_ADDRESS));\n    } \n    \n    function getCFOAddressKey() public pure returns (bytes32) {\n        return keccak256(abi.encodePacked(CFO_ADDRESS));\n    } \n\n    function getCOOAddressKey() public pure returns (bytes32) {\n        return keccak256(abi.encodePacked(COO_ADDRESS));\n    } \n    \n    function getPausedKey() public pure returns (bytes32) {\n        return keccak256(abi.encodePacked(PAUSED));\n    } \n    \n    function getCEOPausedKey() public pure returns (bytes32) {\n        return keccak256(abi.encodePacked(PAUSED_CEO));\n    } \n\n\n    /*\n\n    ERC721 Implementation Keys\n\n    */\n\n    // FIXME: Not going planning on implementing the operator code\n    // bytes32 constant internal NUM_OPERATORS = \"NUM_OPERATORS\";\n    // bytes32 constant internal OPERATOR = \"OPERATOR\";\n    bytes32 constant internal APPROVAL = \"APPROVAL\";\n\n    // function getNumOperatorsForAddressKey(address _owner) public pure returns (bytes32) {\n    //     return keccak256(abi.encodePacked(_owner, NUM_OPERATORS));\n    // } \n    \n    // /// @notice Return the lookup key for _operatorID of _owner addresss\n    // function getOperatorIDForAddressKey(address _owner, uint _operatorID) public pure returns (bytes32) {\n    //     return keccak256(abi.encodePacked(_owner, _operatorID, OPERATOR));\n    // }\n\n    /// @notice Return the lookup key for _operatorID of _owner addresss\n    function getApprovalForPropertyIDKey(uint _propertyId) public pure returns (bytes32) {\n        return keccak256(abi.encodePacked(_propertyId, APPROVAL));\n    } \n\n\n}",
  "sourcePath": "/Users/bryceDoganer/Solidity/Solidity_Examples/proxy-interface-react/contracts/libs/StorageKeyLib.sol",
  "compiler": {
    "name": "solc",
    "version": "0.4.24+commit.e67f0147.Emscripten.clang"
  },
  "schemaVersion": "2.0.1",
  "updatedAt": "2018-08-14T23:10:33.917Z"
}