{
  "contractName": "StorageKeyLib",
  "abi": [
    {
      "constant": true,
      "inputs": [
        {
          "name": "_propertyName",
          "type": "string"
        }
      ],
      "name": "getCostKey",
      "outputs": [
        {
          "name": "",
          "type": "bytes32"
        }
      ],
      "payable": false,
      "stateMutability": "pure",
      "type": "function"
    },
    {
      "constant": true,
      "inputs": [
        {
          "name": "_propertyName",
          "type": "string"
        }
      ],
      "name": "getPowerMultiplierKey",
      "outputs": [
        {
          "name": "",
          "type": "bytes32"
        }
      ],
      "payable": false,
      "stateMutability": "pure",
      "type": "function"
    },
    {
      "constant": true,
      "inputs": [
        {
          "name": "_propertyName",
          "type": "string"
        }
      ],
      "name": "getShieldExpirationKey",
      "outputs": [
        {
          "name": "",
          "type": "bytes32"
        }
      ],
      "payable": false,
      "stateMutability": "pure",
      "type": "function"
    },
    {
      "constant": true,
      "inputs": [
        {
          "name": "_propertyName",
          "type": "string"
        }
      ],
      "name": "getPropertyOwnerKey",
      "outputs": [
        {
          "name": "",
          "type": "bytes32"
        }
      ],
      "payable": false,
      "stateMutability": "pure",
      "type": "function"
    },
    {
      "constant": true,
      "inputs": [
        {
          "name": "_owner",
          "type": "address"
        }
      ],
      "name": "getOwnerPropertyCountKey",
      "outputs": [
        {
          "name": "",
          "type": "bytes32"
        }
      ],
      "payable": false,
      "stateMutability": "pure",
      "type": "function"
    },
    {
      "constant": true,
      "inputs": [
        {
          "name": "_propertyName",
          "type": "string"
        }
      ],
      "name": "getPropertyIDFromNameKey",
      "outputs": [
        {
          "name": "",
          "type": "bytes32"
        }
      ],
      "payable": false,
      "stateMutability": "pure",
      "type": "function"
    },
    {
      "constant": true,
      "inputs": [
        {
          "name": "_id",
          "type": "uint256"
        }
      ],
      "name": "getPropertyNameFromIDKey",
      "outputs": [
        {
          "name": "",
          "type": "bytes32"
        }
      ],
      "payable": false,
      "stateMutability": "pure",
      "type": "function"
    },
    {
      "constant": true,
      "inputs": [],
      "name": "getTotalPropertiesKey",
      "outputs": [
        {
          "name": "",
          "type": "bytes32"
        }
      ],
      "payable": false,
      "stateMutability": "pure",
      "type": "function"
    },
    {
      "constant": true,
      "inputs": [],
      "name": "getCEOAddressKey",
      "outputs": [
        {
          "name": "",
          "type": "bytes32"
        }
      ],
      "payable": false,
      "stateMutability": "pure",
      "type": "function"
    },
    {
      "constant": true,
      "inputs": [],
      "name": "getCFOAddressKey",
      "outputs": [
        {
          "name": "",
          "type": "bytes32"
        }
      ],
      "payable": false,
      "stateMutability": "pure",
      "type": "function"
    },
    {
      "constant": true,
      "inputs": [],
      "name": "getCOOAddressKey",
      "outputs": [
        {
          "name": "",
          "type": "bytes32"
        }
      ],
      "payable": false,
      "stateMutability": "pure",
      "type": "function"
    },
    {
      "constant": true,
      "inputs": [],
      "name": "getPausedKey",
      "outputs": [
        {
          "name": "",
          "type": "bytes32"
        }
      ],
      "payable": false,
      "stateMutability": "pure",
      "type": "function"
    },
    {
      "constant": true,
      "inputs": [],
      "name": "getCEOPausedKey",
      "outputs": [
        {
          "name": "",
          "type": "bytes32"
        }
      ],
      "payable": false,
      "stateMutability": "pure",
      "type": "function"
    },
    {
      "constant": true,
      "inputs": [
        {
          "name": "_propertyId",
          "type": "uint256"
        }
      ],
      "name": "getApprovalForPropertyIDKey",
      "outputs": [
        {
          "name": "",
          "type": "bytes32"
        }
      ],
      "payable": false,
      "stateMutability": "pure",
      "type": "function"
    }
  ],
  "bytecode": "0x610989610030600b82828239805160001a6073146000811461002057610022565bfe5b5030600052607381538281f30073000000000000000000000000000000000000000030146080604052600436106100e65763ffffffff7c010000000000000000000000000000000000000000000000000000000060003504166305fe7a4381146100eb5780630dfeade2146101085780636ab513c6146101545780637805c7581461015c5780637959408d14610164578063a6912aaa1461016c578063b3b007a3146101b8578063bf14703b14610204578063d82a25ef1461020c578063e2e3b7cc14610214578063e61e64911461021f578063efe4fc7a14610240578063f2b57bdd14610248578063f826ae6814610294575b600080fd5b6100f66004356102e0565b60408051918252519081900360200190f35b6040805160206004803580820135601f81018490048402850184019095528484526100f69436949293602493928401919081908401838280828437509497506103849650505050505050565b6100f661043b565b6100f66104da565b6100f661054a565b6040805160206004803580820135601f81018490048402850184019095528484526100f69436949293602493928401919081908401838280828437509497506105b69650505050505050565b6040805160206004803580820135601f81018490048402850184019095528484526100f694369492936024939284019190819084018382808284375094975061060b9650505050505050565b6100f6610660565b6100f66106cc565b6100f6600435610738565b6100f673ffffffffffffffffffffffffffffffffffffffff600435166107a9565b6100f6610847565b6040805160206004803580820135601f81018490048402850184019095528484526100f69436949293602493928401919081908401838280828437509497506108b39650505050505050565b6040805160206004803580820135601f81018490048402850184019095528484526100f69436949293602493928401919081908401838280828437509497506109089650505050505050565b6040805160208082018490527f415050524f56414c000000000000000000000000000000000000000000000000828401528251808303840181526060909201928390528151600093918291908401908083835b602083106103525780518252601f199092019160209182019101610333565b5181516020939093036101000a6000190180199091169216919091179052604051920182900390912095945050505050565b6000817f50524f50455254595f4f574e45520000000000000000000000000000000000006040516020018083805190602001908083835b602083106103da5780518252601f1990920191602091820191016103bb565b51815160001960209485036101000a019081169019919091161790529201938452506040805180850381529382019081905283519394509283925090840190808383602083106103525780518252601f199092019160209182019101610333565b604080517f5041555345440000000000000000000000000000000000000000000000000000602080830191909152825180830382018152918301928390528151600093918291908401908083835b602083106104a85780518252601f199092019160209182019101610489565b6001836020036101000a0380198251168184511680821785525050505050509050019150506040518091039020905090565b600060405160200180807f544f54414c5f50524f50455254494553000000000000000000000000000000008152506010019050604051602081830303815290604052604051808280519060200190808383602083106104a85780518252601f199092019160209182019101610489565b604080517f43464f5f4144445245535300000000000000000000000000000000000000000060208083019190915282518083038201815291830192839052815160009391829190840190808383602083106104a85780518252601f199092019160209182019101610489565b6000817f50524f50455254595f434f535400000000000000000000000000000000000000604051602001808380519060200190808383602083106103da5780518252601f1990920191602091820191016103bb565b6000817f50524f50455254595f504f5745525f4d554c5449504c49455200000000000000604051602001808380519060200190808383602083106103da5780518252601f1990920191602091820191016103bb565b604080517f5041555345445f43454f0000000000000000000000000000000000000000000060208083019190915282518083038201815291830192839052815160009391829190840190808383602083106104a85780518252601f199092019160209182019101610489565b604080517f434f4f5f4144445245535300000000000000000000000000000000000000000060208083019190915282518083038201815291830192839052815160009391829190840190808383602083106104a85780518252601f199092019160209182019101610489565b6040805160208082018490527f50524f50455254595f494400000000000000000000000000000000000000000082840152825180830384018152606090920192839052815160009391829190840190808383602083106103525780518252601f199092019160209182019101610333565b604080516c0100000000000000000000000073ffffffffffffffffffffffffffffffffffffffff8416026020808301919091527f50524f50455254595f434f554e5400000000000000000000000000000000000060348084019190915283518084039091018152605490920192839052815160009391829190840190808383602083106103525780518252601f199092019160209182019101610333565b604080517f43454f5f4144445245535300000000000000000000000000000000000000000060208083019190915282518083038201815291830192839052815160009391829190840190808383602083106104a85780518252601f199092019160209182019101610489565b6000817f50524f50455254595f4944000000000000000000000000000000000000000000604051602001808380519060200190808383602083106103da5780518252601f1990920191602091820191016103bb565b6000817f50524f50455254595f534849454c445f45585049524154494f4e000000000000604051602001808380519060200190808383602083106103da5780518252601f1990920191602091820191016103bb5600a165627a7a7230582012087659a13e769a9b6ecd0ceb7ce9cdf0caa1774bb9b5cc217ae583fc40242d0029",
  "source": "/* global describe it abi */\npragma solidity ^0.4.24;\n\n/**\n * @title StorageKeyLib\n * @dev Computes Keys to create and lookup values in Enternal Storage \n */\nlibrary StorageKeyLib {\n    /* \n\n    PROPERTY Keys\n\n    */\n\n    // To store PROPERTY values in Eternal Storage, the PROPERTY name is hashed\n    //  along with one of these values. \n    bytes32 constant internal PROPERTY_COST = \"PROPERTY_COST\";\n    bytes32 constant internal PROPERTY_POWER_MULTIPLIER = \"PROPERTY_POWER_MULTIPLIER\";\n    bytes32 constant internal PROPERTY_SHIELD_EXPIRATION = \"PROPERTY_SHIELD_EXPIRATION\";\n    bytes32 constant internal PROPERTY_OWNER = \"PROPERTY_OWNER\";\n    bytes32 constant internal PROPERTY_COUNT = \"PROPERTY_COUNT\";\n    bytes32 constant internal PROPERTY_ID = \"PROPERTY_ID\";\n    bytes32 constant internal TOTAL_PROPERTYS = \"TOTAL_PROPERTYS\";\n    \n    function getCostKey(string _propertyName) public pure returns (bytes32) {\n        return keccak256(abi.encodePacked(_propertyName, PROPERTY_COST));\n    }\n\n    function getPowerMultiplierKey(string _propertyName) public pure returns (bytes32) {\n        return keccak256(abi.encodePacked(_propertyName, PROPERTY_POWER_MULTIPLIER));\n    }\n\n    function getShieldExpirationKey(string _propertyName) public pure returns (bytes32) {\n        return keccak256(abi.encodePacked(_propertyName, PROPERTY_SHIELD_EXPIRATION));\n    }\n    \n    function getPropertyOwnerKey(string _propertyName) public pure returns (bytes32) {\n        return keccak256(abi.encodePacked(_propertyName, PROPERTY_OWNER));\n    }\n\n    function getOwnerPropertyCountKey(address _owner) public pure returns (bytes32) {\n        return keccak256(abi.encodePacked(_owner, PROPERTY_COUNT));\n    }\n\n    function getPropertyIDFromNameKey(string _propertyName) public pure returns (bytes32) {\n        return keccak256(abi.encodePacked(_propertyName, PROPERTY_ID));\n    }\n\n    function getPropertyNameFromIDKey(uint _id) public pure returns (bytes32) {\n        return keccak256(abi.encodePacked(_id, PROPERTY_ID));\n    }\n\n    function getTotalPropertiesKey() public pure returns (bytes32) {\n        return keccak256(abi.encodePacked(\"TOTAL_PROPERTIES\"));\n    }\n\n    /*\n\n    Admin Keys\n\n    */\n\n    // NOTE: Can't change the CEO_ADDRESS key because it's hardcoded in the proxy\n    bytes32 constant internal CEO_ADDRESS = \"CEO_ADDRESS\";\n    bytes32 constant internal CFO_ADDRESS = \"CFO_ADDRESS\";\n    bytes32 constant internal COO_ADDRESS = \"COO_ADDRESS\";\n    \n    bytes32 constant internal PAUSED = \"PAUSED\";\n    bytes32 constant internal PAUSED_CEO = \"PAUSED_CEO\";\n\n    function getCEOAddressKey() public pure returns (bytes32) {\n        return keccak256(abi.encodePacked(CEO_ADDRESS));\n    } \n    \n    function getCFOAddressKey() public pure returns (bytes32) {\n        return keccak256(abi.encodePacked(CFO_ADDRESS));\n    } \n\n    function getCOOAddressKey() public pure returns (bytes32) {\n        return keccak256(abi.encodePacked(COO_ADDRESS));\n    } \n    \n    function getPausedKey() public pure returns (bytes32) {\n        return keccak256(abi.encodePacked(PAUSED));\n    } \n    \n    function getCEOPausedKey() public pure returns (bytes32) {\n        return keccak256(abi.encodePacked(PAUSED_CEO));\n    } \n\n\n    /*\n\n    ERC721 Implementation Keys\n\n    */\n\n    // FIXME: Not going planning on implementing the operator code\n    // bytes32 constant internal NUM_OPERATORS = \"NUM_OPERATORS\";\n    // bytes32 constant internal OPERATOR = \"OPERATOR\";\n    bytes32 constant internal APPROVAL = \"APPROVAL\";\n\n    // function getNumOperatorsForAddressKey(address _owner) public pure returns (bytes32) {\n    //     return keccak256(abi.encodePacked(_owner, NUM_OPERATORS));\n    // } \n    \n    // /// @notice Return the lookup key for _operatorID of _owner addresss\n    // function getOperatorIDForAddressKey(address _owner, uint _operatorID) public pure returns (bytes32) {\n    //     return keccak256(abi.encodePacked(_owner, _operatorID, OPERATOR));\n    // }\n\n    /// @notice Return the lookup key for _operatorID of _owner addresss\n    function getApprovalForPropertyIDKey(uint _propertyId) public pure returns (bytes32) {\n        return keccak256(abi.encodePacked(_propertyId, APPROVAL));\n    } \n\n\n}",
  "sourcePath": "/Users/bryceDoganer/Solidity/Solidity_Examples/proxy-interface-react/contracts/libs/StorageKeyLib.sol",
  "compiler": {
    "name": "solc",
    "version": "0.4.24+commit.e67f0147.Emscripten.clang"
  },
  "schemaVersion": "2.0.1",
  "updatedAt": "2018-08-15T17:51:17.923Z"
}