{
  "contractName": "StorageKeyLib",
  "abi": [
    {
      "constant": true,
      "inputs": [
        {
          "name": "_propertyName",
          "type": "string"
        }
      ],
      "name": "getCostKey",
      "outputs": [
        {
          "name": "",
          "type": "bytes32"
        }
      ],
      "payable": false,
      "stateMutability": "pure",
      "type": "function"
    },
    {
      "constant": true,
      "inputs": [
        {
          "name": "_propertyName",
          "type": "string"
        }
      ],
      "name": "getPowerMultiplierKey",
      "outputs": [
        {
          "name": "",
          "type": "bytes32"
        }
      ],
      "payable": false,
      "stateMutability": "pure",
      "type": "function"
    },
    {
      "constant": true,
      "inputs": [
        {
          "name": "_propertyName",
          "type": "string"
        }
      ],
      "name": "getShieldExpirationKey",
      "outputs": [
        {
          "name": "",
          "type": "bytes32"
        }
      ],
      "payable": false,
      "stateMutability": "pure",
      "type": "function"
    },
    {
      "constant": true,
      "inputs": [
        {
          "name": "_propertyName",
          "type": "string"
        }
      ],
      "name": "getPropertyOwnerKey",
      "outputs": [
        {
          "name": "",
          "type": "bytes32"
        }
      ],
      "payable": false,
      "stateMutability": "pure",
      "type": "function"
    },
    {
      "constant": true,
      "inputs": [
        {
          "name": "_owner",
          "type": "address"
        }
      ],
      "name": "getOwnerPropertyCountKey",
      "outputs": [
        {
          "name": "",
          "type": "bytes32"
        }
      ],
      "payable": false,
      "stateMutability": "pure",
      "type": "function"
    },
    {
      "constant": true,
      "inputs": [
        {
          "name": "_propertyName",
          "type": "string"
        }
      ],
      "name": "getPropertyIDFromNameKey",
      "outputs": [
        {
          "name": "",
          "type": "bytes32"
        }
      ],
      "payable": false,
      "stateMutability": "pure",
      "type": "function"
    },
    {
      "constant": true,
      "inputs": [
        {
          "name": "_id",
          "type": "uint256"
        }
      ],
      "name": "getPropertyNameFromIDKey",
      "outputs": [
        {
          "name": "",
          "type": "bytes32"
        }
      ],
      "payable": false,
      "stateMutability": "pure",
      "type": "function"
    },
    {
      "constant": true,
      "inputs": [],
      "name": "getTotalPropertiesKey",
      "outputs": [
        {
          "name": "",
          "type": "bytes32"
        }
      ],
      "payable": false,
      "stateMutability": "pure",
      "type": "function"
    },
    {
      "constant": true,
      "inputs": [],
      "name": "getCEOAddressKey",
      "outputs": [
        {
          "name": "",
          "type": "bytes32"
        }
      ],
      "payable": false,
      "stateMutability": "pure",
      "type": "function"
    },
    {
      "constant": true,
      "inputs": [],
      "name": "getCFOAddressKey",
      "outputs": [
        {
          "name": "",
          "type": "bytes32"
        }
      ],
      "payable": false,
      "stateMutability": "pure",
      "type": "function"
    },
    {
      "constant": true,
      "inputs": [],
      "name": "getCOOAddressKey",
      "outputs": [
        {
          "name": "",
          "type": "bytes32"
        }
      ],
      "payable": false,
      "stateMutability": "pure",
      "type": "function"
    },
    {
      "constant": true,
      "inputs": [],
      "name": "getPausedKey",
      "outputs": [
        {
          "name": "",
          "type": "bytes32"
        }
      ],
      "payable": false,
      "stateMutability": "pure",
      "type": "function"
    },
    {
      "constant": true,
      "inputs": [],
      "name": "getCEOPausedKey",
      "outputs": [
        {
          "name": "",
          "type": "bytes32"
        }
      ],
      "payable": false,
      "stateMutability": "pure",
      "type": "function"
    }
  ],
  "bytecode": "0x610900610030600b82828239805160001a6073146000811461002057610022565bfe5b5030600052607381538281f30073000000000000000000000000000000000000000030146080604052600436106100db5763ffffffff7c01000000000000000000000000000000000000000000000000000000006000350416630dfeade281146100e05780636ab513c61461013e5780637805c758146101465780637959408d1461014e578063a6912aaa14610156578063b3b007a3146101a2578063bf14703b146101ee578063d82a25ef146101f6578063e2e3b7cc146101fe578063e61e649114610209578063efe4fc7a1461022a578063f2b57bdd14610232578063f826ae681461027e575b600080fd5b6040805160206004803580820135601f810184900484028501840190955284845261012c9436949293602493928401919081908401838280828437509497506102ca9650505050505050565b60408051918252519081900360200190f35b61012c6103b2565b61012c610451565b61012c6104c1565b6040805160206004803580820135601f810184900484028501840190955284845261012c94369492936024939284019190819084018382808284375094975061052d9650505050505050565b6040805160206004803580820135601f810184900484028501840190955284845261012c9436949293602493928401919081908401838280828437509497506105829650505050505050565b61012c6105d7565b61012c610643565b61012c6004356106af565b61012c73ffffffffffffffffffffffffffffffffffffffff60043516610720565b61012c6107be565b6040805160206004803580820135601f810184900484028501840190955284845261012c94369492936024939284019190819084018382808284375094975061082a9650505050505050565b6040805160206004803580820135601f810184900484028501840190955284845261012c94369492936024939284019190819084018382808284375094975061087f9650505050505050565b6000817f50524f50455254595f4f574e45520000000000000000000000000000000000006040516020018083805190602001908083835b602083106103205780518252601f199092019160209182019101610301565b51815160209384036101000a600019018019909216911617905292019384525060408051808503815293820190819052835193945092839250908401908083835b602083106103805780518252601f199092019160209182019101610361565b5181516020939093036101000a6000190180199091169216919091179052604051920182900390912095945050505050565b604080517f5041555345440000000000000000000000000000000000000000000000000000602080830191909152825180830382018152918301928390528151600093918291908401908083835b6020831061041f5780518252601f199092019160209182019101610400565b6001836020036101000a0380198251168184511680821785525050505050509050019150506040518091039020905090565b600060405160200180807f544f54414c5f50524f504552544945530000000000000000000000000000000081525060100190506040516020818303038152906040526040518082805190602001908083836020831061041f5780518252601f199092019160209182019101610400565b604080517f43464f5f41444452455353000000000000000000000000000000000000000000602080830191909152825180830382018152918301928390528151600093918291908401908083836020831061041f5780518252601f199092019160209182019101610400565b6000817f50524f50455254595f434f535400000000000000000000000000000000000000604051602001808380519060200190808383602083106103205780518252601f199092019160209182019101610301565b6000817f50524f50455254595f504f5745525f4d554c5449504c49455200000000000000604051602001808380519060200190808383602083106103205780518252601f199092019160209182019101610301565b604080517f5041555345445f43454f00000000000000000000000000000000000000000000602080830191909152825180830382018152918301928390528151600093918291908401908083836020831061041f5780518252601f199092019160209182019101610400565b604080517f434f4f5f41444452455353000000000000000000000000000000000000000000602080830191909152825180830382018152918301928390528151600093918291908401908083836020831061041f5780518252601f199092019160209182019101610400565b6040805160208082018490527f50524f50455254595f494400000000000000000000000000000000000000000082840152825180830384018152606090920192839052815160009391829190840190808383602083106103805780518252601f199092019160209182019101610361565b604080516c0100000000000000000000000073ffffffffffffffffffffffffffffffffffffffff8416026020808301919091527f50524f50455254595f434f554e5400000000000000000000000000000000000060348084019190915283518084039091018152605490920192839052815160009391829190840190808383602083106103805780518252601f199092019160209182019101610361565b604080517f43454f5f41444452455353000000000000000000000000000000000000000000602080830191909152825180830382018152918301928390528151600093918291908401908083836020831061041f5780518252601f199092019160209182019101610400565b6000817f50524f50455254595f4944000000000000000000000000000000000000000000604051602001808380519060200190808383602083106103205780518252601f199092019160209182019101610301565b6000817f50524f50455254595f534849454c445f45585049524154494f4e000000000000604051602001808380519060200190808383602083106103205780518252601f1990920191602091820191016103015600a165627a7a72305820e887fddea051aec2d179838e9a2b3f3ae8b65f26f721487e1f790e3cb1930c9c0029",
  "source": "/* global describe it abi */\npragma solidity ^0.4.24;\n\n/**\n * @title StorageKeyLib\n * @dev Computes Keys to create and lookup values in Enternal Storage \n */\nlibrary StorageKeyLib {\n    /* \n\n    PROPERTY Keys\n\n    */\n\n    // To store PROPERTY values in Eternal Storage, the PROPERTY name is hashed\n    //  along with one of these values. \n    bytes32 constant internal PROPERTY_COST = \"PROPERTY_COST\";\n    bytes32 constant internal PROPERTY_POWER_MULTIPLIER = \"PROPERTY_POWER_MULTIPLIER\";\n    bytes32 constant internal PROPERTY_SHIELD_EXPIRATION = \"PROPERTY_SHIELD_EXPIRATION\";\n    bytes32 constant internal PROPERTY_OWNER = \"PROPERTY_OWNER\";\n    bytes32 constant internal PROPERTY_COUNT = \"PROPERTY_COUNT\";\n    bytes32 constant internal PROPERTY_ID = \"PROPERTY_ID\";\n    bytes32 constant internal TOTAL_PROPERTYS = \"TOTAL_PROPERTYS\";\n    \n    function getCostKey(string _propertyName) public pure returns (bytes32) {\n        return keccak256(abi.encodePacked(_propertyName, PROPERTY_COST));\n    }\n\n    function getPowerMultiplierKey(string _propertyName) public pure returns (bytes32) {\n        return keccak256(abi.encodePacked(_propertyName, PROPERTY_POWER_MULTIPLIER));\n    }\n\n    function getShieldExpirationKey(string _propertyName) public pure returns (bytes32) {\n        return keccak256(abi.encodePacked(_propertyName, PROPERTY_SHIELD_EXPIRATION));\n    }\n    \n    function getPropertyOwnerKey(string _propertyName) public pure returns (bytes32) {\n        return keccak256(abi.encodePacked(_propertyName, PROPERTY_OWNER));\n    }\n\n    function getOwnerPropertyCountKey(address _owner) public pure returns (bytes32) {\n        return keccak256(abi.encodePacked(_owner, PROPERTY_COUNT));\n    }\n\n    function getPropertyIDFromNameKey(string _propertyName) public pure returns (bytes32) {\n        return keccak256(abi.encodePacked(_propertyName, PROPERTY_ID));\n    }\n\n    function getPropertyNameFromIDKey(uint _id) public pure returns (bytes32) {\n        return keccak256(abi.encodePacked(_id, PROPERTY_ID));\n    }\n\n    function getTotalPropertiesKey() public pure returns (bytes32) {\n        return keccak256(abi.encodePacked(\"TOTAL_PROPERTIES\"));\n    }\n\n    /*\n\n    Admin Keys\n\n    */\n    bytes32 constant internal CEO_ADDRESS = \"CEO_ADDRESS\";\n    bytes32 constant internal CFO_ADDRESS = \"CFO_ADDRESS\";\n    bytes32 constant internal COO_ADDRESS = \"COO_ADDRESS\";\n    \n    bytes32 constant internal PAUSED = \"PAUSED\";\n    bytes32 constant internal PAUSED_CEO = \"PAUSED_CEO\";\n\n    function getCEOAddressKey() public pure returns (bytes32) {\n        return keccak256(abi.encodePacked(CEO_ADDRESS));\n    } \n    \n    function getCFOAddressKey() public pure returns (bytes32) {\n        return keccak256(abi.encodePacked(CFO_ADDRESS));\n    } \n\n    function getCOOAddressKey() public pure returns (bytes32) {\n        return keccak256(abi.encodePacked(COO_ADDRESS));\n    } \n    \n    function getPausedKey() public pure returns (bytes32) {\n        return keccak256(abi.encodePacked(PAUSED));\n    } \n    \n    function getCEOPausedKey() public pure returns (bytes32) {\n        return keccak256(abi.encodePacked(PAUSED_CEO));\n    } \n}",
  "sourcePath": "/Users/bryceDoganer/Solidity/Solidity_Examples/proxy-interface-react/contracts/libs/StorageKeyLib.sol",
  "compiler": {
    "name": "solc",
    "version": "0.4.24+commit.e67f0147.Emscripten.clang"
  },
  "schemaVersion": "2.0.1",
  "updatedAt": "2018-10-08T23:21:01.893Z"
}